:100000006F10601300000000E6110000E611000010
:10001000A9BDF9F3E6110000000000000000000097
:10002000E6110000E61100000000000000000000E2
:10003000E611000000000000E611000000000000D2
:10004000E6110000E6110000E6110000E6110000D4
:10005000E61100004E1B0000E61100000000000049
:10006000D2020020E6110000E6110000E6110000B7
:10007000E6110000E6110000E6110000E6110000A4
:10008000E6110000E6110000E6110000E611000094
:10009000B727004009472380E740130750FC23801F
:1000A000E7401145171300E06700E3DFB7170020B2
:1000B00083C79743371700201307C743BA970385B1
:1000C00007008280B717002083C7974337170020A7
:1000D0001307D743BA9703C5070011810589134554
:1000E00015008280011126CAB7C400409384041011
:1000F000DC5806CE22CCF19B93E717004AC84EC6C7
:1001000052C4AA89DCD836852E8A3A84328997105F
:1001100000E0E780C0C213058025971000E0E7806B
:1001200040B5B757550023A6340193875755DCC017
:1001300023A03407BCCC9C44B70600FF37078000DF
:100140001307D732F58FD98F9CC4FC4CF58FD98F0C
:10015000FCCCB7C700409387072023AC47078567CF
:100160009387A7BB37D70040345713967600634474
:100170000600FD17F5FBB7C7004009479387071036
:100180006318E40898431377F7CFB7C70040938705
:10019000071098C3D8537914B70600FAFD16333404
:1001A0008000758F6604598CC0D337C40040130497
:1001B000042018488176FD16758F18C8370702008D
:1001C00018C42609232224079843B7060001558F37
:1001D00098C3D85B719BD8DB89471CC07C50FDFF5E
:1001E0000145971000E0E780C0A81C408D8B89CBAB
:1001F0003C4893F7F78F3CC81C4093E787001CC02E
:10020000F2406244D2444249B249224A05618280A6
:1002100098431377F7CF1367071085BF411126C2A4
:10022000AA84014522C44AC006C62E89328497108A
:1002300000E0E78000A4B7C70040938707209843F9
:100240000D8B09CBB84B1377F78FB8CB9843136757
:10025000870098C3B7C700409387072023A20706EB
:100260004A85971000E0E78080AD13058015971050
:1002700000E0E78000A0B7C70040938707109C43C9
:10028000094793F7F7CF6318E40C37C7004013070B
:1002900007101CC354539307E4FF370600FAB33723
:1002A000F0007D16E607F18ED58F5CD3B7D70040FE
:1002B000BC4B13F707FE89476312F40A83A7C16694
:1002C000FD8BD98F37D700403CCBB7C70040938711
:1002D0000710D84B0946AD46137707FC6313C400DB
:1002E000B546558FD8CBD84FB70701FF938707C0C6
:1002F0007D8F8946B70779009387C7096316D400B5
:10030000B7077F009387070A5D8FB7C700409387C1
:100310000710D8CF37575500C4C713075755D8C350
:10032000A4D3B8CF9847370600FFB706800093865E
:10033000D632718F558F98C7F84FB2402244718FD3
:10034000558FF8CFB7C70040054723A0E720924458
:1003500002494101828093E7071005BF83A78166A8
:1003600085B739712AD63ACE3ECC06DE16DC1ADACB
:100370001ED82ED432D236D042CA46C872C676C4EF
:100380007AC27EC0B727004009472383E74003A70E
:100390000741114523A2E166971000E0E78000E1E4
:1003A000F250E2525253C2533255A255125682565F
:1003B0007247E2475248C248324EA24E124F824F15
:1003C000216173002030B71700409387870B130714
:1003D000004098C305671307078098C38280B7174A
:1003E00000409387870B9306004094C301000100EF
:1003F000010001000100010001000100010005678A
:100400001307078098C301000100010001000100EB
:100410000100010001000100B71700409387C70ADF
:1004200094C301000100010001000100010001006E
:100430000100010098C3010001000100010001005A
:1004400001000100010001008280010001000100A3
:10045000010001000100010001000100B717004088
:100460009387C70A1306004090C3010001000100F2
:10047000010001000100010001000100B716004069
:1004800005679386860B1307078098C20100010059
:10049000010001000100010001000100010090C203
:1004A0000100010001000100010001000100010044
:1004B000010098C3010001000100010001000100DA
:1004C00001000100010090C38280B7160040371779
:1004D000004085672146930500409386C60A1307AE
:1004E000870B93870780131885011358884163553C
:1004F000080A0CC306051375F50F01000100010081
:100500000100010001000100010001001CC3010005
:1005100001000100010001000100010001000100D3
:100520009CC27D1669F2010001000100010001007A
:1005300001000100010001001306004010C301008A
:1005400001000100010001000100010001000100A3
:100550001CC30100010001000100010001000100B5
:1005600001000100371700400325470A0100010080
:1005700001000100010001000100010001009CC216
:100580000100010001000100010001000100010063
:1005900001002981058982808CC2A9BFB71700405C
:1005A000B716004005672146930500409387C70AA8
:1005B0009386860B1307078013188501135888410B
:1005C0006353080A8CC206051375F50F010001007C
:1005D000010001000100010001000100010098C2BA
:1005E0000100010001000100010001000100010003
:1005F000010098C37D1669F20100010001000100AD
:10060000010001000100010001001306004090C339
:1006100001000100010001000100010001000100D2
:10062000010098C201000100010001000100010069
:10063000010001000100B716004083A6460A010030
:1006400001000100010001000100010001000100A2
:1006500098C3010001000100010001000100010038
:100660000100010082808CC3B9BFB715004093859B
:10067000850B930700400566B7180040B716004089
:100680002A889CC121470145130606809388480AA1
:100690009386C60A0100010001000100010001006B
:1006A0000100010001000100010001000100010042
:1006B000010001000100010090C1010001000100E2
:1006C0000100010001000100010001009317150065
:1006D00013F5F70F83A7080093F7074099C3136535
:1006E00015007D1790C21377F70F4DF79307004061
:1006F000630F080437170040232CF70A010001009C
:100700000100010001000100010001000100056776
:10071000B71700401307078023ACE70A0100010068
:1007200001000100010001000100010001009387A8
:10073000C70A98C301000100010001000100010087
:100740000100010001001307004098C382809CC291
:1007500075B7397106DE22DC26DA4AD84ED652D475
:1007600056D25AD05ECEA5391305400D053D13056E
:10077000A0032D35AD311305500D0D350145F5356F
:10078000AA840145DD352A840545C5354205220484
:10079000498C458C5D3993171401A28563D40704F5
:1007A000116513050574971000E0E780A0CBB737FB
:1007B0000A2E91669387A7809386067509466C007A
:1007C0001305A0063EC6971000E0E7808067F25050
:1007D0006254D2544259B259225A925A025BF24B95
:1007E00021618280116513054576971000E0E7804E
:1007F00060C79377047CC9EF1374F47F69D8C5365A
:100800001305400D613B13050002493BC93E13052A
:10081000500D69330145913D0145813D8144154AA3
:10082000130BF4FF916B994A014901453D3DAA899B
:100830000145631B490163199B001305E0029710F2
:1008400000E0E780E02005450D3589EC9315850033
:10085000B3E53501C205C1811385CB76971000E061
:10086000E78040C00509E31259FD8504E31E94FAB0
:100870002945971000E0E780A01D6254F250D25441
:100880004259B259225A925A025BF24B216175BE0B
:100890001304F003ADB75D715AD837FB00E062D4A2
:1008A000032C8B00A6C24EDE52DC56DAB71900408C
:1008B000856A374A0040CAC05ED666D26AD093873E
:1008C00081B086C6A2C46ECE0149938481B0938A5A
:1008D0004A9C9389C90A930C0040C14B310A114DBF
:1008E000B3065903E29603278B00158FE34D07FEED
:1008F00023A0990123A079012310AA0137470040C2
:10090000930630FD2308D7009376F9072308D70014
:100910009306C0FD2308D7009356790093F6F60F8F
:100920002308D70003570A0075FF37170040232C10
:10093000770B05098287938741B55DB74D34130561
:10094000400DA9391305A0039139513C1305500DF1
:10095000B1310145193B2AC60145013BAA8D054528
:100960002933B2474205A20DB3EDAD00B3EDFD0052
:10097000E93C93971D01E3C007FC93975D016385F4
:10098000070A938701B9A9BF993C1305400D393176
:1009900029452931130580021131453C893413055D
:1009A000400DED3E2945DD3E1305E002C53E713C9C
:1009B00037551200130505F8970000E0E780801D09
:1009C000A68739BF293C1305400DC93E1305800792
:1009D000F13631341305500DD136014579312A8471
:1009E000938721BBF5BD014549310145BD3901451D
:1009F000AD3901459D3901458D390545BD31B134CC
:100A0000938721BDF1BD0D801307F4FF894763FA79
:100A1000E7001165A28513054577971000E0E78090
:100A200060A4938741BF6DBD9387A1BF55BD9387D8
:040A3000C1B87DB517
:100A340099C6014863D7B600B685054819A0014890
:100A4400AE868D8EBA873383E600B308F340634ADB
:100A5400100593C7F6FFFD87FD8EBA96814733864E
:100A6400F540B388F6006342C00493C7F5FFFD87E1
:100A7400FD8DB6953385E540630408026372B702C1
:100A84009307A002A38FF5FE9386F5FF637AD70040
:100A9400238FF5FE9386E5FF6374D700A38EF5FEDE
:100AA40082808507A38FC7FE4DB73306F500034642
:100AB400060085072380C8005DB7AA862E8501CE6F
:100AC4008328060001475C426348A700238007008F
:100AD4004842330515418280032886000C427D1864
:100AE400C295E385B7FE938517004CC2B385E60033
:100AF40083C5050005072380B700F1B737F700E089
:100B04001C473E951C47898FE3CE07FE82808148AF
:100B14006356050081E63305A0408548058A93079E
:100B2400100619C2930710043A88254E138667FFEE
:100B3400B377B5022A8393F6F70F6364FE049386B2
:100B4400060393F6F60F2300D800930718003355D5
:100B5400B5026376B302638808009306D00223804B
:100B6400D700930728003385E74009462380070010
:100B740081463346C502FD1763C7C60082803E889E
:100B840045BFB2967DBFB305D70083C8070003C82D
:100B9400050085062380150123800701E9BF33671B
:100BA400B5009307F00763E5E70293D735009E0786
:100BB400AA9737250020130585873E959D8905470B
:100BC400834705003317B70009C6D98F2300F50002
:100BD40082801347F7FFF98FD5BFB7C700409387CB
:100BE40007109843B706FDFFFD16758F15C1B706AC
:100BF4000200558F98C337D700401C47B70633000F
:100C0400D58F1CC7B7C7004093870720A8CB828025
:100C1400C166558F98C3B7D600409C463707CEFFB0
:100C24007D17F98F9CC6F9BFB7D70040D84331660A
:100C3400130606F0799BD8C31567130707002A9794
:100C440003470700945F2207329701761306F60FD5
:100C5400F18E558F98DFD8438966938606F413671F
:100C64001700D8C337C700401307072074D383A6DF
:100C74000709139666006358060083A607091396AE
:100C84005600634406007453FDF2B7D7004003A531
:100C9400070983A747091375F503A98393F7F70792
:100CA400E2075D8D828037D700405C571375F507E6
:100CB400F59B5CD737C70040130707101C4393F715
:100CC40007F8C98F1CC382800313050001114ACAA7
:100CD4004EC822CE26CC52C656C45AC25EC0031990
:100CE40025009319230011058147634303009A8764
:100CF400C207C187139827001304F007B287372A65
:100D04000020854A414B3387C740634C2701724416
:100D1400E2445249C249324AA24A124B824B05610B
:100D2400828063D507004E958507F1BFE341F4FE49
:100D340013D7374093F477001E07930F8A87B39233
:100D44009A0093C2F2FFAE8E014EBA9FB38BDF01BD
:100D540063446E004295C9BF13172E002A97032FD0
:100D6400070081483387D8016364E40213771F00C6
:100D740005C3B3861B0183C3060013570F01058BFC
:100D840033179700B3F35300336777002380E600EB
:100D94008508135F1F00E39768FDC10E050E7DB73C
:100DA40003A741C09306000201453708008093154C
:100DB400E7019317A700AD8FB98F9315F701B3F728
:100DC4000701AD8F0583FD1606055D8F93F6F60FBB
:100DD400FD835D8DE9FE23A2E1C082808280411102
:100DE40006C69307300B1307A00563DAA700334543
:100DF400E5027515EF30005EB24041018280930731
:100E0400400B3385A7403345E5027D15E5B7B71799
:100E140000409387470B98431345F5FF698F98C3A8
:100E2400B71700409387070B9843698F98C3B71788
:100E340000409387070A9843798D88C382801D7187
:100E4400A2CC0944158CDAC03334800013FBF60FAE
:100E5400D2C40E04131A3B00D6C26AD86ED686CE0C
:100E6400A6CACAC8CEC65EDE62DC66DAAA8D2EC801
:100E7400328DB68A137AFA0F1304040783490D00DE
:100E8400050D638D0906424C93973900814B3ECA88
:100E9400D24711671306C77ADE97B29703C90700D2
:100EA40093071C00EE8CA1443ECC935779003EC6B8
:100EB4008149324633859901E2852ACECD3189476D
:100EC40072456395FA003246E245D139138619001A
:100ED4008549E36066FFFD14C2040609C1801379E5
:100EE400F90FD69CF9F0850BA147569CE392FBFAC7
:100EF40033874D01937DF70FE372B4F9F6406644EE
:100F0400D6444649B649264A964A064BF25B625C89
:100F1400D25C425DB25D25618280B70700E083A7A1
:100F240007348280397122DC370400E0130404346E
:100F34001C4006DE26DA4AD84ED652D456D25AD0AF
:100F44005ECE93F7070C1307000C638BE70002C611
:100F5400AE84D5E51C4089C793F7070891E3753F34
:100F64008144F25062544259B259225A925A025B55
:100F7400F24B2685D25421618280B3892441635384
:100F84003B019D49B7071000850718409376070871
:100F9400B1E611C3593778008D473A8663C73705E0
:100FA400B24733072A0123A0FA008147834507008B
:100FB4008507B306F6002380B6006385F9000507AC
:100FC400E39677FF9387490093E707F82306F10038
:100FD400B2474E991CC0E34299FA61B7FD17D5F7A1
:100FE4001C4093E7070C1CC0A5BFB306F900D296BA
:100FF40083C6060085070507A30FD7FE45B7B70AC2
:1010040000E02A8A01491D4B938A4A348D4BE1B78B
:10101400411122C406C62E843137B24022852244AF
:1010240041018280B71700409387C70A1307004025
:101034001DCA98C3414798C3B7470040374700408B
:10104400AA95990711076315B50237470040190798
:101054008347070093F70704E5DFB71700404147CC
:1010640023ACE70A8280B716004023ACE60AD9B75E
:1010740083C6070093F60604E5DE834605000505EE
:101084002300D700C9B701110546A307A100B28503
:101094001305F10006CE7937F240056182804111D3
:1010A40022C4130500023724002026C24AC006C603
:1010B40013048487C93F8144414913E504FB137534
:1010C400F50FD1370145C1374145753F22850146AA
:1010D40093050002813F930500023305B4000146E5
:1010E40091371305040401469305000285041D3F4E
:1010F400C20413050406014693050002C1801D378E
:1011040013040408E39B24FBB240224492440249A2
:1011140041018280B71700409387470B9843498F5A
:1011240098C3B71700409387070A9843598D88C31B
:101134008280970100209381E1C6172100201301CA
:1011440021EC1385C165971500209385E5F263773B
:10115400B500232005001105E36DB5FE1305000954
:1011640097F5FF1F9385C5E91706002013068683AC
:1011740063FAC5008322050023A0550011059105DB
:10118400E3EAC5FE17450000130505FA938501C07F
:1011940013868165638AC5008322050023A0550058
:1011A40011059105E3EAC5FE93070000FD42739023
:1011B40002BC89629382828873A0023097F2FFFF97
:1011C400938202E493E2320073905230B7F700E066
:1011D400154798C38967938727E37390173473007F
:1011E400203001A0AA8703C7070001E73385A74081
:1011F40082808507CDBF757122C5E6D206C726C396
:101204004AC1CEDED2DCD6DADAD8DED6E2D4EAD0EF
:10121400EECE3284B68C39E1856401499384E4AB23
:101224008149930A5002130A0003254BA94B8347B3
:101234000400130D1400A30FF10085E7BA402A44FB
:101244009A440A49665AD65A465BB65B265C965C53
:10125400065DF64D4E85F65949618280AA842E8931
:10126400C1B7638C57014A8685451305F101829401
:10127400668C6A84AA99E28C5DBF034714009307C5
:101284002400528DA30FE100631E47073E8481466C
:10129400814701A8B3877703034704000504854603
:1012A400B297130607FD9375F60FE375BBFE99C25B
:1012B400A30FE100E146BE8D63D3F600B68D93061D
:1012C400C00601466318D700034704000546050419
:1012D400A30FE1008346F101130740066383E6068A
:1012E4006365D702930780056380F60A9307300687
:1012F400638EF60AA1D64A8685451305F1018294C8
:10130400668C8DBF130D000251B713075007638A13
:10131400E602130780076389E60613073007E39C98
:10132400E6FC138C4C0083AC0C003EC666855D3D28
:10133400B247AA856359F0083818EE866A8666852E
:1013440025A0138C4C0005CA9386B6F8181093B6E2
:10135400160003A50C000146A945EFF04FFB381811
:10136400EE866A86AA850810EFF08FECAA854A8675
:101374002818829401B79307500718106394F60055
:101384008546C1BF8146F1B703A50C00138686FAD2
:101394001810854613361600C145EFF04FF7138C2D
:1013A4004C00AA853818EE866A8675BF83A70C00A0
:1013B400138C4C003818A30FF100EE866A8685451D
:1013C4001305F10155B74A86668565B7397132D47C
:1013D4002A8605652ED236D681455410130545015B
:1013E40006CE3AD83EDA42DC46DE36C62935F2402D
:1013F40021618280011106CE22CC2AC22AC42EC6C3
:1014040085C5B337A0004C00B307F0402A84FD8D96
:1014140005651305E5ABC53301C4224592471D8D0F
:10142400F24062440561828001448145D5B7397137
:1014340032D42E86B705008036D6FD15341006CE7C
:101444003AD83EDA42DC46DE36C66D37F2402161D8
:1014540082802A96AA876393C70082802380B7007C
:101464008507D5BF0566372500201306068081450C
:1014740013058587F9BF557166D3934CF7FFA2C551
:10148400A6C32A8462D586C7CAC14EDF52DD56DBA5
:101494005AD95ED76AD16ECFAE84B3FCDC00D9379B
:1014A4000317A401031C84013AC663538707832DE1
:1014B40004015C481566A69DB3B49D00BE94130652
:1014C40006E281466E85A685EF104003035D840025
:1014D4001566130606E22A9D81466E85A685EF10E1
:1014E4000040420D135D0D4193070002B347FD0216
:1014F400324708C84CC8BA97231DF4009377FD01FE
:1015040063560D00FD1793E707FE85072314F400C7
:1015140093F72C0091C78357A4018507231DF4007A
:1015240093FC4C0063840C068317A40163C08707F3
:10153400814701481CC8231D040023140400232AE6
:101544000401EFF0FF8593073002337CF502110CA0
:10155400231C8401031DA401634F8D0B1166854672
:1015640013068669930580026545D1381166854660
:101574001306C6679305C0030145EFF05F8C11663F
:1015840085461306866893058004A5A0E3140CFC25
:10159400116685461306066381451545EFF03F8ABB
:1015A4001166854613064664D1450145EFF03F892F
:1015B4001166854613068665930500020145EFF022
:1015C4001F8811668546130686669305C002014589
:1015D400EFF0FF86116685461306C66793059004EF
:1015E4000145EFF0DF85116685461306866893058D
:1015F40050050145EFF0BF842E44BE409E440E4981
:10160400FA596A5ADA5A4A5BBA5B2A5C9A5C0A5DEE
:10161400FA4D696169B40317840095473307F702EB
:101624009377F70163560700FD1793E707FE8507D5
:1016340013078016B387E70293060002B3C4D702E8
:10164400938CA405B3ECEC02EFF08FF59D47337552
:10165400F5026A9533458503EF20D06883A541C31D
:101664002A8CEF20905E6354A00A2685EFF02FF7B2
:10167400AA8966852E89EFF08FF603A6C1C083A6DA
:1016840001C1EF10106E03A641C183A681C1EF1002
:10169400E06003A6C1C183A601C2EF20E041EF20B0
:1016A400104D03A6C1C083A601C1AA84CA854E8574
:1016B400EF10306B03A641C183A681C1EF10005E19
:1016C40003A6C1C183A601C2EF20003FEF20304A28
:1016D400AA8526861385C10EEFF00FDF0316A40139
:1016E40091649385846E080899338946100893059C
:1016F40000050145EFF0AFF4031684019385846E71
:10170400080835338946100893054006DDB583A5DE
:1017140081C36285EF207053635AA0062685EFF0DB
:101724000FECAA8966852E89EFF06FEB03A641C200
:1017340083A681C2EF10F06203A641C183A681C1D2
:10174400EF10C05503A6C1C183A601C2EF20C03665
:10175400EF20F04103A641C283A681C2AA84CA85B0
:101764004E85EF10106003A641C183A681C1EF101E
:10177400E05203A6C1C183A601C2EF20E033EF20EB
:10178400103FAA852686138581E2B9B783A5C1C314
:101794006285EF20904B635AA0062685EFF02FE474
:1017A400AA8A66852E8AEFF08FE303A6C1C283A6B8
:1017B40001C3EF10105B03A641C183A681C1EF10E2
:1017C400E04D03A6C1C183A601C2EF20E02EEF20A5
:1017D400103A03A6C1C283A601C3AA84D285568542
:1017E400EF10305803A641C183A681C1EF10004B0E
:1017F40003A6C1C183A601C2EF20002CEF2030371D
:10180400AA852686138541C4C1BD5946B285DDBF6C
:10181400357122CD3A844AC94EC736891344F4FF40
:10182400956926CB52C556C35AC106CFAA843374D0
:1018340024010D39938909FF0549116BD14A114AD5
:101844009C4413060002639427011306E00383A655
:10185400490093054B6A0A85D93EB3055903894665
:101864000A86014505099109B11593F5C50FEFF0F5
:101874000FDDE31749FD137714009C4409C7FD17D6
:101884006343F00085471377440011C785070D476C
:101894006373F700BA879CC409881DC00947138481
:1018A40041676389E7040D47638DE70C054763844B
:1018B400E70223AC01668967938747811CC018C47B
:1018C4006A44FA40DA444A49BA492A4A9A4A0A4BCB
:1018D4000D616FF0CFFC9387C16723A0070023A29B
:1018E400070089679387E7BD1CC08967938727A88A
:1018F4005CC0F9B789679387474F1CC08967938792
:1019040007A25CC093040008B13E0144A28522856D
:1019140005460504EFF0AFA8E31A94FEEFF02FF8A4
:101924001305800AEFF02FF60145EFF0CFF513050C
:10193400500DEFF04FF51305000FEFF0CFF4130542
:10194400800CEFF04FF41305100AEFF0CFF31305FA
:10195400900DEFF04FF34545EFF0EFF237470040BD
:101964008D46A301D7008347070093F7F70E2300A2
:10197400F700BA870347170013671701A380E7002E
:1019840081B7614681451385C167E13485679387D3
:10199400A7471CC08567938707DE99BF81476313F8
:1019A400F60082803387F500834607003307F5008D
:1019B40085072300D700E5B7B70700E0938707340E
:1019C40098439306000C1377070C6307D70441115F
:1019D4003707100022C406C62A840507944313F669
:1019E400060805E299C2EFF04FD393178400C207AB
:1019F400C18393E75708370700E02320F7340545F0
:101A040001A87D1761FF984301451367070C98C32C
:101A1400B24022444101828001458280797122D4FE
:101A240026D24AD04ECE06D632C00348550083474C
:101A3400450003473500B6882E8983462500834533
:101A4400050032840346150011651305C56AEFF0DD
:101A5400FF978144916963CA84002254B25092541E
:101A64000259F2492945456181BFB307990083C5ED
:101A740007001385496D8504EFF05F95E9BF79BFD1
:101A8400B717004093870704930570052380B700B8
:101A9400130680FA2380C7000100010037170040B5
:101AA4008346A70093E606012305D70037270040A5
:101AB4008546A303D7808346578093E60601A30295
:101AC400D78023800700010001002380B700238012
:101AD400C70001000100371700409306A004230447
:101AE400D7002380070001000100B70700E023A20C
:101AF40007341307000823A0E7348280411106C687
:101B040022C497E0FF1FE780E05205CD9387416729
:101B1400C04305C897E0FF1FE7804050B717002077
:101B240003C68743A2872244B240AA86B715002081
:101B3400371500201106938525441305A54341015B
:101B44008287B2402244410182805D7122DE37C423
:101B540000401304042026DC3AD204443ED0584406
:101B64001C442ADA86C696C49AC29EC02ED832D69F
:101B740036D442CE46CC72CA76C87AC67EC4F98FB1
:101B840037C700401CC4130707105C5B01458588F8
:101B9400F19B93E717005CDBEFF02F843C4893F74D
:101BA400F78F3CC81C4093E787001CC091C0B9372D
:101BB4007254B640A64216438643E2545255C25567
:101BC4003256A256125782577248E248524EC24EBB
:101BD400324FA24F616173002030557186C7CAC16C
:101BE4004EDF3289AA8952DD56DB5ED766D36AD1CD
:101BF4002E8AA2C5A6C35AD962D5EFF0BF86B7F71D
:101C040000E0904791659385C56D0810EFF03F8221
:101C14008946101081450145EFF06FA28326C90063
:101C240003A6890091659385456E0810EFF03F8007
:101C340089461010E1450145EFF06FA0930B0002B7
:101C4400854C930AA005130D000803240900014BD9
:101C54002580B304804033848C400604338C9B403D
:101C64009305AB05054662852EC4EFE05FF3A245FC
:101C740033859B0005462AC6EFE07FF23245B385E3
:101C84006A4105462EC4EFE09FF1A24505466285F0
:101C9400EFE0FFF063498B02050B93171B008507E8
:101CA40033079040A2976315EB0063C58400014499
:101CB40063D984008504139714000507BA976386D3
:101CC40094013E8461BFA287E5B7938B0B0211098F
:101CD400E39DABF701449304000D2949EFF04F8CC9
:101CE400B3759502938585FD2EC4EFF06F8B337623
:101CF400950293771400A24513850145130686FDCA
:101D040099C3138541550504EFE01FFCE31824FD36
:101D1400EFF0EFB883A7C900B387474163C2070256
:101D240023A6F900BE402E449E440E49FA596A5A2D
:101D3400DA5A4A5BBA5B2A5C9A5C0A5D6961828002
:101D4400B7270600938707A823A6F900B7F5030071
:101D5400856789071946E105130521012318F10058
:101D640035399165FD5719469385C56E1305A10153
:101D7400231CF100253103C40166414637C5898E11
:101D8400B305C1000547A286130565ED97E0FF1F63
:101D9400E780402C37C5898E0546A285130565ED7D
:101DA40097E0FF1FE780803EB5BF0111060522CCF6
:101DB40026CA4AC84EC652C456C206CE5AC02E843B
:101DC400B289368A01499374F50F916A97E0FF1F2F
:101DD400E780E057268597E0FF1FE780006605C58A
:101DE4004A86D28513854A6FEFF04FDE0509E31F5B
:101DF40039FDF2406244D2444249B249224A924AED
:101E0400024B0561828003450400130B240097E014
:101E1400FF1FE7808062034514005A8497E0FF1F88
:101E2400E780A06197E0FF1FE7802059C1B7757173
:101E340006C722C526C34AC1CEDED2DCD6DADAD83A
:101E4400DED6E2D4E6D2EAD0EECE1D39056513051E
:101E54000580B7140040056B9384C40AEFF08FAB80
:101E6400130B0B8023A0640113050004EFF08FAA69
:101E7400130A000437190040232C490B4145EFF0A5
:101E84006FA9C14B930A00401305004023A07401BD
:101E9400EFF04FA823A0540197E0FF1FE780A0496B
:101EA400E1779309C101916693872711938606719F
:101EB4000546CE851305C007231EF100FD35B787FF
:101EC4000B0020109166AD07938606720946A28521
:101ED4001305C0073ED4D13D91669565938606737C
:101EE4003D469385C5FA1305A006C135916609469A
:101EF400938501C4938686731305C0077D3523A09B
:101F0400640123A054013725090023A044011305CB
:101F1400057CEFE0BFBE5285232C490BEFF08F9F69
:101F24005E85EFF02F9F5685EFF0CF9E13050008D6
:101F3400EFF04F9E13050002EFF0CF9D232C490BC9
:101F4400232C790B23A05401B74700409546A38165
:101F5400D70089462380D700130740062380E70073
:101F640003C70700372509001305057C136787009D
:101F74002380E700A380D70023A04401EFE01FB82B
:101F84009564232C490BEFF0EFCD9384C4FC130923
:101F9400F00F03C504006319254FEFF04F90EFF0E5
:101FA4006FCC1305500DEFF00F8E1305000EEFF0FC
:101FB4008F8D1305800CEFF00F8D1305100AEFF0D1
:101FC4008F8CB72700408946370700042380D74009
:101FD4007D1723A6E740130750FC2380E7402381A5
:101FE400D740B717004003D7A70137E900E01367CC
:101FF4000704239DE700B70700012320F910F32706
:10200400003093E78708739007301145EFF08F9005
:1020140039472380E166B7C7004093870720130739
:10202400C008D8CB93066007D4CFD8D3D8DBF8C385
:10203400F4C71307C006D8D7D8DF13078007D8C35F
:102044003707160023AA07043D07D8C7371700200F
:1020540013078743F8DF7D57B7D4004098C7930729
:1020640000489CD49C583707FAFF7D17F98F9CD8F9
:102074009C5837070070B7060002D98F9CD8DC5CE7
:10208400370700F97D17F98FD58FDCDCDC5C370767
:102094000040FD168E078D83D98FDCDCBC443707E6
:1020A400F9FF7D17F98FBCC4BC4837070700D14B33
:1020B40093F7F78F93E70730BCC8FC4C13058055A2
:1020C400D98FFCCCFC4C37077000D98FFCCC370778
:1020D4000200B7C70040938707101307C72098DF93
:1020E40013070005D8DFD85B758FB70600DA558F64
:1020F400D8DB98431377F7CF98C3A3097905EFE0AA
:10210400DFADDC407D777D1793F7F7EFDCC09C549F
:1021140013055002F98F9CD4DC5437070200BD9B91
:10212400DCD49C44D98F9CC4DC4093E70701DCC019
:10213400EFE09FAFAA84135B850113057002EFE003
:10214400BFAE2A8A135C85014945EFE0FFAD937762
:10215400F50F130680022A89935A850193F4F40F2C
:10216400137AFA0F814522859D8C338A4741EFF01B
:102174004FAEB386740381475E86B305F4008507CA
:1021840033D77603858E6207618713154700498F1D
:102194002380E500E393C7FE81465148130680027D
:1021A40033D70603B305F4008507D2966207618727
:1021B40013154700498F2380E500E393C7FEA286E9
:1021C400014737D5004029468C42930787028A0786
:1021D400AA978CC305079106E318C7FE33065B4133
:1021E4009546B306D602B38A8A4102CE02D002D201
:1021F400854799453385F900850733D7B602918E13
:102204006207618713184700336707012300E5005D
:10221400E392B7FE814619482D4633D70603B385AA
:10222400F9008507D6966207618713154700498F21
:102234002380E500E393C7FEF246B7D70040138737
:10224400070834C78256056674C7925634CBD84300
:102254009376F9033D9BD8C3D843799BD8C3985749
:10226400518F98D7D85713670701D8D7985F13773A
:1022740007FC558F98DF985FB7060081FD16758FB0
:10228400B706007F3379D9003367270198DFD84335
:10229400C176FD1613670710D8C3B84B758FB8CB3A
:1022A4009847B7062000558F98C7D847930640062D
:1022B40013670701D8C7D843518FD8C337C7004025
:1022C4001307072074D3745391C683A6C70993F6E2
:1022D4000610F5FAB7D7004013870708584F416630
:1022E4007D8B23A4E166B84B518FB8CBB84B03A6C2
:1022F4008166019B518FB8CB98473706E0FF7D1666
:10230400718F98C703A781667946FD4709076365FE
:10231400E60083A78166890723A6F166B7D7004044
:10232400B84FC176FD16758FB8CF9847C166014581
:10233400558F98C7D847B706EFFFFD1613670710E8
:10234400D8C7D8430149758FB7061000558FD8C335
:10235400EFE0BF88B7E700E003C7574137C5898E70
:10236400054613670708A38AE7403707200023A020
:10237400E710B945130565ED97E0FF1FE78000E11D
:1023840023AC0166896713874167938747811CC320
:1023940085471CC702C4938B4167214C930C0010E2
:1023A400130D00203EC6894D370BFF4FB7BAAAAABA
:1023B400228A8144938AAAAA2145EFE05FA51305E6
:1023C4000010EFE0DFA413050020EFE05FA4B247A4
:1023D4006380F40C6387B40D89E813050010EFE003
:1023E4007FD3B717004023AC870B83270B0063927E
:1023F400570D93972400DA97DC4383A6C165232005
:10240400FA008504B6979396A700B58F9396570163
:10241400B58F23AEF1649147110AE39FF4F8A254F7
:102424008567938787383257B3B497008567938756
:10243400873863F4E70093E42400425763F4E70029
:1024440093E44400B7F700E003AA8700930700036E
:10245400330A2A41335AFA0283A70B0081CB22475D
:10246400A6862286D2851385416782979307000347
:10247400330AFA02529937CA0040130A0A10832712
:10248400CA04B5E326C41DB78504EFE0DFBF11B667
:1024940013050020EFE01FC8B717004023AC970BCB
:1024A400A9B72145EFE01FC7B717004023ACA70B1E
:1024B4002DBF23A2016697E0FF1FE78060B4856704
:1024C400938707FA83A6416699E2FD17E5FF03A700
:1024D4004166B7E73400938787F27917B3D7E702E9
:1024E4009387970619BFEFF06FE123260A0441BFD3
:1024F400411106C697E0FF1FE780E030014863C83A
:10250400050E63DB0600B337C000B306D0401348A2
:10251400F8FF9D8E3306C040B288AA872E83F9E265
:1025240063F1C5124167636CE61A37070001E1469F
:102534006373E600C146335ED60017370000130705
:10254400A7AE729703470700130E00023697B3062F
:10255400EE40630CEE003393D5003357E50033634C
:102564006700B318D600B317D50013D60801335546
:10257400C30293960801C18213D707013373C302C0
:10258400B385A602420333676700637AB7004697B0
:102594001303F5FF63641701636CB7321A850D8F5B
:1025A400B355C702C207C1833377C702B386B602E5
:1025B4004207D98F63FBD700C6971387F5FF63E5FE
:1025C4001701F91563E3D700BA8542054D8D81459E
:1025D40063090800B337A000B305B0409D8D3305EF
:1025E400A040828063FED50081450145D5B7B3374D
:1025F400A000B305B0409D8D3305A0407D5811B7B0
:10260400C16763E6F61837070001E14763F3E600A4
:10261400C147B3D8F600173700001307E7A0469761
:1026240003470700130300023E97B308E340631512
:10263400E31863E1B6283335C50013351500814529
:1026440041BF45C64167637FE6249336061093B6BF
:1026540016008E063353D600173700001307C79CA5
:102664001A9703470700130300023697330FE3401A
:10267400631DE3083387C5401353060142064182B4
:1026840085453355670293D6070133776702330EC6
:10269400C5024207558F637AC70146979306F5FF33
:1026A400636417016363C72336853307C741B35691
:1026B4006702C207C183337767023386C6024207C3
:1026C400D98F63FBC700C6971387F6FF63E517012D
:1026D400F91663E3C700BA864205558DD5BD933616
:1026E400061093B616008E06B9B5014317370000DD
:1026F400130787931A9703470700814613030002C1
:102704003697330FE340E307E3F6B318E60133DE0D
:10271400E50013D30801B35E6E0213960801B39566
:10272400E50141823357E5004D8F93560701B317F6
:10273400E501337E6E02B305D603420EB3E6C6014D
:1027440063FBB600C6961385FEFF63EC161763FAA7
:10275400B616F91EC6968D8E33D56602420741839E
:10276400B3F66602330EA602C206558F637BC70119
:1027740046979306F5FF636217156370C7157915BD
:10278400469793950E01C98D3307C741DDBD93B7B5
:10279400061093B717008E07B3D8F600173700005A
:1027A40013078788469703470700130300023E97E1
:1027B400B308E340E30FE3E6B35EE600B396160125
:1027C400B3EEDE0033D3E50013DF0E01B357E303AA
:1027D400139E0E01B3951501135E0E013357E500E8
:1027E4004D8F93560701331616013373E303B30574
:1027F400FE024203B3E6660063FBB600F69613835B
:10280400F7FF63E2D60D63F0B60CF917F6968D8EDA
:1028140033D3E60342074183B3F6E603B3056E02FE
:10282400C206558F637BB70076979306F3FF636800
:10283400D7096376B70879137697C207931603010D
:10284400131E0601B3E76700C182135E0E0113D3A2
:1028540007014182B30EC3030D8F338EC603B386C3
:10286400C60293550E01F696AE963303C30263F483
:10287400D6014166329313D606011A966360C702E5
:102884006305C7003E858145A1B3420E135E0E0168
:10289400C20633151501F296E376D5FE1385F7FFCC
:1028A40081453DB3370700016377E6021353060100
:1028B400C1465DB38145054521BB3685D9B536830F
:1028C400ADBFAA8E49BD9A8799B779154697F1BBD2
:1028D40079154697E9B113538601E146B5BB014723
:1028E40063C5051263D90600B337C000B306D040F0
:1028F4009D8E3306C04032882A832E8ED5EE63FF28
:10290400C510C167636EF618B7070001E14663732B
:10291400F600C146B358D600972700009387C770C6
:10292400C69783C70700930E0002B697B388FE408C
:10293400638CFE00339E1501B357F50033EEC701D7
:10294400331816013313150113560801B356CE027A
:1029540093150801C18193570301337ECE02B386D8
:10296400B602420EB3E7C70163F7D700C29763E428
:10297400070163EFD730958FB3D6C7021315030150
:102984004181B3F7C702B386B602C2075D8D63788F
:10299400D5004295636505016373D5004295158D95
:1029A40033551501814501CBB337A000B305B040C1
:1029B4009D8D3305A0408280E3E7D5FEC16763EFB8
:1029C400F61637080001E14763F30601C147B3D89F
:1029D400F6001728000013082865469803480800E5
:1029E400130E00023E98B3080E41631E0E1763E4F3
:1029F400B600636AC5003303C54033356500B3864A
:102A0400D540B385A6401A8579BFB337A000B30576
:102A1400B0409D8D3305A0407D57E9B541CAC167DB
:102A2400637CF6249336061093B616008E06B358CC
:102A3400D600972700009387275FC69783C70700B0
:102A4400130E0002B697B308FE406311FE08B38666
:102A5400C540135E060142064182B3D5C6039357AF
:102A64000301B3F6C603B385C502C206D58F63F866
:102A7400B700C29763E5070163F3B700C2978D8F70
:102A8400B3D6C703420313530301B3F7C703B38693
:102A9400C602139507013365A300E372D5F0D5BDD3
:102AA4009336061093B616008E06ADB58148972767
:102AB400000093876757C69783C707008146130EA4
:102AC4000002B697B308FE40E303FEF8331816017C
:102AD400B3DEF500135E080133DFCE0313160801DD
:102AE400B3951501B356F5004182CD8E93D70601F7
:102AF40033131501B3FECE03B305CF02C20EB3E701
:102B0400D70163F8B700C29763E5070163F3B70021
:102B1400C2978D8FB3D5C703C206C182B3F7C7036B
:102B2400B385C502C207DD8E63F8B600C29663E5BD
:102B3400060163F3B600C2968D8E05B793B70610EF
:102B440093B717008E07B3D8F600172800001308B0
:102B5400A84D469803480800130E00023E98B30897
:102B64000E41E3060EE9B3961601335306013363AF
:102B7400D30033DE0501935E0301B356DE03131F56
:102B84000301135F0F01B3570501B3951501DD8DE3
:102B940093D705013316160133151501337EDE0371
:102BA400B30FDF02420EB3E7C70163FBF7019A9745
:102BB400138EF6FF63EC670C63FAF70DF9169A9718
:102BC400B387F741B3DFD703C205C181B3F7D70396
:102BD400330FFF03C207CD8F63FBE7019A979385F9
:102BE400FFFF63E3670A63F1E70BF91F9A97C206D5
:102BF400939E0F01B3E6F601131E060193DE0E0148
:102C0400135E0E01C182935F0601B382C603B385CE
:102C1400E741338ECE03B38EFE0393570E01969E87
:102C2400F697B386F60363F45700C16EF69693DE07
:102C34000701420E135E0E01C207F696F29763E592
:102C4400D5026381D502B307F5403335F500958D80
:102C5400898D3398050133D51701B3D51501336533
:102C6400A80091B3E371F5FE3386C740B3B7C7003C
:102C74009A979D8EB287C1BFB7070001637CF600A7
:102C840093580601C14675B3AE8F95B7F2860DBF52
:102C9400C297D5B193588601E14661BB3703100052
:102CA40001117D1313D74601B377B3003378D300F2
:102CB40056C293DA45018E0726CA52C493FAFA7FA4
:102CC400135AD50193D4F5010E089375F77F06CEF8
:102CD4001357D60122CC4AC84EC6FD82336AFA0085
:102CE400B288B387BA4033670701131E3500931EB9
:102CF40036006389D40E6355F00463920516B366F7
:102D0400D701638106309386F7FF638C066213064E
:102D1400F07F6386C73A13068003635FD6561304B5
:102D2400FEFF333E8E00330ACA4193168A003707EA
:102D34008000BE8A63DA0604130AF7FF7D54B9A241
:102D44006384071AB3875541639D0A3C3366CA01FD
:102D5400630006581386F7FF6307066A1305F07FBE
:102D6400638FA762130580036356C5741384FEFF43
:102D7400B3BE8E00330AD74113168A00370780008A
:102D84006341067CB684BE8A9307440033B487004B
:102D9400229A3E8493178A0063DD072093871A00E2
:102DA4001307F07F2688638AE720370780FF7D17A3
:102DB40093F7F77F3377EA001316D7010D802607C0
:102DC400418E3183F2406244D207D98F1317F80140
:102DD400D98FD2444249B249224A924A3285BE85A9
:102DE400056182802688635DF01C63920516B366D4
:102DF400D701638906209386F7FF638E064E130678
:102E0400F07F6389C75A13068003635CD662931606
:102E14008A003707800013041E00BE8AE3D606F634
:102E24003A8A0144850A9307F07F6387FA18B70743
:102E340080FFFD17B377FA001357140005889396A3
:102E4400F701418F13DA170033E4E6009377740037
:102E5400B1D39377F4001147E38EE7F235B79306C5
:102E6400F07F638EDA249306800363D2F61C130486
:102E7400FEFF333E8E00330ACA4113178A00B70798
:102E84008000E35307F0138AF7FF7D545285EF1057
:102E94000073930785FF13070002B306F740B35688
:102EA400D400331AFA00B3E646013314F40063C7BE
:102EB400572FB387574185071D8F3316E4003336E8
:102EC400C000335AF400336646013397E600336496
:102ED400C70033DAF600B3674401814AA5FB2688AC
:102EE400814701470146F9BD93871A0093F7E77FAD
:102EF40063920728B367CA013366D70163910A3E18
:102F0400638B075263050620B305DE413336BE00EA
:102F1400B307EA40918F13968700635F065C338E94
:102F2400CE41B3BECE01330747413307D741B36720
:102F3400EE007284B684C5D79317870063D7076001
:102F4400B70780FFFD177D8F36888547B5B5930693
:102F5400F07F6386DA169306800363C2F62CB70605
:102F64008000558FFD4663C8F640130600021D8E8F
:102F7400B316C7003396CE00B3DEFE003357F70016
:102F84003336C000B3E6D601B3E7C6003A9A3E9E94
:102F9400B337FE003E9A728493178A00E3C407E8AD
:102FA40093777400638C075A9377F4001147E39D79
:102FB400E7DCD6870D8091A8D6870147014619B56D
:102FC40063890710B387554163940A26B366CA011F
:102FD400638D064C9386F7FF638F06301306F07FEC
:102FE4006384C73E13068003635BD652931687003F
:102FF400370A8000BE8A0144E3C606E213841E0039
:103004003A8A59B3131435000D801316DA01930666
:10301400F07F418E13573A006398D708598E59CAE6
:1030240001489307F07F37070800014661BBB706E4
:103034008000558FFD4663C0F618930600029D8EEE
:103044003314D700B396DE00B3DEFE00B336D000EF
:103054003364D4013357F700558C330AEA40330400
:103064008E40333E8E00330ACA4193178A00E3D957
:1030740007F2260A135A9A00E31A0AE02285EF108F
:103084000054930785017D47E357F7E06115B316B4
:10309400A40063D65715370780FF7D17758F131665
:1030A400D701B387FA400D833207318393F7F77F53
:1030B400268809BB26889307F07F014721B31314A0
:1030C4003500135534001316DA01498E13573A00AC
:1030D400B1B793871A0093F6E77F639F0616B36729
:1030E400CA01639E0A3AB366D7016380074085C26A
:1030F400F29E33BECE015297330AC70193178A005A
:10310400768E63C00742B3E74E01E38A07DC135EA1
:103114003E001316DA013366C60113573A0081479D
:1031240061B71306F07F638CC526130680036347DB
:10313400F61637068000336ACA007D46634EF628C9
:10314400130600021D8E3314CA003316CE00335EFC
:10315400FE003336C0003364C401B357FA00518C07
:103164001D8F33848E40B3BE8E00330AD741AE8A9E
:10317400B684E5BD3304DE4133368E00B307EA403E
:10318400918F13968700634A06123366F4003E8AD1
:10319400E31406EE0148814701472DB1370A80FF49
:1031A4007D1A13777400B38AFA4033FA4601E31D9B
:1031B40007DED68701B5938607FE13060002B356D1
:1031C400D700638AC70013060004B307F640B31799
:1031D400F700B3EEFE003334D001558C49B5338487
:1031E400574193071400635DF72E0514130700027B
:1031F40033D48600638BE70013070004B307F7405A
:10320400B397F600B337F0005D8CE30A04CC9377F0
:103214007400814AE39F07C2014A0D80FDB313176E
:103224008A00B7078000635D071C3E8A0144DDBE47
:103234009306F07F638AD5189306800363D5F6203E
:1032440093178700370A8000AE8A0144E3CC07BC99
:1032540013841E003A8A0DBE9306F07FE38FD7D401
:10326400F29E33BECE015297729793DE1E00131462
:10327400F70193F67E003364D401135A170099C6FC
:103284009376F4001146BE8AE390C6B00D801316FF
:10329400DA01418E118309BDB68769BB1384FEFF31
:1032A400B3BE8E00330AD74113178A00B7078000D4
:1032B400634B071CB684AE8AC1BC338ECE41B3BE09
:1032C400CE01330747417284330AD741B6846DB3C4
:1032D4001396380013543600B6843A8A3DB3E9EBAA
:1032E40063090622139638009317D7010D82B6841A
:1032F4005D8E0D8325B3F29E33BECE015297729735
:103304009317870063D40718B70780FFFD1793D678
:103314001E007D8F9317F70193F57600D58F135612
:1033240017006382051E93F6F7009145638DB61C62
:103334003384B700B337F400338AC7000D8089475C
:10334400E9B1B30EDE41333EDE013307EA40330A0E
:10335400C74193178A00768463CD070093DE3E004D
:103364001316DA013366D60113573A0085472DBB8D
:10337400B684854AFDB9938607FE13060002B35648
:10338400D700638AC70013060004B307F640B317D7
:10339400F700B3EEFE00B337D001D58FCDBE9397BF
:1033A40038001316D7018D83B6845D8E0D83BDB1AD
:1033B400E31806C613143500935734001316DA01C4
:1033C4005D8E13573A0099B9939738001316D701B5
:1033D4008D835D8E0D8399B1138607FE130500025C
:1033E4003356CA00638AA70013050004B307F540E7
:1033F400B317FA00336EFE003334C001518C95B319
:1034040013041E0051B2338ECE41B3BECE01330736
:103414004741330AD74193178A007284E3CA07F4F9
:10342400135E3E001316DA01B6843366CE001357DA
:103434003A00854795B9E30F06D43A8A768EB68466
:10344400F9B1B68705B6B7068000336ADA00FD46DF
:1034540063C4F606130600021D8EB316CA003316A3
:10346400CE00335EFE003336C000B3E6C601B35768
:10347400FA00D18E3E97B69EB3B6DE00338AE600DC
:103484007684AE8A11BEAE8AB684F5BA1316D70115
:1034940093DE3E003366D6010D83854731B18DD767
:1034A400B36ED701E39E0EB631B70E061354360041
:1034B4003A8AA1BEB28751B1138607FE9306000271
:1034C4003356CA00638AD70093060004B387F640D4
:1034D400B317FA00336EFE00B336C001D18E61BF5C
:1034E400130700021D8F0146F9BAE38A069E76840B
:1034F4003A8A81470D8011BE33E6F500E30C06C815
:103504003E8A2E8E29B18D8376065D8E118389477E
:1035140061BE01489307F07F3707080065B0B6879E
:103524003DB7370780FF7D173377EA001316D701BD
:1035340093DE3E000D833366D601337767008547FB
:1035440051B0BE8AB6846FF02FFF1316D701135EF5
:103554003E003366CE000D838147B9B60D80D68711
:103564006DB4797193D7450122D426D252CC56CA70
:1035740062C41394C50006D64AD04ECE5AC85EC65D
:1035840066C26AC093F7F77FAA8A328CB684318008
:1035940013DAF501638207341307F07F6384E722AB
:1035A4000E041357D501418F37048000138B17C0C5
:1035B400931B3500598C814C014D93D744011397CB
:1035C400C40093F7F77F935AC700FD80638F0720E9
:1035D4001307F07F638EE72C938717C029473E9B20
:1035E400634C972513973A009357DC01D98FB34660
:1035F4009A00370780000946B3EAE70013183C0035
:10360400B6858147635196030546331696011377B1
:1036140006536314072293750624639B053C1376B3
:103624008608631A063A93970B0113160801C1839F
:10363400418293DB0B01135808013387C70233859A
:10364400CB0213530701B305F802AA952E93B38E48
:103654000B036374A300C165AE9E139E0A01420767
:10366400135E0E0193DA0A01418393150301B388B3
:10367400CB03BA95135303013387C703B387FA0205
:1036840013550701C6973E95B38B5B03637415010D
:10369400C167BE9B9317040193180701C18341803E
:1036A40093D8080113170501B30FF8024697418117
:1036B4003A935E95B308C402338FC702C69F13566C
:1036C4000F017E963308880263741601C168469818
:1036D400420F93180601135F0F014182469F4296E1
:1036E400B308C4033388C703B387FA02135E08011F
:1036F400C6973E9EB38A8A0263741E01C167BE9A4E
:103704009318080193D8080193170E013308D301C5
:10371400C6973E953337E800B308E8012A973A96EE
:1037240033B808013298B337F5003335A700C98F91
:103734003337E600135E0E013336C800F297518F1B
:10374400939B98003E97B3EBBB0056972607B33B79
:10375400700193D8780113547801B3EB1B01260848
:1037640093177700598CB3EB0B0163C907109307C8
:10377400FB3F635BF02013F77B0015C713F7FB00D7
:1037840011466302C70213874B00B33B77015E9473
:10379400BA8B1317740063580700370700FF7D17AF
:1037A40093070B40798C1307E07F6349F7241317C1
:1037B400D40193DB3B00260493F7F77F336777014B
:1037C400318049A8B36BA40063940B1A3E8B93D742
:1037D40044011397C40093F7F77F0144A14C094DAA
:1037E400935AC700FD80E39507DE33E88A01630836
:1037F400081263880A225685EF00705CAA871307B3
:1038040055FFF546998E138887FF33970A01B356FF
:10381400DC00B3EAE60033180C01B307FB40294788
:10382400138BD7C0634A97018947B3469A00E3DCF8
:1038340097DFB6858147C9BBD28589476304FD1AE2
:103844008D47630CFD128547AE866314FD048147E2
:1038540001440147D207B250C18F2254FE06D58FCE
:1038640092540259F249624AD24A424BB24B224C18
:10387400924C024D3A85BE854561828093D71B00E8
:1038840093FB1B00B3E77701931BF401B3EB7701C0
:10389400058093070B40050B6358F00E13F77B006C
:1038A400E30907EE13F7FB001146E31EC7ECD5B599
:1038B40033E88A01130BFB7F631B080893E72C0092
:1038C4002947E34BF7F6B3459A00AE86638E0C1C8A
:1038D400BE8C814A89470DBBB36BA400638C0B0279
:1038E400630304122285EF00904D2A87930655FF47
:1038F400F547930B87FF958F33147401B3D7FA0000
:103904005D8CB39B7A019307D0C0338BE740814C25
:10391400014D65B10144914C014B054D79B993ECCE
:103924001C00A947E3CA97F1B3459A000947AE863C
:10393400814A8547E34A97CD09476385E70A054DE0
:1039440085470144814BAE86E315FDF409B793EC3A
:103954003C002947634597150547331697011376AD
:103964008608B3469A0062888D47E30E06CAA5A06E
:10397400AA8B3E8BB14C0D4D89B181469307F07FE4
:10398400370408000147F9B50546DDEB130BEB419D
:10399400B3976B01B337F000331B6401B3E76701DE
:1039A40033D7CB005D8F937777003356C40081CF34
:1039B4009377F70091456388B700B307B70033B72F
:1039C400E7003A963E879317860063D1070E854732
:1039D4000144014741B53E8D8947A6855684C28B73
:1039E400E310FDE6AE869307F07F014401479DB5E1
:1039F40081469307F07F37040800A9BD9307F07F41
:103A04000144014781BDEF00903B93065501F14706
:103A140013070502E3DED7EC61153394AA00814B4A
:103A2400DDB56285EF00B03913075501F146930700
:103A34000502E3D8E6DC6115B31AAC000148F1BB1A
:103A44001D8E13078003E344C7E07D47E350C7F4AA
:103A54000557B307F74013070002B357F400630890
:103A6400E600130BEB43331B6401B3EB6B013337F9
:103A740070015D8F93777700014491CF1376F7003F
:103A8400914581476309B6003306B7003337E60032
:103A94009317D70132870D835D8F814765BB8146BC
:103AA4003704080001477DB3894779B5131496009C
:103AB40031809317D601C5B7B7071000FD17011160
:103AC400B3F8B70013D84601F58F8E081397370063
:103AD40026CA52C456C2135AD50193DA45019357E4
:103AE400D60193D4F5011303F07F06CE22CC4AC845
:103AF4004EC61378F87F336A1A01328ED98FFD824D
:103B0400B3FA6A00A685931E35009318360063083D
:103B1400681693C6160033870A416385D40C635232
:103B2400E05A630B0818638F6A389306800363C3F3
:103B3400E61AB7068000D58FFD4663C4E6469306B1
:103B44000002998E3394D700B396D800B3D8E80016
:103B5400B336D0003364140133D7E700558C330AED
:103B6400EA4033848E40B3BE8E00330ADA419317A1
:103B74008A0063C3072E93777400638D07329377AB
:103B8400F40011476388E7329307440033B4870095
:103B9400229A3E8493178A0063DE073093871A00C3
:103BA4001307F07F93F51400638FE726370780FF30
:103BB4007D1793F7F77F3377EA001316D7010D804B
:103BC4002607418E3183F2406244D207FE05D98F25
:103BD400CD8FD2444249B249224A924A3285BE85A7
:103BE400056182806358E05A631C082033E717019B
:103BF400630E07221387FAFF630C074663846A5C2B
:103C04009306800363C8E620FD4663C0E6521306AC
:103C14000002198EB396C7003396C800B3D8E800E3
:103C24003336C00033D7E700B3E61601B3E7C60066
:103C34003A9ABE9EB3B7FE003E9A768493178A00E2
:103C4400E3DB07F2850A9307F07F638CFA4CB7072E
:103C540080FFFD17B377FA00135714000588939675
:103C6400F701418F13DA170033E4E6009377740009
:103C740095D39377F4001147E398E7F021BF33E736
:103C8400170113861A8069C76388D40C630706106A
:103C9400638A0A2C13173E001396D7010D83B6844A
:103CA400598E8D835D8E6309062081459307F07FCD
:103CB40037070800014601BF33E7170163080716F9
:103CC4001387FAFF63080742638E6A1E9306800314
:103CD400E3D4E6E61384FEFFB3BE8E00330ADA4172
:103CE40013178A00B7078000E35007EA138AF7FF27
:103CF4007D545285EF00B00C130785FF9307000233
:103D0400B386E740B356D400331AEA00B3E646015B
:103D14003314E400634B5723330757410507998F46
:103D24003316F4003336C000335AE400B397F60078
:103D34003366460133E4C70033DAE600B36744016F
:103D4400814A8DF793F51400814701470146A5BDCB
:103D540093C61600E39CD4F2630E061663920A2CF3
:103D64004287B366DA01638B06529306F7FF6381D9
:103D740006301306F07F6305C72A130680036354D5
:103D8400D65A93968700370A8000BA8A0144E3CB57
:103D940006EA138418003E8AC5BB13871A001377FA
:103DA400E77F6311071833E617013367DA01639C71
:103DB4000A28630E0746630D0614B3851E4133B605
:103DC400BE003307FA40118F13168700635A065258
:103DD400B38ED841B3B8D801B3874741B3871741ED
:103DE40033E7FE007684B68431DF1397870063518E
:103DF4000756370780FF7D177D8FB685854775BBCE
:103E040063826A0C9306800363C6E600B7068000EB
:103E1400D58FDDBB13178A00B70780006350072ACC
:103E24003E8A014405B50147014671BB13143500B0
:103E34000D801316DA011307F07F418E93573A0071
:103E4400E382EAE6B20713D7C70093F5140093F7A9
:103E5400FA7F95BBB684854A260A135A9A00E31A58
:103E64000AE82285A92F13078501FD47E3D8E7E86F
:103E74006115B316A400634A571533045741130759
:103E8400140063D4E74605149307000233D4860074
:103E9400630AF70093070004998FB397F600B337CA
:103EA400F0005D8CE30004EA93777400814AE392A6
:103EB40007DC014A0D80B5BF93F514009307F07F2A
:103EC400014711B30E050D811316DA01498E93577C
:103ED4003A00C9BB13871A009376E77F63910610F3
:103EE4003367DA0163950A3AB3E6170163040740BE
:103EF40085C2F698B3BED801D297338AD7019317F7
:103F04008A00C68E63C30742B3E74801E38C07E225
:103F140093DE3E001316DA013366D60193573A0056
:103F2400814A0DB733841E4133B68E003307FA40FD
:103F3400118F13168700634D060E3366E4003A8A28
:103F440019FE814581470147BDB9370A80FF7D1AB3
:103F540093777400B38AEA4033FA4601E39107C2C7
:103F64000D80C1BD42873366DA017DCA1306F7FFAF
:103F7400630706289305F07FE30EB7D0930580030B
:103F840063DEC5321384F8FFB3B88800338A17415F
:103F940013168A00B70780006349063AB684BA8AC2
:103FA400E5B6930607FE13060002B3D6D700630AEC
:103FB400C700130600043307E640B397E700B3E8ED
:103FC400F80033341001558C69BEB70780FFFD1724
:103FD400F58F1396D701B38AEA408D83A5B593066E
:103FE400F07F6302D72AF698B3BED801D297F6972A
:103FF40093D818001394F70193F6780033641401EE
:1040040013DA1700638E06349376F4001146BA8AE5
:10401400E39CC6B61316DA010D80418E91831DB55B
:1040240013173E001396D7010D83598E8D839DB9C6
:10403400B38ED841B3B8D801B38747417684338A65
:104044001741B68429BD631D07166308062C131691
:104054003E001397D7010D82B684598E8D8399B192
:1040640013163E0013543600B684BA8A3E8AD1B37E
:10407400F698B3BED801D297F69713978700635684
:104084000722370780FF7D1793D61800F98F1397FF
:10409400F70193F57600558F13D61700638905262B
:1040A4009376F70091456384B6263304B70033371B
:1040B400E400330AC700894A0D80A5BB13841E009F
:1040C400E1B4E30C07CC33075841E38E0AE8130646
:1040D40080036350E6081384F8FFB3B88800338A7A
:1040E400174113178A00B707800063480718B6847E
:1040F400C28A59BCB3881E41B307FA40B3BE1E013D
:10410400338AD74193178A004684E3C607D493D8E9
:1041140038001316DA0133E6C80093573A00854A8B
:1041240015B3D6870147014679BC930607FE1306EB
:104134000002B3D6D700630AC7001306000433078E
:10414400E640B397E700B3E8F800B3371001D58F22
:10415400CDB437068000B684336ACA00FD4663CC0A
:10416400E60693060002998E3314DA00B396DE0055
:10417400B3DEEE00B336D0003364D4013357EA0023
:10418400558C998F33848840B3B88800338A17419B
:10419400C28AF1BAE30007D433075841E3830ABC67
:1041A4009306800363DBE60813978700370A8000D1
:1041B400C28A0144E34807A8138418003E8AE9B27E
:1041C400E31506AE931735008D831316DA015D8E61
:1041D40093573A00C1BC930607FE13060002B35678
:1041E400DA00630AC700130600043307E6403317F6
:1041F400EA00B3EEEE003334D001558C61B7B38ED0
:10420400D841B3874741B3B8D801338A17419317CC
:104214008A007684E3C007C493DE3E001316DA01F5
:10422400B6843366D60193573A00854A21B9E30A26
:1042340006D03E8AC68EB684E1B9B7068000336ADA
:10424400DA00FD4663CFE60613060002198EB316A4
:10425400CA003396CE00B3DEEE003336C000B3E6B8
:10426400D6013357EA00D18EBA97B698B3B6D800C0
:10427400338AF6004684C28AD1B2C28AB684138ACB
:10428400F7FF7D54BDB4BA87014601472DBAE3094F
:1042940007D8B3E81701E39A08A02DB713163E0018
:1042A40013543600BA8A3E8A69B61396D70193D856
:1042B4003800336616018D83854A69B6B684328721
:1042C40071BD130607FE930600023356CA00630A43
:1042D400D700930600043387E6403317EA00B3EEB1
:1042E400EE00B336D001D18E49B793070002998FFF
:1042F40001462DBCE38806A446843E8A0D8015BE83
:1043040033E6E500E30F06C23A8AAE8E11B10D839F
:104314007606598E9183894A35B681459307F07F95
:10432400370708004DB0368729BFB70780FFFD1750
:10433400B377FA001396D70193DE3800A60713D794
:10434400C7003366D6018547BDB8BA8AB68479BA40
:104354001396D70193DE3E003366D6018D83DDB418
:104364000D801316DA01418E9183BA8AE1BC93D78A
:104374004501B70610001387F6FF93F7F77F13067E
:10438400E03F6D8FFD81635BF6001306D0416359F6
:10439400F600370500807D152E95828001458280C8
:1043A400130630431D8E7D48558F635DC800930608
:1043B4003041B387F6403357F7003305E040E5F169
:1043C4003A8582809387D7BE3317F7003355C500EB
:1043D400498FE5B7011106CE22CC26CA4AC84EC67B
:1043E4000DCD1357F541B344A700998CAA872685B0
:1043F40013D4F701E9229307E041898F294793F702
:10440400F77F634DA7022D47098F33D7E4003207A6
:1044140055053183B394A40029A001448147014781
:104424008144D2077E04D98FF240C18F624442494D
:10443400B2492685BE85D2440561828055153397DD
:10444400A400320731838144E9BF935675013707CD
:104454008000AA877D1713D5750193F6F60F13060E
:10446400F00F3378F7001375F50F6D8FFD83FD8121
:104474006388C602630BC5008DEE11E921CB63107E
:104484000806139515007D15828021EB99E2E30A55
:1044940008FE6380B704B307F04013E51700828079
:1044A400631D0802E319D5FE0DEBE396B7FE014543
:1044B400828075D1E391B7FEE34FD5FC63CBA600B0
:1044C400E36B07FD01456366E8008280E31508FCA1
:1044D4008280139517007D15828079558280E39C34
:1044E400B7FAF9BF411106C622C426C215CD135727
:1044F400F5413344A700198CAA87228593D4F70188
:104504007D289307E009B386A7409307600963CA2F
:10451400D70221476302E50A61153314A400260477
:10452400258093F7F60F21A0814481470144DE07DB
:10453400B240C18F22441395F4015D8D9244410130
:104544008280130790096340D7049307B5FF33149F
:10455400F400B70700FCFD1713777400E18F31C72F
:104564003D8811476303E40491071397570013D45C
:104574003700635E07029307F0092604898F2580BC
:1045840093F7F70F6DB79307B5011547B317F40009
:10459400098FB337F0003354E4005D8CB70700FC97
:1045A400FD1713777400E18F45FF13D437002604F9
:1045B400258093F7F60FA5BF260425808DBFC1671C
:1045C4006376F5029337051093B717008E07130728
:1045D40000021D8F3355F500971700009387C7A479
:1045E400AA9703C507003305A7408280B7070001D7
:1045F4006370F5024147BA873355F50097170000F9
:10460400938787A2AA9703C507003305A740828032
:10461400E1473355F500971700009387E7A0AA9761
:1046240003C5070021473305A74082805061737397
:10463400207468652050756666657221000000006C
:104644002D5072657373204320746F20506F6B6517
:10465400000000002D47657420726964206F662095
:1046640068696D00206265666F72652068652070F8
:104674006F707321000000002D5072657373205217
:1046840020746F0020706C617920616761696E210C
:104694000000000047616D65204F766572210000BF
:1046A4002563257300000000253032783A25303226
:1046B400783A253032783A253032783A25303278D3
:1046C4003A253032783A2533642025643A000000D4
:1046D40025303278200000002530387800000000B2
:1046E4002533642025640000AABBCCDDEEFF000066
:1046F40025732043616E6E6F7420436F6E66696725
:1047040075726520402025640A0000004C534D3624
:10471400445333205245534554000000514D433611
:104724003330392052455345540000004C534D3624
:1047340044533300514D43363330390046756C6C65
:104744002053573A20253036780A00004C534D3612
:10475400445333204F766572666C6F770000000017
:104764002530367820000000253034782000000001
:10477400436F6E667573696E67207461673A2025AE
:10478400640A00004D656E75000000004578616D97
:10479400706C6500546573740000000050756666A3
:1047A4006572205061737300000000000000000077
:1047B4007E81A581BD99817E7EFFDBFFC3E7FF7EFD
:1047C4006CFEFEFE7C38100010387CFE7C38100035
:1047D400387C38FEFED6103810387CFEFE7C10384B
:1047E4000000183C3C180000FFFFE7C3C3E7FFFFCD
:1047F400003C664242663C00FFC399BDBD99C3FFBD
:104804000F070F7DCCCCCC783C6666663C187E18CE
:104814003F333F303070F0E07F637F636367E6C00F
:1048240018DB3CE7E73CDB1880E0F8FEF8E08000AA
:10483400020E3EFE3E0E0200183C7E18187E3C1806
:1048440066666666660066007FDBDB7B1B1B1B00FF
:104854003E613C66663C867C000000007E7E7E00F5
:10486400183C7E187E3C18FF183C7E181818180057
:10487400181818187E3C180000180CFE0C180000BC
:10488400003060FE603000000000C0C0C0FE0000C8
:10489400002466FF6624000000183C7EFFFF000031
:1048A40000FFFF7E3C180000000000000000000034
:1048B400183C3C181800180066662400000000002C
:1048C4006C6CFE6CFE6C6C00183E603C067C180040
:1048D40000C6CC183066C600386C3876DCCC76005E
:1048E40018183000000000000C18303030180C008C
:1048F40030180C0C0C18300000663CFF3C660000BD
:104904000018187E18180000000000000018183065
:104914000000007E000000000000000000181800E5
:10492400060C183060C08000386CC6D6C66C3800DF
:104934001838181818187E007CC6061C3066FE004D
:104944007CC6063C06C67C001C3C6CCCFE0C1E00DF
:10495400FEC0C0FC06C67C003860C0FCC6C67C0035
:10496400FEC60C18303030007CC6C67CC6C67C003F
:104974007CC6C67E060C78000018180000181800C3
:104984000018180000181830060C1830180C06000F
:1049940000007E00007E00006030180C18306000BB
:1049A4007CC60C18180018007CC6DEDEDEC0780059
:1049B400386CC6FEC6C6C600FC66667C6666FC002D
:1049C4003C66C0C0C0663C00F86C6666666CF80065
:1049D400FE6268786862FE00FE6268786860F000D3
:1049E4003C66C0C0CE663A00C6C6C6FEC6C6C60091
:1049F4003C18181818183C001E0C0C0CCCCC780071
:104A0400E6666C786C66E600F06060606266FE00E4
:104A1400C6EEFEFED6C6C600C6E6F6DECEC6C600A6
:104A24007CC6C6C6C6C67C00FC66667C6060F000B8
:104A34007CC6C6C6C6CE7C0EFC66667C6C66E6008A
:104A44003C6630180C663C007E7E5A1818183C00F0
:104A5400C6C6C6C6C6C67C00C6C6C6C6C66C3800B0
:104A6400C6C6C6D6D6FE6C00C6C66C386CC6C600B2
:104A74006666663C18183C00FEC68C183266FE005A
:104A84003C30303030303C00C06030180C0602003E
:104A94003C0C0C0C0C0C3C0010386CC600000000E4
:104AA40000000000000000FF30180C0000000000AF
:104AB4000000780C7CCC7600E0607C666666DC00E6
:104AC40000007CC6C0C67C001C0C7CCCCCCC760020
:104AD40000007CC6FEC07C003C6660F86060F000AC
:104AE400000076CCCC7C0CF8E0606C766666E60060
:104AF4001800381818183C00060006060666663CBE
:104B0400E060666C786CE6003818181818183C00D9
:104B14000000ECFED6D6D6000000DC6666666600B1
:104B240000007CC6C6C67C000000DC66667C60F0C3
:104B3400000076CCCC7C0C1E0000DC766060F000BB
:104B440000007EC07C06FC003030FC3030361C0097
:104B54000000CCCCCCCC76000000C6C6C66C3800B5
:104B64000000C6D6D6FE6C000000C66C386CC600C9
:104B74000000C6C6C67E06FC00007E4C18327E00CD
:104B84000E18187018180E0018181818181818008D
:104B94007018180E1818700076DC00000000000071
:104BA4000010386CC6C6FE007CC6C0C0C67C0C783B
:104BB400CC00CCCCCCCC76000C187CC6FEC07C00DF
:104BC4007C82780C7CCC7600C600780C7CCC760099
:104BD4003018780C7CCC76003030780C7CCC7600A5
:104BE40000007EC0C07E0C387C827CC6FEC07C0087
:104BF400C6007CC6FEC07C0030187CC6FEC07C00AB
:104C04006600381818183C007C82381818183C00C4
:104C14003018003818183C00C6386CC6FEC6C600EA
:104C2400386C7CC6FEC6C6001830FEC0F8C0FE0054
:104C340000007E187ED87E003E6CCCFECCCCCE002C
:104C44007C827CC6C6C67C00C6007CC6C6C67C0008
:104C540030187CC6C6C67C00788400CCCCCC7600E8
:104C64006030CCCCCCCC7600C600C6C6C67E06FC72
:104C7400C6386CC6C66C3800C600C6C6C6C67C003C
:104C840018187EC0C07E1818386C64F06066FC008A
:104C940066663C7E187E1818F8CCCCFAC6CFC6C718
:104CA4000E1B183C18D870001830780C7CCC760099
:104CB4000C18003818183C000C187CC6C6C67C00BA
:104CC4001830CCCCCCCC760076DC00DC6666660092
:104CD40076DC00E6F6DECE003C6C6C3E007E000026
:104CE400386C6C38007C00001800181830633E00E3
:104CF400000000FEC0C00000000000FE0606000028
:104D040063E66C7E3366CC0F63E66C7A366ADF0644
:104D1400180018183C3C1800003366CC66330000B9
:104D240000CC663366CC0000228822882288228840
:104D340055AA55AA55AA55AA77DD77DD77DD77DD23
:104D4400181818181818181818181818F8181818FF
:104D54001818F818F818181836363636F63636365F
:104D640000000000FE3636360000F818F81818184F
:104D74003636F606F636363636363636363636367F
:104D84000000FE06F63636363636F606FE0000001D
:104D940036363636FE0000001818F818F800000001
:104DA40000000000F8181818181818181F00000040
:104DB40018181818FF00000000000000FF18181849
:104DC400181818181F18181800000000FF00000019
:104DD40018181818FF18181818181F181F1818185A
:104DE4003636363637363636363637303F000000FC
:104DF40000003F30373636363636F700FF00000005
:104E04000000FF00F736363636363730373636365A
:104E14000000FF00FF0000003636F700F736363694
:104E24001818FF00FF00000036363636FF00000079
:104E34000000FF00FF18181800000000FF36363687
:104E4400363636363F00000018181F181F000000C1
:104E540000001F181F181818000000003F363636CF
:104E640036363636FF3636361818FF18FF18181837
:104E740018181818F8000000000000001F1818186F
:104E8400FFFFFFFFFFFFFFFF00000000FFFFFFFF2A
:104E9400F0F0F0F0F0F0F0F00F0F0F0F0F0F0F0F16
:104EA400FFFFFFFF00000000000076DCC8DC760096
:104EB40078CCCCD8CCC6CC00FEC6C0C0C0C0C00024
:104EC4000000FE6C6C6C6C00FEC6603060C6FE00B8
:104ED40000007ED8D8D870000000666666667CC084
:104EE4000076DC18181818007E183C66663C187E9C
:104EF400386CC6FEC66C3800386CC6C66C6CEE00E6
:104F04000E180C3E66663C0000007EDBDB7E000073
:104F1400060C7EDBDB7E60C01E30607E60301E00CF
:104F2400007CC6C6C6C6C60000FE00FE00FE000029
:104F340018187E1818007E0030180C1830007E00F7
:104F44000C1830180C007E000E1B1B1818181818AB
:104F54001818181818D8D8700018007E0018000007
:104F64000076DC0076DC0000386C6C380000000051
:104F740000000018180000000000001800000000E5
:104F84000F0C0C0CEC6C3C1C6C36363636000000F6
:104F9400780C18307C00000000003C3C3C3C0000D5
:104FA40000000000000000001244105A115D0A289D
:104FB40006600700080909AA0A010B600D00130026
:104FC4001510160013010000AE0010B0DC00816F54
:104FD40021A4A87FD300D5F0D91DDB3540AD80A036
:104FE40001D90681FEDBFEA87FAFFF0088470000E1
:104FF4009047000098470000A04700000102030406
:1050040005060708090A0C0D0E0F101112131415CA
:10501400161718191A1B1C1D1E1F202122232425B4
:1050240026000B2700010202030303030404040403
:105034000404040405050505050505050505050520
:105044000505050506060606060606060606060600
:1050540006060606060606060606060606060606EC
:1050640006060606070707070707070707070707D0
:1050740007070707070707070707070707070707BC
:1050840007070707070707070707070707070707AC
:10509400070707070707070707070707070707079C
:1050A4000707070708080808080808080808080880
:1050B400080808080808080808080808080808086C
:1050C400080808080808080808080808080808085C
:1050D400080808080808080808080808080808084C
:1050E400080808080808080808080808080808083C
:1050F400080808080808080808080808080808082C
:10510400080808080808080808080808080808081B
:10511400080808080808080808080808080808080B
:045124000808080867
:105128002FA37A74000000000000000000003D403A
:10513800000000000000414000000000000028407E
:105148000000000000003140000000000000144092
:105158006666663F6666263F9A99993E0B480A1925
:1051680004001E0000C000C0FF1FFF1F0000000059
:105178000000000000F80038FFFF00E00000000019
:105188000000000000FE0006FFFF0000030003000F
:105198000000000080FF8001FFFF7E000700040080
:1051A80000000000C0FF4000FFFF40001F00180083
:1051B80007000700E0FF2000FFFF20003F8020805D
:1051C8000F000800F0FF1000FFFF107E7FC0404076
:1051D8001F001200F8FF081CFFFF0840FFC08040B6
:1051E8001F001200F8FF0822FFFF0020FFE08020C8
:1051F8003F002100FEFF0E22FFFF0010FFF100110B
:105208003F002100FFFF1122FFFF0008FFFB0F8A6C
:105218001F001000FFFF211CFFFF00C0FFFF10440C
:105228001F001200FFFF4100FFFF0020FFFFE031D9
:105238000F000A00FEFF4200FFFF0010FFFF2609D3
:105248000F000900FCFF0400FFFF0088FFFFA1F02A
:1052580007000400FCFF0400FFFF0048FFFF602474
:1052680007000400FEFF4200FFFF0020FFFF10C8F8
:105278000F000800FFFF4100FFFF0010FFFF0A10AA
:105288000F000900FFFF2100FFFF0080FFFF0964F6
:105298001F001200FFFF1100FFFF0060FFFB088ADC
:1052A8001F001000FEFFCE07FFFF0000FFF11011E6
:1052B8003F002100F8FFE80FFFFF0080FFE0A1207A
:1052C8003F002200F8FFF81FFFFF7820FFC0A24030
:1052D8001F001200F0FFF03FFFFFFC407FC064405A
:1052E8001F001000E0FFE0FFFFFFFF813F803080DC
:1052F8000F000800C0FFC0FFFFFFFF071F001F00CF
:105308000700070080FF80FFFFFFFF7F0700040002
:105318000000000000FE00FEFFFFFFFF0300030087
:105328000000000000F800F8FFFFFFFF0000000089
:105338000000000000C000C0FF1FFF1F00000000A9
:105348000000000004002C00000000000000000025
:105358000000000000000000000000000000000045
:10536800000000000000000000800080FF1FFF1FF9
:10537800000000000000000000E00060FF7F006007
:105388000F000F000000000000F80018FFFF00C029
:105398000F0008000000000000FE0006FFFF0000EC
:1053A8000F0008000000000080FF8001FFFF0000E0
:1053B8001F001C0000000000C0FF4000FFFF0000AD
:1053C8003F00220000000000E0FF20E0FFFF000097
:1053D8007F00410000000000E0FF20FCFFFF00000C
:1053E800FF00800000000000F0FF101EFFFF00001B
:1053F800FF1E801E00000000F0FF1002FFFF00E00B
:10540800FF1F01111C001C00F8FF0838FFFF0018DF
:10541800FF1F01113E002200F8FF0844FFFF0000B3
:10542800FF0F010A7F004900FCFF0444FFFF00BC96
:10543800FF8700867F004800FCFF0444FFFF00430D
:10544800FF870084FF008400FCFF3C38FFFF80A03A
:10545800FFC70044FF008400FCFF4400FFFF4098A2
:10546800FFEF00287F004200FEFF8200FFFF20863A
:10547800FFFF00107F004900FFFF0101FFFF2081AF
:10548800FFFFE0C13F002800FFFF0901FFFF804048
:10549800FFFF18213F002400FFFF1501FFFF4028F0
:1054A800FFFF00C11F001300FFFF1501FFFF0026CB
:1054B800FFFF80901F001000FFFF0901FFFF802100
:1054C800FFFF40203F002300FFFF0101FFFF0040D6
:1054D800FFFF20403F002400FEFF8200FFFF008600
:1054E800FFFF00907F004900FCFFC403FFFF808896
:1054F800FFEF00287F004200FCFFFC07FFFF009140
:10550800FFC70044FF008400FCFFFC0FFFFF0042C0
:10551800FF870084FF008800FCFFFC1FFFFF003CA2
:10552800FF8300827F004800F8FFF83FFFFFF00389
:10553800FF0300027F004100F8FFF87FFFFFFC0730
:10554800FF0100013E002200F0FFF0FFFFFFFF1FF8
:10555800FF0100011C001C00F0FFF0FFFFFFFF7FB0
:10556800FF00800000000000E0FFE0FFFFFFFFDF1A
:10557800FF00830000000000E0FFE0FFFFFFFFBF27
:105588007F00670000000000C0FFC0FFFFFFFF7F33
:105598003F003F000000000080FF80FFFFFFFFF793
:1055A8001F001E000000000000FE00FEFFFFFFEFCE
:1055B800070006000000000000F800F8FFFFF71FD2
:1055C800030002000000000000E000A0FF7FF77F5A
:1055D800000000000000000000800000FF1FEF1F17
:1055E8000000000000000000000000001F000E0086
:1055F8000000000000000000000000000C00040093
:105608000000000000000000040036000000000058
:105618000000000000000000000000000000000082
:10562800800080000200020000000000000000006E
:10563800C001400107000500000000000000000054
:10564800E083208207000400000000000000000042
:10565800F8BF383E0F0008000000000000000000FE
:10566800FFFF17C40F0009000000000000C600C6B5
:10567800FFFF10041F0016000000000000FF0039A3
:10568800FFFF00003F0038000000000000FF000D91
:10569800FFFF00007F0050000000000000FF000333
:1056A800FFFF0000FF00C8000000000000FF00012D
:1056B800FFFF0800FF0184010000000080FF800058
:1056C800FFFF1400FF03800200000000C0FF40003D
:1056D800FFFF2400FF07000500000000F8FF380066
:1056E800FFFF4200FF0F000900000000FEFF160048
:1056F800FFFF0200FF1F001000000000FFFF09006D
:10570800FFFF0200FF3F002003000300FEFF0A0026
:10571800FFFF0000FFBF00A007000400FCFF04001B
:10572800FFFF0000FFFF004087038403FCFF040421
:10573800FFFF8000FFFF0040C3074204FEFF02088E
:10574800FFFF4000FFFF0280E30F2209FEFF021067
:10575800FFFF2000FFFF0580E10F2009FEFF8221E7
:10576800FFFF1006FFFF0100F11F9110FEFF0E3E24
:10577800FFFFF081FFFFF001FF1F8F10FFFF3300D5
:10578800FFFF0080FFFF1CC2FF0F4408FFFFC3009C
:10579800FFFF0000FFFF0424FF0F2C09FFFF03E0B9
:1057A800FFFF3F00FFFFC204FF071A05FFFF0510B8
:1057B800FFFF4000FFFF3104FF079204FFFF0508C9
:1057C800FFFF8000FFFF0904FF037102FFFF0104D0
:1057D800FFFF0001FFFF0402FF031002FFFF01C4E7
:1057E800FFFF0F01FFFF4201FF077004FFFF018465
:1057F800FFFF1401FFFF3001FF078804FFFF01844A
:10580800FFFF0401FFFF0C01FF0F3809FEFF82872D
:10581800FFFF0407FFFF00C2FF0F4708FEFFE20F6C
:10582800FFFF830FFFFF30E4FF1F8F10FEFFFE1FF7
:10583800FFFFC03FFFFF44F4F11F1111FEFFFEFF01
:10584800FFFFFFFFFFFF88F4E00F2009FCFFFCFFCC
:10585800FFFFFFFFFF7F177AE00F2008FCFFFCFF28
:10586800FFFFFFFFFF7FEF7DC0074004F8FFF8FF51
:10587800FFFFFFFFFF3F1F3E80038003F8FFF8FF95
:10588800FFFFFFFFFF3FFF3F00000000F0FFF0FFBA
:10589800FFFFFFFFFF1FFF1F00000000E0FFE0FF0A
:1058A800FFFFFFFFFF0FFF0F00000000C0FF40FFDA
:1058B800FFFFFFFFFF07FF0700000000C0FF80FF9A
:1058C800FFFFFFFFFF07FF0300000000C0FF80F796
:1058D800FFFFFFFFFF07FF0300000000C0FF80FB82
:1058E800FFFFFFFFFF07EF0300000000C0FF80FC81
:1058F800FFFFFFFFFF071F0300000000C0F000F0DC
:10590800FFFFFFFF1F071F000000000000C000C0CE
:10591800FFFFFFFF07000700000000000000000075
:10592800FFFFFFFB01000100000000000000000075
:10593800F83FD83B00000000000000000000000015
:10594800C00380010000000000000000000000000B
:1059580080030001000000000000000000000000BB
:10596800000100000000000000000000020020000C
:1059780000F800F83F003F0000FE000EFF00E000C6
:1059880080FF8003FF038003C0FFC000FF070006FD
:10599800E0FF6000FF0F080CF0FF3000FF1F1C182D
:1059A800F8FF1800FF3F3E30F8FF0800FF3F7F2058
:1059B800FCFF0C00FF7FFE60FCFF0400FF7FFC4142
:1059C800FEFF0600FFFFF8C3FEFF0200FFFFF0879F
:1059D800FEFF0200FFFFE083FEFF0200FFFFC08121
:1059E800FEFF0200FFFF8080FEFF0200FFFF008035
:1059F800FEFF0200FFFF0080FEFF0200FFFF0080A5
:105A0800FEFF0200FFFF0080FEFF0200FFFF008094
:105A1800FEFF0600FFFF00C0FCFF0400FF7F004000
:105A2800FCFF0C00FF7F0060F8FF0800FF3F00202C
:105A3800F8FF1800FF3F0030F0FF3000FF1F00188C
:105A4800E0FF6000FF0F000CC0FFC000FF0700066A
:105A580080FF8003FF03800300FE000EFF00E000CC
:105A680000F800F83F003F000000000000000000C0
:105A78000200200000FC00FC1F001F0000FF0007C0
:105A88007F007000C0FFC001FF01C001E0FF60009F
:105A9800FF030003F0FF3010FF070006F8FF183877
:105AA800FF0F000CFCFF0C7CFF1F0018FCFF04FE1E
:105AB800FF1F0010FEFF067FFF3F0030FEFF823F02
:105AC800FF3F0020FFFFC31FFF7F0060FFFFE10FC4
