:100000006F10801200000000D8110000D81100000D
:10001000A9BDF9F3D81100000000000000000000A5
:10002000D8110000D81100000000000000000000FE
:10003000D811000000000000D811000000000000EE
:10004000D8110000D8110000D8110000D81100000C
:10005000D8110000D0190000D811000000000000E5
:10006000D2020020D8110000D8110000D8110000E1
:10007000D8110000D8110000D8110000D8110000DC
:10008000D8110000D8110000D8110000D8110000CC
:10009000B727004009472380E740130750FC23801F
:1000A000E7401145171300E0670023DFB717002072
:1000B00083C7573F371700201307873FBA97038539
:1000C00007008280B717002083C7573F37170020EB
:1000D0001307973FBA9703C5070011810589134598
:1000E00015008280011126CAB7C400409384041011
:1000F000DC5806CE22CCF19B93E717004AC84EC6C7
:1001000052C4AA89DCD836852E8A3A84328997105F
:1001100000E0E780C0C213058025971000E0E7806B
:1001200040B5B757550023A6340193875755DCC017
:1001300023A03407BCCC9C44B70600FF37078000DF
:100140001307D732F58FD98F9CC4FC4CF58FD98F0C
:10015000FCCCB7C700409387072023AC47078567CF
:100160009387A7BB37D70040345713967600634474
:100170000600FD17F5FBB7C7004009479387071036
:100180006318E40898431377F7CFB7C70040938705
:10019000071098C3D8537914B70600FAFD16333404
:1001A0008000758F6604598CC0D337C40040130497
:1001B000042018488176FD16758F18C8370702008D
:1001C00018C42609232224079843B7060001558F37
:1001D00098C3D85B719BD8DB89471CC07C50FDFF5E
:1001E0000145971000E0E780C0A81C408D8B89CBAB
:1001F0003C4893F7F78F3CC81C4093E787001CC02E
:10020000F2406244D2444249B249224A05618280A6
:1002100098431377F7CF1367071085BF411126C2A4
:10022000AA84014522C44AC006C62E89328497108A
:1002300000E0E78000A4B7C70040938707209843F9
:100240000D8B09CBB84B1377F78FB8CB9843136757
:10025000870098C3B7C700409387072023A20706EB
:100260004A85971000E0E78080AD13058015971050
:1002700000E0E78000A0B7C70040938707109C43C9
:10028000094793F7F7CF6318E40C37C7004013070B
:1002900007101CC354539307E4FF370600FAB33723
:1002A000F0007D16E607F18ED58F5CD3B7D70040FE
:1002B000BC4B13F707FE89476312F40A83A78163D7
:1002C000FD8BD98F37D700403CCBB7C70040938711
:1002D0000710D84B0946AD46137707FC6313C400DB
:1002E000B546558FD8CBD84FB70701FF938707C0C6
:1002F0007D8F8946B70779009387C7096316D400B5
:10030000B7077F009387070A5D8FB7C700409387C1
:100310000710D8CF37575500C4C713075755D8C350
:10032000A4D3B8CF9847370600FFB706800093865E
:10033000D632718F558F98C7F84FB2402244718FD3
:10034000558FF8CFB7C70040054723A0E720924458
:1003500002494101828093E7071005BF83A74163EB
:1003600085B739712AD63ACE3ECC06DE16DC1ADACB
:100370001ED82ED432D236D042CA46C872C676C4EF
:100380007AC27EC0B727004009472383E74003A70E
:100390000741114523A8E162971000E0E78020E0C3
:1003A000F250E2525253C2533255A255125682565F
:1003B0007247E2475248C248324EA24E124F824F15
:1003C000216173002030B71700409387870B130714
:1003D000004098C305671307078098C38280B7174A
:1003E00000409387870B9306004094C301000100EF
:1003F000010001000100010001000100010005678A
:100400001307078098C301000100010001000100EB
:100410000100010001000100B71700409387C70ADF
:1004200094C301000100010001000100010001006E
:100430000100010098C3010001000100010001005A
:1004400001000100010001008280010001000100A3
:10045000010001000100010001000100B717004088
:100460009387C70A1306004090C3010001000100F2
:10047000010001000100010001000100B716004069
:1004800005679386860B1307078098C20100010059
:10049000010001000100010001000100010090C203
:1004A0000100010001000100010001000100010044
:1004B000010098C3010001000100010001000100DA
:1004C00001000100010090C38280B7160040371779
:1004D000004085672146930500409386C60A1307AE
:1004E000870B93870780131885011358884163553C
:1004F000080A0CC306051375F50F01000100010081
:100500000100010001000100010001001CC3010005
:1005100001000100010001000100010001000100D3
:100520009CC27D1669F2010001000100010001007A
:1005300001000100010001001306004010C301008A
:1005400001000100010001000100010001000100A3
:100550001CC30100010001000100010001000100B5
:1005600001000100371700400325470A0100010080
:1005700001000100010001000100010001009CC216
:100580000100010001000100010001000100010063
:1005900001002981058982808CC2A9BFB71700405C
:1005A000B716004005672146930500409387C70AA8
:1005B0009386860B1307078013188501135888410B
:1005C0006353080A8CC206051375F50F010001007C
:1005D000010001000100010001000100010098C2BA
:1005E0000100010001000100010001000100010003
:1005F000010098C37D1669F20100010001000100AD
:10060000010001000100010001001306004090C339
:1006100001000100010001000100010001000100D2
:10062000010098C201000100010001000100010069
:10063000010001000100B716004083A6460A010030
:1006400001000100010001000100010001000100A2
:1006500098C3010001000100010001000100010038
:100660000100010082808CC3B9BFB715004093859B
:10067000850B930700400566B7180040B716004089
:100680002A889CC121470145130606809388480AA1
:100690009386C60A0100010001000100010001006B
:1006A0000100010001000100010001000100010042
:1006B000010001000100010090C1010001000100E2
:1006C0000100010001000100010001009317150065
:1006D00013F5F70F83A7080093F7074099C3136535
:1006E00015007D1790C21377F70F4DF79307004061
:1006F000630F080437170040232CF70A010001009C
:100700000100010001000100010001000100056776
:10071000B71700401307078023ACE70A0100010068
:1007200001000100010001000100010001009387A8
:10073000C70A98C301000100010001000100010087
:100740000100010001001307004098C382809CC291
:1007500075B7397106DE22DC26DA4AD84ED652D475
:1007600056D25AD05ECEA5391305400D053D13056E
:10077000A0032D35AD311305500D0D350145F5356F
:10078000AA840145DD352A840545C5354205220484
:10079000498C458C5D3993171401A28563D40704F5
:1007A000096513050549971000E0E780C0CAB7370F
:1007B0000A2E89669387A7809386064A09466C00AD
:1007C0001305A0063EC6971000E0E780804FF25068
:1007D0006254D2544259B259225A925A025BF24B95
:1007E0002161828009651305454B971000E0E78081
:1007F00080C69377047CC9EF1374F47F69D8C5363B
:100800001305400D613B13050002493BC93E13052A
:10081000500D69330145913D0145813D8144154AA3
:10082000130BF4FF896B994A014901453D3DAA89A3
:100830000145631B490163199B001305E0029710F2
:1008400000E0E780400905450D3589EC93158500EA
:10085000B3E53501C205C1811385CB4B971000E08C
:10086000E78060BF0509E31259FD8504E31E94FA91
:100870002945971000E0E78000066254F250D254F8
:100880004259B259225A925A025BF24B216175BE0B
:100890001304F003ADB75D715AD837FB00E062D4A2
:1008A000032C8B00A6C24EDE52DC56DAB71900408C
:1008B000856A374A0040CAC05ED666D26AD093873E
:1008C000C1B086C6A2C46ECE01499384C1B0938ADA
:1008D0004A9C9389C90A930C0040C14B310A114DBF
:1008E000B3065903E29603278B00158FE34D07FEED
:1008F00023A0990123A079012310AA0137470040C2
:10090000930630FD2308D7009376F9072308D70014
:100910009306C0FD2308D7009356790093F6F60F8F
:100920002308D70003570A0075FF37170040232C10
:10093000770B05098287938781B55DB74D34130521
:10094000400DA9391305A0039139513C1305500DF1
:10095000B1310145193B2AC60145013BAA8D054528
:100960002933B2474205A20DB3EDAD00B3EDFD0052
:10097000E93C93971D01E3C007FC93975D016385F4
:10098000070A938741B9A9BF993C1305400D393136
:1009900029452931130580021131453C893413055D
:1009A000400DED3E2945DD3E1305E002C53E713C9C
:1009B00037551200130505F8970000E0E780801D09
:1009C000A68739BF293C1305400DC93E1305800792
:1009D000F13631341305500DD136014579312A8471
:1009E000938761BBF5BD014549310145BD390145DD
:1009F000AD3901459D3901458D390545BD31B134CC
:100A0000938761BDF1BD0D801307F4FF894763FA39
:100A1000E7000965A2851305454C971000E0E780C3
:100A200080A3938781BF6DBD9387E1BF55BD938739
:040A300001B97DB5D6
:100A340099C6014863D7B600B685054819A0014890
:100A4400AE868D8EBA873383E600B308F340634ADB
:100A5400100593C7F6FFFD87FD8EBA96814733864E
:100A6400F540B388F6006342C00493C7F5FFFD87E1
:100A7400FD8DB6953385E540630408026372B702C1
:100A84009307A002A38FF5FE9386F5FF637AD70040
:100A9400238FF5FE9386E5FF6374D700A38EF5FEDE
:100AA40082808507A38FC7FE4DB73306F500034642
:100AB400060085072380C8005DB7AA862E8501CE6F
:100AC4008328060001475C426348A700238007008F
:100AD4004842330515418280032886000C427D1864
:100AE400C295E385B7FE938517004CC2B385E60033
:100AF40083C5050005072380B700F1B737F700E089
:100B04001C473E951C47898FE3CE07FE82808148AF
:100B14006356050081E63305A0408548058A93079E
:100B2400100619C2930710043A88254E138667FFEE
:100B3400B377B5022A8393F6F70F6364FE049386B2
:100B4400060393F6F60F2300D800930718003355D5
:100B5400B5026376B302638808009306D00223804B
:100B6400D700930728003385E74009462380070010
:100B740081463346C502FD1763C7C60082803E889E
:100B840045BFB2967DBFB305D70083C8070003C82D
:100B9400050085062380150123800701E9BF33671B
:100BA400B5009307F00763E5E70293D735009E0786
:100BB400AA9737250020130545833E959D8905474F
:100BC400834705003317B70009C6D98F2300F50002
:100BD40082801347F7FFF98FD5BFB7C700409387CB
:100BE40007109843B706FDFFFD16758F15C1B706AC
:100BF4000200558F98C337D700401C47B70633000F
:100C0400D58F1CC7B7C7004093870720A8CB828025
:100C1400C166558F98C3B7D600409C463707CEFFB0
:100C24007D17F98F9CC6F9BFB7D70040D84331660A
:100C3400130606F0799BD8C30D67130707D52A97C7
:100C440003470700945F2207329701761306F60FD5
:100C5400F18E558F98DFD8438966938606F413671F
:100C64001700D8C337C700401307072074D383A6DF
:100C74000709139666006358060083A607091396AE
:100C84005600634406007453FDF2B7D7004003A531
:100C9400070983A747091375F503A98393F7F70792
:100CA400E2075D8D828037D700405C571375F507E6
:100CB400F59B5CD737C70040130707101C4393F715
:100CC40007F8C98F1CC382800313050001114ACAA7
:100CD4004EC822CE26CC52C656C45AC25EC0031990
:100CE40025009319230011058147634303009A8764
:100CF400C207C187139827001304F007B287372A65
:100D04000020854A414B3387C740634C2701724416
:100D1400E2445249C249324AA24A124B824B05610B
:100D2400828063D507004E958507F1BFE341F4FE49
:100D340013D7374093F477001E07930F4A83B39277
:100D44009A0093C2F2FFAE8E014EBA9FB38BDF01BD
:100D540063446E004295C9BF13172E002A97032FD0
:100D6400070081483387D8016364E40213771F00C6
:100D740005C3B3861B0183C3060013570F01058BFC
:100D840033179700B3F35300336777002380E600EB
:100D94008508135F1F00E39768FDC10E050E7DB73C
:100DA40003A781C09306000201453708008093150C
:100DB400E7019317A700AD8FB98F9315F701B3F728
:100DC4000701AD8F0583FD1606055D8F93F6F60FBB
:100DD400FD835D8DE9FE23A4E1C0828082809307B8
:100DE400300B1307A00563D6A7003345E50275153C
:100DF40082809307400B3385A7403345E5027D1578
:100E04008280B71700409387470B98431345F5FF3B
:100E1400698F98C3B71700409387070B9843698F6E
:100E240098C3B71700409387070A9843798D88C3FE
:100E340082801D71A2CC0944158C939736003334FB
:100E440080003EC60E0493F7F60FD2C46AD86ED65D
:100E540086CEA6CACAC8CEC6D6C2DAC05EDE62DCF8
:100E640066DAAA8D2EC8328D368A130404073ECC66
:100E740083490D00050D638C0906C247814A8E091A
:100E8400138B1700894C0967B38759011306C74FA1
:100E9400B29703C907009307FBFFEE8BA1443ECA38
:100EA400935779003EC4014C2246D24533057C0158
:100EB4002ACEF531724563159A012246DA85C53189
:100EC400E24713061C00054CE360F6FEFD14C20461
:100ED4000609C1801379F90FD29BF9F0850AA1475D
:100EE400529BE392FAFAB247BE9DE373B4F9F6401B
:100EF4006644D6444649B649264A964A064BF25BAE
:100F0400625CD25C425DB25D25618280B70700E01D
:100F140083A707348280397122DC370400E013048C
:100F240004341C4006DE26DA4AD84ED652D456D2B1
:100F34005AD05ECE93F7070C1307000C638BE700BF
:100F440002C6AE84D5E51C4089C793F7070891E330
:100F5400753F8144F25062544259B259225A925A0E
:100F6400025BF24B2685D25421618280B3892441ED
:100F740063533B019D49B7071000850718409376DA
:100F84000708B1E611C3593778008D473A8663C71D
:100F94003705B24733072A0123A0FA008147834566
:100FA40007008507B306F6002380B6006385F900C1
:100FB4000507E39677FF9387490093E707F823062D
:100FC400F100B2474E991CC0E34299FA61B7FD178C
:100FD400D5F71C4093E7070C1CC0A5BFB306F90066
:100FE400D29683C6060085070507A30FD7FE45B72B
:100FF400B70A00E02A8A01491D4B938A4A348D4B73
:10100400E1B7411122C406C62E843137B24022858D
:10101400224441018280B71700409387C70A13070F
:1010240000401DCA98C3414798C3B747004037479B
:101034000040AA95990711076315B5023747004088
:1010440019078347070093F70704E5DFB717004044
:10105400414723ACE70A8280B716004023ACE60A76
:10106400D9B783C6070093F60604E5DE8346050078
:1010740005052300D700C9B701110546A307A10040
:10108400B2851305F10006CE7937F24005618280FE
:10109400411122C4130500023724002026C24AC08D
:1010A40006C613044483C93F8144414913E504FB44
:1010B4001375F50FD1370145C1374145753F228579
:1010C400014693050002813F930500023305B400F5
:1010D4000146913713050404014693050002850473
:1010E4001D3FC20413050406014693050002C18096
:1010F4001D3713040408E39B24FBB24022449244AA
:10110400024941018280B71700409387470B9843F7
:10111400498F98C3B71700409387070A9843598D9E
:1011240088C3828097010020938181C71721002002
:10113400130101ED1385816297150020938585EFD6
:101144006377B500232005001105E36DB5FE130593
:10115400000997F5FF1F9385A5EA170600201306DB
:10116400668463FAC5008322050023A05500110597
:101174009105E3EAC5FE172500001305E5BF938535
:1011840041C013868162638AC5008322050023A0BF
:10119400550011059105E3EAC5FE93070000FD42E1
:1011A400739002BC89629382828873A0023097F2A2
:1011B400FFFF9382E2E493E2320073905230B7F778
:1011C40000E0154798C38967938727CB739017343A
:1011D4007300203001A0AA8703C7070001E7338505
:1011E400A74082808507CDBF757122C5E6D206C7A8
:1011F40026C34AC1CEDED2DCD6DADAD8DED6E2D4D1
:10120400EAD0EECE3284B68C39E185640149938408
:10121400E4AB8149930A5002130A0003254BA94BFE
:1012240083470400130D1400A30FF10085E7BA40AF
:101234002A449A440A49665AD65A465BB65B265CE7
:10124400965C065DF64D4E85F65949618280AA8406
:101254002E89C1B7638C57014A8685451305F10170
:101264008294668C6A84AA99E28C5DBF0347140059
:1012740093072400528DA30FE100631E47073E84A9
:101284008146814701A8B387770303470400050417
:101294008546B297130607FD9375F60FE375BBFEFB
:1012A40099C2A30FE100E146BE8D63D3F600B68D6B
:1012B4009306C00601466318D70003470400054699
:1012C4000504A30FE1008346F1011307400663837D
:1012D400E6066365D702930780056380F60A9307E1
:1012E4003006638EF60AA1D64A8685451305F101B8
:1012F4008294668C8DBF130D000251B713075007FB
:10130400638AE602130780076389E606130730073A
:10131400E39CE6FC138C4C0083AC0C003EC6668553
:101324005D3DB247AA856359F0083818EE866A868F
:10133400668525A0138C4C0005CA9386B6F8181050
:1013440093B6160003A50C000146A945EFF02FFC47
:101354003818EE866A86AA850810EFF06FEDAA8524
:101364004A862818829401B793075007181063948B
:10137400F6008546C1BF8146F1B703A50C0013866C
:1013840086FA1810854613361600C145EFF02FF87B
:10139400138C4C00AA853818EE866A8675BF83A71D
:1013A4000C00138C4C003818A30FF100EE866A86EB
:1013B40085451305F10155B74A86668565B73971C8
:1013C40032D42A8605652ED236D6814554101305AB
:1013D400650006CE3AD83EDA42DC46DE36C629350A
:1013E400F24021618280011106CE22CC2AC22AC495
:1013F4002EC685C5B337A0004C00B307F0402A843D
:10140400FD8D05651305E5ABC53301C4224592473F
:101414001D8DF24062440561828001448145D5B747
:10142400397132D42E86B705008036D6FD153410B6
:1014340006CE3AD83EDA42DC46DE36C66D37F24096
:10144400216182802A96AA876393C70082802380C1
:10145400B7008507D5BF056637250020130606802B
:10146400814513054583F9BF01114EC69349F7FF22
:1014740022CC26CA2A844AC806CE2E89B3F9D900BA
:10148400D93F831724018314040163C0970893F799
:101494002900DDEB93F94900639E090A6397040E62
:1014A400096685461306063881451545593209668D
:1014B400854613064639D1450145A53A0966854650
:1014C4001306863A930500020145A532096685464E
:1014D4001306863B9305C0020145A13A0966854679
:1014E4001306C63C930590040145A132096685465E
:1014F4001306863D930550050145253A6244F240A2
:10150400D2444249B249056161B65C44B305F9006D
:10151400D5674CC4938787C00317840063E0B70280
:10152400554783178400E374F7F6AD172314F400CA
:101534008357240185072319F400E5B79D8D05071A
:101544004CC42314E400C9BF83572401850723191D
:10155400F40089B783172401E3C297F42319040024
:101564002314040023260400EFF09F839307300222
:10157400B374F502D10423189400EFF07F829547E9
:101584003375F5022905231AA40003172401634BBC
:101594009702096685461306863E930580026545D3
:1015A400EFF03F89096685461306C63C9305C003E0
:1015B4000145EFF01F88096685461306863D9305AD
:1015C40080041DBF031584009549D54633053503B2
:1015D400930780163375D5023305F5023355D502CA
:1015E4001309A5053369F90283174401BA97130750
:1015F4004006B387E7021307A005B3C797026357F2
:10160400F702EFF0CFFD2A844A85EFF04FFDF14752
:101614003306F502E1471385C10BB305F402130643
:10162400460393854503EFF02FEAC9BD1307100461
:101634006354F702EFF0AFFA2A844A85EFF02FFAE9
:10164400C5473306F502138581DFB305F40213069B
:10165400460393854503C1BF79476353F702EFF00F
:101664000FF82A844A85EFF08FF733063503B30564
:1016740034031306460393854503138541C165B7B7
:1016840013064003B285D5BF357122CD3A844AC9C9
:101694004EC736891344F4FF8D6926CB52C556C311
:1016A4005AC106CFAA84337424017533938909D4AB
:1016B4000549096BD14A114A9C44130600026394FC
:1016C40027011306E00383A6490093054B3F0A85CF
:1016D400813BB305590389460A86014505099109E9
:1016E400B115EFF00FF5E31949FD137714009C448D
:1016F40009C7FD176343F00085471377440011C7FA
:1017040085070D476373F700BA879CC409881DC019
:1017140089461387C1636388D7048D46638CD70CCD
:1017240085466383D70223A0016485679387C768CE
:101734001CC314C76A44FA40DA444A49BA492A4ADB
:101744009A4A0A4B0D61A9B29387416423A007000A
:1017540023A207008967938707A61CC38967938719
:1017640047905CC3C1BF8967938747371CC38967A8
:101774009387678A5CC30144F93993040008A285FE
:10178400228505460504EFF08FC1E31A94FEEFF0BD
:101794003F901305800AEFF03F8E0145EFF0DF8D97
:1017A4001305500DEFF05F8D1305000FEFF0DF8C84
:1017B4001305800CEFF05F8C1305100AEFF0DF8B3C
:1017C4001305900DEFF05F8B4545EFF0FF8A374727
:1017D40000408D46A301D7008347070093F7F70E17
:1017E4002300F700BA870347170013671701A38084
:1017F400E70089B79387416423A0070023A2070069
:1018040023A4070023A6070085679387C7461CC344
:101814008567938707DE5CC303A7816223A4E1C0C5
:1018240011BF81476313F60082803387F500834636
:1018340007003307F50085072300D700E5B7B7078E
:1018440000E09387073498439306000C1377070C42
:101854006307D70441113707100022C406C62A843F
:101864000507944313F6060805E299C2EFF00FEA60
:1018740093178400C207C18393E75708370700E032
:101884002320F734054501A87D1761FF98430145DE
:101894001367070C98C3B24022444101828001457A
:1018A4008280797122D426D24AD04ECE06D632C056
:1018B400034855008347450003473500B6882E8901
:1018C40083462500834505003284034615000965D7
:1018D4001305C53FED348144896963CA84002254E9
:1018E400B25092540259F2492945456189BFB30760
:1018F400990083C50700138549428504C934F1BFA3
:101904004DB7B717004093870704930570052380EC
:10191400B700130680FA2380C700010001003717BF
:1019240000408346A70093E606012305D700372726
:1019340000408546A303D7808346578093E606017B
:10194400A302D78023800700010001002380B70091
:101954002380C70001000100371700409306A0044C
:101964002304D7002380070001000100B70700E02B
:1019740023A207341307000823A0E734828041110F
:1019840006C622C497E0FF1FE780C06A05CD93878F
:10199400C163C04305C897E0FF1FE7802068B717FD
:1019A400002003C6473FA2872244B240AA86B71547
:1019B40000203715002011069385E53F1305653F88
:1019C40041018287B2402244410182805D7122DE5E
:1019D40037C400401304042026DC3AD204443ED029
:1019E40058441C442ADA86C696C49AC29EC02ED88D
:1019F40032D636D442CE46CC72CA76C87AC67EC4B3
:101A0400F98F37C700401CC4130707105C5B0145FE
:101A14008588F19B93E717005CDBEFF00F9C3C4853
:101A240093F7F78F3CC81C4093E787001CC091C014
:101A3400B9377254B640A64216438643E25452550F
:101A4400C2553256A256125782577248E248524E35
:101A5400C24E324FA24F616173002030557186C768
:101A6400CAC14EDF3289AA8952DD56DB5ED766D3FE
:101A74006AD12E8AA2C5A6C35AD962D5E93AB7F764
:101A840000E0904789659385C5420810EFF05F999F
:101A94008946101081450145EFF0AFB98326C9008E
:101AA40003A689008965938545430810EFF05F9785
:101AB40089461010E1450145EFF0AFB7930B0002E2
:101AC400854C930AA005130D000803240900014B5B
:101AD4002580B304804033848C400604338C9B40BF
:101AE4009305AB05054662852EC4EFF04F8BA245E6
:101AF40033859B0005462AC6EFF06F8A3245B385CD
:101B04006A4105462EC4EFF08F89A24505466285D9
:101B1400EFF0EF8863498B02050B93171B008507D1
:101B240033079040A2976315EB0063C5840001441A
:101B340063D984008504139714000507BA97638654
:101B440094013E8461BFA287E5B7938B0B02110910
:101B5400E39DABF701449304000D2949EFF04FA432
:101B6400B3759502938585FD2EC4EFF06FA333768C
:101B7400950293771400A24513850142130686FD4E
:101B840099C3138541520504EFF00F94E31824FD23
:101B9400EFF00FD083A7C900B387474163C20702A0
:101BA40023A6F900BE402E449E440E49FA596A5AAF
:101BB400DA5A4A5BBA5B2A5C9A5C0A5D6961828084
:101BC400B7270600938707A823A6F900B7F50300F3
:101BD400856789071946E105130521012318F100DA
:101BE40089318965FD5719469385C5431305A101BC
:101BF400231CF1003D3103C4C162414637C5898EBF
:101C0400B305C1000547A286130565ED97E0FF1FE4
:101C1400E780404437C5898E0546A285130565EDE6
:101C240097E0FF1FE7808056B5BF0111060522CC5F
:101C340026CA4AC84EC652C456C206CE5AC02E84BC
:101C4400B289368A01499374F50F896A97E0FF1FB8
:101C5400E780E06F268597E0FF1FE780007E05C5DB
:101C64004A86D28513854A44EFF06FF50509E31FD0
:101C740039FDF2406244D2444249B249224A924A6E
:101C8400024B0561828003450400130B240097E096
:101C9400FF1FE780807A034514005A8497E0FF1FF2
:101CA400E780A07997E0FF1FE7802071C1B77571C5
:101CB40006C722C526C34AC1CEDED2DCD6DADAD8BC
:101CC400DED6E2D4E6D2EAD0EECE25390565130598
:101CD4000580B7140040056B9384C40AEFF0AFC2CB
:101CE400130B0B8023A0640113050004EFF0AFC1B4
:101CF400130A000437190040232C490B4145EFF027
:101D04008FC0C14B930A00401305004023A0740107
:101D1400EFF06FBF23A0540197E0FF1FE780A0619D
:101D2400E1779309C1018966938727119386064653
:101D34000546CE851305C007231EF100FD35B78780
:101D44000B0020108966AD07938606470946A285D5
:101D54001305C0073ED4D13D89668D659386064838
:101D64003D469385C5CF1305A006C135896609464E
:101D7400938501C1938686481305C0077D3523A04A
:101D8400640123A054013725090023A0440113054D
:101D9400057CEFE0BFD65285232C490BEFF0AFB69C
:101DA4005E85EFF04FB65685EFF0EFB513050008EA
:101DB400EFF06FB513050002EFF0EFB4232C490BDD
:101DC400232C790B23A05401B74700409546A381E7
:101DD400D70089462380D700130740062380E700F5
:101DE40003C70700372509001305057C136787001F
:101DF4002380E700A380D70023A04401EFE01FD095
:101E04008D64232C490BEFF00FE59384C4D113099F
:101E1400F00F03C504006319254FEFF06FA7EFF02F
:101E24008FE31305500DEFF02FA51305000EEFF00F
:101E3400AFA41305800CEFF02FA41305100AEFF0E4
:101E4400AFA3B72700408946370700042380D74053
:101E54007D1723A6E740130750FC2380E740238126
:101E6400D740B717004003D7A70137E900E013674D
:101E74000704239DE700B70700012320F910F32787
:101E8400003093E78708739007301145EFF0AFA750
:101E940039472386E162B7C70040938707201307B9
:101EA400C008D8CB93066007D4CFD8D3D8DBF8C307
:101EB400F4C71307C006D8D7D8DF13078007D8C3E1
:101EC4003707160023AA07043D07D8C73717002091
:101ED4001307473FF8DF7D57B7D4004098C79307EF
:101EE40000489CD49C583707FAFF7D17F98F9CD87B
:101EF4009C5837070070B7060002D98F9CD8DC5C69
:101F0400370700F97D17F98FD58FDCDCDC5C3707E8
:101F14000040FD168E078D83D98FDCDCBC44370767
:101F2400F9FF7D17F98FBCC4BC4837070700D14BB4
:101F340093F7F78F93E70730BCC8FC4C1305805523
:101F4400D98FFCCCFC4C37077000D98FFCCC3707F9
:101F54000200B7C70040938707101307C72098DF14
:101F640013070005D8DFD85B758FB70600DA558FE5
:101F7400D8DB98431377F7CF98C3A3097905EFE02B
:101F8400DFC5DC407D777D1793F7F7EFDCC09C5409
:101F940013055002F98F9CD4DC5437070200BD9B13
:101FA400DCD49C44D98F9CC4DC4093E70701DCC09B
:101FB400EFE09FC7AA84135B850113057002EFE06D
:101FC400BFC62A8A135C85014945EFE0FFC59377B4
:101FD400F50F130680022A89935A850193F4F40FAE
:101FE400137AFA0F814522859D8C338A4741EFF09D
:101FF4006FC5B386740381475E86B305F400850715
:1020040033D77603858E6207618713154700498F9E
:102014002380E500E393C7FE8146514813068002FE
:1020240033D70603B305F4008507D29662076187A8
:1020340013154700498F2380E500E393C7FEA2866A
:10204400014737D5004029468C42930787028A0707
:10205400AA978CC305079106E318C7FE33065B41B4
:102064009546B306D602B38A8A4102CE02D002D282
:10207400854799453385F900850733D7B602918E94
:102084006207618713184700336707012300E500DF
:10209400E392B7FE814619482D4633D70603B3852C
:1020A400F9008507D6966207618713154700498FA3
:1020B4002380E500E393C7FEF246B7D700401387B9
:1020C400070834C78256056674C7925634CBD84382
:1020D4009376F9033D9BD8C3D843799BD8C39857CB
:1020E400518F98D7D85713670701D8D7985F1377BC
:1020F40007FC558F98DF985FB7060081FD16758F32
:10210400B706007F3379D9003367270198DFD843B6
:10211400C176FD1613670710D8C3B84B758FB8CBBB
:102124009847B7062000558F98C7D84793064006AE
:1021340013670701D8C7D843518FD8C337C70040A6
:102144001307072074D3745391C683A6C70993F663
:102154000610F5FAB7D7004013870708584F4166B1
:102164007D8B23AAE162B84B518FB8CBB84B03A641
:102174004163019B518FB8CB98473706E0FF7D162A
:10218400718F98C703A741637946FD4709076365C3
:10219400E60083A74163890723ACF162B7D7004007
:1021A400B84FC176FD16758FB8CF9847C166014503
:1021B400558F98C7D847B706EFFFFD16136707106A
:1021C400D8C7D8430149758FB7061000558FD8C3B7
:1021D400EFE0BFA0B7E700E003C7574137C5898EDA
:1021E400054613670708A38AE7403707200023A0A2
:1021F400E710B945130565ED97E0FF1FE78000F987
:1022040023A0016485671387C1639387C7681CC3D0
:1022140085471CC702C4938BC163214C930C0010E7
:10222400130D00203EC6894D370BFF4FB7BAAAAA3B
:10223400228A8144938AAAAA2145EFE09FBC130510
:102244000010EFE01FBC13050020EFE09FBBB24776
:102254006380F40C6387B40D89E813050010EFE084
:102264009FEAB717004023AC870B83270B006392C8
:10227400570D93972400DA97DC4383A681622320C9
:10228400FA008504B6979396A700B58F93965701E5
:10229400B58F23A4F1629147110AE39FF4F8A25485
:1022A4008567938787383257B3B4970085679387D8
:1022B400873863F4E70093E42400425763F4E700AB
:1022C40093E44400B7F700E003AA870093070003F0
:1022D400330A2A41335AFA0283A70B0081CB2247DF
:1022E400A6862286D2851385C1638297930700034D
:1022F400330AFA02529937CA0040130A0A10832794
:10230400CA04B5E326C41DB78504EFE0FFD611B6B1
:1023140013050020EFE03FDFB717004023AC970B15
:10232400A9B72145EFE03FDEB717004023ACA70B68
:102334002DBF23A8016297E0FF1FE78060CC85676B
:10234400938707FA83A6016399E2FD17E5FF03A7C4
:102354000163B7E73400938787F27917B3D7E702AD
:102364009387970619BFEFF08FE123260A0441BF34
:10237400411106C697E0FF1FE780E0485061737380
:10238400207468652050756666657221000000003F
:102394002D5072657373204320746F20506F6B65EA
:1023A400000000002D47657420726964206F662068
:1023B40068696D00206265666F72652068652070CB
:1023C4006F707321000000002D50726573732052EA
:1023D40020746F0020706C617920616761696E21DF
:1023E4000000000047616D65204F76657221000092
:1023F4002563257300000000253032783A253032F9
:10240400783A253032783A253032783A25303278A5
:102414003A253032783A2533642025643A000000A6
:102424002530327820000000253038780000000084
:102434002533642025640000AABBCCDDEEFF000038
:1024440025732043616E6E6F7420436F6E666967F7
:1024540075726520402025640A0000004C534D36F7
:10246400445333205245534554000000514D4336E4
:102474003330392052455345540000004C534D36F7
:1024840044533300514D43363330390046756C6C38
:102494002053573A20253036780A00004C534D36E5
:1024A400445333204F766572666C6F7700000000EA
:1024B40025303678200000002530347820000000D4
:1024C400436F6E667573696E67207461673A202581
:1024D400640A00004D656E75000000004578616D6A
:1024E400706C650054657374000000005075666676
:1024F400657220506173730000000000000000004A
:102504007E81A581BD99817E7EFFDBFFC3E7FF7ECF
:102514006CFEFEFE7C38100010387CFE7C38100007
:10252400387C38FEFED6103810387CFEFE7C10381D
:102534000000183C3C180000FFFFE7C3C3E7FFFF9F
:10254400003C664242663C00FFC399BDBD99C3FF8F
:102554000F070F7DCCCCCC783C6666663C187E18A1
:102564003F333F303070F0E07F637F636367E6C0E2
:1025740018DB3CE7E73CDB1880E0F8FEF8E080007D
:10258400020E3EFE3E0E0200183C7E18187E3C18D9
:1025940066666666660066007FDBDB7B1B1B1B00D2
:1025A4003E613C66663C867C000000007E7E7E00C8
:1025B400183C7E187E3C18FF183C7E18181818002A
:1025C400181818187E3C180000180CFE0C1800008F
:1025D400003060FE603000000000C0C0C0FE00009B
:1025E400002466FF6624000000183C7EFFFF000004
:1025F40000FFFF7E3C180000000000000000000007
:10260400183C3C18180018006666240000000000FE
:102614006C6CFE6CFE6C6C00183E603C067C180012
:1026240000C6CC183066C600386C3876DCCC760030
:1026340018183000000000000C18303030180C005E
:1026440030180C0C0C18300000663CFF3C6600008F
:102654000018187E18180000000000000018183038
:102664000000007E000000000000000000181800B8
:10267400060C183060C08000386CC6D6C66C3800B2
:102684001838181818187E007CC6061C3066FE0020
:102694007CC6063C06C67C001C3C6CCCFE0C1E00B2
:1026A400FEC0C0FC06C67C003860C0FCC6C67C0008
:1026B400FEC60C18303030007CC6C67CC6C67C0012
:1026C4007CC6C67E060C7800001818000018180096
:1026D4000018180000181830060C1830180C0600E2
:1026E40000007E00007E00006030180C183060008E
:1026F4007CC60C18180018007CC6DEDEDEC078002C
:10270400386CC6FEC6C6C600FC66667C6666FC00FF
:102714003C66C0C0C0663C00F86C6666666CF80037
:10272400FE6268786862FE00FE6268786860F000A5
:102734003C66C0C0CE663A00C6C6C6FEC6C6C60063
:102744003C18181818183C001E0C0C0CCCCC780043
:10275400E6666C786C66E600F06060606266FE00B7
:10276400C6EEFEFED6C6C600C6E6F6DECEC6C60079
:102774007CC6C6C6C6C67C00FC66667C6060F0008B
:102784007CC6C6C6C6CE7C0EFC66667C6C66E6005D
:102794003C6630180C663C007E7E5A1818183C00C3
:1027A400C6C6C6C6C6C67C00C6C6C6C6C66C380083
:1027B400C6C6C6D6D6FE6C00C6C66C386CC6C60085
:1027C4006666663C18183C00FEC68C183266FE002D
:1027D4003C30303030303C00C06030180C06020011
:1027E4003C0C0C0C0C0C3C0010386CC600000000B7
:1027F40000000000000000FF30180C000000000082
:102804000000780C7CCC7600E0607C666666DC00B8
:1028140000007CC6C0C67C001C0C7CCCCCCC7600F2
:1028240000007CC6FEC07C003C6660F86060F0007E
:10283400000076CCCC7C0CF8E0606C766666E60032
:102844001800381818183C00060006060666663C90
:10285400E060666C786CE6003818181818183C00AC
:102864000000ECFED6D6D6000000DC666666660084
:1028740000007CC6C6C67C000000DC66667C60F096
:10288400000076CCCC7C0C1E0000DC766060F0008E
:1028940000007EC07C06FC003030FC3030361C006A
:1028A4000000CCCCCCCC76000000C6C6C66C380088
:1028B4000000C6D6D6FE6C000000C66C386CC6009C
:1028C4000000C6C6C67E06FC00007E4C18327E00A0
:1028D4000E18187018180E00181818181818180060
:1028E4007018180E1818700076DC00000000000044
:1028F4000010386CC6C6FE007CC6C0C0C67C0C780E
:10290400CC00CCCCCCCC76000C187CC6FEC07C00B1
:102914007C82780C7CCC7600C600780C7CCC76006B
:102924003018780C7CCC76003030780C7CCC760077
:1029340000007EC0C07E0C387C827CC6FEC07C0059
:10294400C6007CC6FEC07C0030187CC6FEC07C007D
:102954006600381818183C007C82381818183C0097
:102964003018003818183C00C6386CC6FEC6C600BD
:10297400386C7CC6FEC6C6001830FEC0F8C0FE0027
:1029840000007E187ED87E003E6CCCFECCCCCE00FF
:102994007C827CC6C6C67C00C6007CC6C6C67C00DB
:1029A40030187CC6C6C67C00788400CCCCCC7600BB
:1029B4006030CCCCCCCC7600C600C6C6C67E06FC45
:1029C400C6386CC6C66C3800C600C6C6C6C67C000F
:1029D40018187EC0C07E1818386C64F06066FC005D
:1029E40066663C7E187E1818F8CCCCFAC6CFC6C7EB
:1029F4000E1B183C18D870001830780C7CCC76006C
:102A04000C18003818183C000C187CC6C6C67C008C
:102A14001830CCCCCCCC760076DC00DC6666660064
:102A240076DC00E6F6DECE003C6C6C3E007E0000F8
:102A3400386C6C38007C00001800181830633E00B5
:102A4400000000FEC0C00000000000FE06060000FA
:102A540063E66C7E3366CC0F63E66C7A366ADF0617
:102A6400180018183C3C1800003366CC663300008C
:102A740000CC663366CC0000228822882288228813
:102A840055AA55AA55AA55AA77DD77DD77DD77DDF6
:102A9400181818181818181818181818F8181818D2
:102AA4001818F818F818181836363636F636363632
:102AB40000000000FE3636360000F818F818181822
:102AC4003636F606F6363636363636363636363652
:102AD4000000FE06F63636363636F606FE000000F0
:102AE40036363636FE0000001818F818F8000000D4
:102AF40000000000F8181818181818181F00000013
:102B040018181818FF00000000000000FF1818181B
:102B1400181818181F18181800000000FF000000EB
:102B240018181818FF18181818181F181F1818182C
:102B34003636363637363636363637303F000000CE
:102B440000003F30373636363636F700FF000000D7
:102B54000000FF00F736363636363730373636362D
:102B64000000FF00FF0000003636F700F736363667
:102B74001818FF00FF00000036363636FF0000004C
:102B84000000FF00FF18181800000000FF3636365A
:102B9400363636363F00000018181F181F00000094
:102BA40000001F181F181818000000003F363636A2
:102BB40036363636FF3636361818FF18FF1818180A
:102BC40018181818F8000000000000001F18181842
:102BD400FFFFFFFFFFFFFFFF00000000FFFFFFFFFD
:102BE400F0F0F0F0F0F0F0F00F0F0F0F0F0F0F0FE9
:102BF400FFFFFFFF00000000000076DCC8DC760069
:102C040078CCCCD8CCC6CC00FEC6C0C0C0C0C000F6
:102C14000000FE6C6C6C6C00FEC6603060C6FE008A
:102C240000007ED8D8D870000000666666667CC056
:102C34000076DC18181818007E183C66663C187E6E
:102C4400386CC6FEC66C3800386CC6C66C6CEE00B8
:102C54000E180C3E66663C0000007EDBDB7E000046
:102C6400060C7EDBDB7E60C01E30607E60301E00A2
:102C7400007CC6C6C6C6C60000FE00FE00FE0000FC
:102C840018187E1818007E0030180C1830007E00CA
:102C94000C1830180C007E000E1B1B18181818187E
:102CA4001818181818D8D8700018007E00180000DA
:102CB4000076DC0076DC0000386C6C380000000024
:102CC40000000018180000000000001800000000B8
:102CD4000F0C0C0CEC6C3C1C6C36363636000000C9
:102CE400780C18307C00000000003C3C3C3C0000A8
:102CF40000000000000000001244105A115D0A2870
:102D040006600700080909AA0A010B600D001300F8
:102D14001510160013010000AE0010B0DC00816F26
:102D240021A4A87FD300D5F0D91DDB3540AD80A008
:102D340001D90681FEDBFEA87FAFFF00D824000086
:102D4400E0240000E8240000F02400000102030451
:102D540005060708090A0C0D0E0F1011121314159D
:102D6400161718191A1B1C1D1E1F20212223242587
:042D740026000B2703
:102D7800000000002FA37A74000000000B480A1915
:102D880004001E0000C000C0FF1FFF1F000000005D
:102D98000000000000F80038FFFF00E0000000001D
:102DA8000000000000FE0006FFFF00000300030013
:102DB8000000000080FF8001FFFF7E000700040084
:102DC80000000000C0FF4000FFFF40001F00180087
:102DD80007000700E0FF2000FFFF20003F80208061
:102DE8000F000800F0FF1000FFFF107E7FC040407A
:102DF8001F001200F8FF081CFFFF0840FFC08040BA
:102E08001F001200F8FF0822FFFF0020FFE08020CB
:102E18003F002100FEFF0E22FFFF0010FFF100110E
:102E28003F002100FFFF1122FFFF0008FFFB0F8A70
:102E38001F001000FFFF211CFFFF00C0FFFF104410
:102E48001F001200FFFF4100FFFF0020FFFFE031DD
:102E58000F000A00FEFF4200FFFF0010FFFF2609D7
:102E68000F000900FCFF0400FFFF0088FFFFA1F02E
:102E780007000400FCFF0400FFFF0048FFFF602478
:102E880007000400FEFF4200FFFF0020FFFF10C8FC
:102E98000F000800FFFF4100FFFF0010FFFF0A10AE
:102EA8000F000900FFFF2100FFFF0080FFFF0964FA
:102EB8001F001200FFFF1100FFFF0060FFFB088AE0
:102EC8001F001000FEFFCE07FFFF0000FFF11011EA
:102ED8003F002100F8FFE80FFFFF0080FFE0A1207E
:102EE8003F002200F8FFF81FFFFF7820FFC0A24034
:102EF8001F001200F0FFF03FFFFFFC407FC064405E
:102F08001F001000E0FFE0FFFFFFFF813F803080DF
:102F18000F000800C0FFC0FFFFFFFF071F001F00D2
:102F28000700070080FF80FFFFFFFF7F0700040006
:102F38000000000000FE00FEFFFFFFFF030003008B
:102F48000000000000F800F8FFFFFFFF000000008D
:102F58000000000000C000C0FF1FFF1F00000000AD
:102F68000000000004002C00000000000000000029
:102F78000000000000000000000000000000000049
:102F8800000000000000000000800080FF1FFF1FFD
:102F9800000000000000000000E00060FF7F00600B
:102FA8000F000F000000000000F80018FFFF00C02D
:102FB8000F0008000000000000FE0006FFFF0000F0
:102FC8000F0008000000000080FF8001FFFF0000E4
:102FD8001F001C0000000000C0FF4000FFFF0000B1
:102FE8003F00220000000000E0FF20E0FFFF00009B
:102FF8007F00410000000000E0FF20FCFFFF000010
:10300800FF00800000000000F0FF101EFFFF00001E
:10301800FF1E801E00000000F0FF1002FFFF00E00E
:10302800FF1F01111C001C00F8FF0838FFFF0018E3
:10303800FF1F01113E002200F8FF0844FFFF0000B7
:10304800FF0F010A7F004900FCFF0444FFFF00BC9A
:10305800FF8700867F004800FCFF0444FFFF004311
:10306800FF870084FF008400FCFF3C38FFFF80A03E
:10307800FFC70044FF008400FCFF4400FFFF4098A6
:10308800FFEF00287F004200FEFF8200FFFF20863E
:10309800FFFF00107F004900FFFF0101FFFF2081B3
:1030A800FFFFE0C13F002800FFFF0901FFFF80404C
:1030B800FFFF18213F002400FFFF1501FFFF4028F4
:1030C800FFFF00C11F001300FFFF1501FFFF0026CF
:1030D800FFFF80901F001000FFFF0901FFFF802104
:1030E800FFFF40203F002300FFFF0101FFFF0040DA
:1030F800FFFF20403F002400FEFF8200FFFF008604
:10310800FFFF00907F004900FCFFC403FFFF808899
:10311800FFEF00287F004200FCFFFC07FFFF009143
:10312800FFC70044FF008400FCFFFC0FFFFF0042C4
:10313800FF870084FF008800FCFFFC1FFFFF003CA6
:10314800FF8300827F004800F8FFF83FFFFFF0038D
:10315800FF0300027F004100F8FFF87FFFFFFC0734
:10316800FF0100013E002200F0FFF0FFFFFFFF1FFC
:10317800FF0100011C001C00F0FFF0FFFFFFFF7FB4
:10318800FF00800000000000E0FFE0FFFFFFFFDF1E
:10319800FF00830000000000E0FFE0FFFFFFFFBF2B
:1031A8007F00670000000000C0FFC0FFFFFFFF7F37
:1031B8003F003F000000000080FF80FFFFFFFFF797
:1031C8001F001E000000000000FE00FEFFFFFFEFD2
:1031D800070006000000000000F800F8FFFFF71FD6
:1031E800030002000000000000E000A0FF7FF77F5E
:1031F800000000000000000000800000FF1FEF1F1B
:103208000000000000000000000000001F000E0089
:103218000000000000000000000000000C00040096
:10322800000000000000000004003600000000005C
:103238000000000000000000000000000000000086
:103248008000800002000200000000000000000072
:10325800C001400107000500000000000000000058
:10326800E083208207000400000000000000000046
:10327800F8BF383E0F000800000000000000000002
:10328800FFFF17C40F0009000000000000C600C6B9
:10329800FFFF10041F0016000000000000FF0039A7
:1032A800FFFF00003F0038000000000000FF000D95
:1032B800FFFF00007F0050000000000000FF000337
:1032C800FFFF0000FF00C8000000000000FF000131
:1032D800FFFF0800FF0184010000000080FF80005C
:1032E800FFFF1400FF03800200000000C0FF400041
:1032F800FFFF2400FF07000500000000F8FF38006A
:10330800FFFF4200FF0F000900000000FEFF16004B
:10331800FFFF0200FF1F001000000000FFFF090070
:10332800FFFF0200FF3F002003000300FEFF0A002A
:10333800FFFF0000FFBF00A007000400FCFF04001F
:10334800FFFF0000FFFF004087038403FCFF040425
:10335800FFFF8000FFFF0040C3074204FEFF020892
:10336800FFFF4000FFFF0280E30F2209FEFF02106B
:10337800FFFF2000FFFF0580E10F2009FEFF8221EB
:10338800FFFF1006FFFF0100F11F9110FEFF0E3E28
:10339800FFFFF081FFFFF001FF1F8F10FFFF3300D9
:1033A800FFFF0080FFFF1CC2FF0F4408FFFFC300A0
:1033B800FFFF0000FFFF0424FF0F2C09FFFF03E0BD
:1033C800FFFF3F00FFFFC204FF071A05FFFF0510BC
:1033D800FFFF4000FFFF3104FF079204FFFF0508CD
:1033E800FFFF8000FFFF0904FF037102FFFF0104D4
:1033F800FFFF0001FFFF0402FF031002FFFF01C4EB
:10340800FFFF0F01FFFF4201FF077004FFFF018468
:10341800FFFF1401FFFF3001FF078804FFFF01844D
:10342800FFFF0401FFFF0C01FF0F3809FEFF828731
:10343800FFFF0407FFFF00C2FF0F4708FEFFE20F70
:10344800FFFF830FFFFF30E4FF1F8F10FEFFFE1FFB
:10345800FFFFC03FFFFF44F4F11F1111FEFFFEFF05
:10346800FFFFFFFFFFFF88F4E00F2009FCFFFCFFD0
:10347800FFFFFFFFFF7F177AE00F2008FCFFFCFF2C
:10348800FFFFFFFFFF7FEF7DC0074004F8FFF8FF55
:10349800FFFFFFFFFF3F1F3E80038003F8FFF8FF99
:1034A800FFFFFFFFFF3FFF3F00000000F0FFF0FFBE
:1034B800FFFFFFFFFF1FFF1F00000000E0FFE0FF0E
:1034C800FFFFFFFFFF0FFF0F00000000C0FF40FFDE
:1034D800FFFFFFFFFF07FF0700000000C0FF80FF9E
:1034E800FFFFFFFFFF07FF0300000000C0FF80F79A
:1034F800FFFFFFFFFF07FF0300000000C0FF80FB86
:10350800FFFFFFFFFF07EF0300000000C0FF80FC84
:10351800FFFFFFFFFF071F0300000000C0F000F0DF
:10352800FFFFFFFF1F071F000000000000C000C0D2
:10353800FFFFFFFF07000700000000000000000079
:10354800FFFFFFFB01000100000000000000000079
:10355800F83FD83B00000000000000000000000019
:10356800C00380010000000000000000000000000F
:1035780080030001000000000000000000000000BF
:103588000001000000000000000000000200200010
:1035980000F800F83F003F0000FE000EFF00E000CA
:1035A80080FF8003FF038003C0FFC000FF07000601
:1035B800E0FF6000FF0F080CF0FF3000FF1F1C1831
:1035C800F8FF1800FF3F3E30F8FF0800FF3F7F205C
:1035D800FCFF0C00FF7FFE60FCFF0400FF7FFC4146
:1035E800FEFF0600FFFFF8C3FEFF0200FFFFF087A3
:1035F800FEFF0200FFFFE083FEFF0200FFFFC08125
:10360800FEFF0200FFFF8080FEFF0200FFFF008038
:10361800FEFF0200FFFF0080FEFF0200FFFF0080A8
:10362800FEFF0200FFFF0080FEFF0200FFFF008098
:10363800FEFF0600FFFF00C0FCFF0400FF7F004004
:10364800FCFF0C00FF7F0060F8FF0800FF3F002030
:10365800F8FF1800FF3F0030F0FF3000FF1F001890
:10366800E0FF6000FF0F000CC0FFC000FF0700066E
:1036780080FF8003FF03800300FE000EFF00E000D0
:1036880000F800F83F003F000000000000000000C4
:103698000200200000FC00FC1F001F0000FF0007C4
:1036A8007F007000C0FFC001FF01C001E0FF6000A3
:1036B800FF030003F0FF3010FF070006F8FF18387B
:1036C800FF0F000CFCFF0C7CFF1F0018FCFF04FE22
:1036D800FF1F0010FEFF067FFF3F0030FEFF823F06
:1036E800FF3F0020FFFFC31FFF7F0060FFFFE10FC8
:1036F800FF7F0040FFFFC107FF7F0040FFFF8103FE
:10370800FF7F0040FFFF0101FF7F0040FFFF010036
:10371800FF7F0040FFFF0100FF7F0040FFFF010027
:10372800FF7F0040FFFF0100FF7F0040FFFF010017
:10373800FF7F0040FFFF0300FF7F0060FEFF0200E5
:10374800FF3F0020FEFF0600FF3F0030FCFF0400A3
:10375800FF1F0010FCFF0C00FF1F0018F8FF1800E7
:10376800FF0F000CF0FF3000FF070006E0FF6000CD
:10377800FF030003C0FFC001FF01C00100FF0007F5
:103788007F00700000FC00FC1F001F00000000000C
:04379800000000002D
:00000001FF
