:100000006F10601100000000C6110000C611000052
:10001000A9BDF9F3C61100000000000000000000B7
:10002000C6110000C6110000000000000000000022
:10003000C611000000000000C61100000000000012
:10004000C6110000C6110000C6110000C611000054
:10005000C6110000C8180000C61100000000000012
:10006000D2020020C6110000C6110000C611000017
:10007000C6110000C6110000C6110000C611000024
:10008000C6110000C6110000C6110000C611000014
:10009000B727004009472380E740130750FC23801F
:1000A000E7401145171300E06700A3DDB7170020F4
:1000B00083C717473717002013074747BA970385A9
:1000C00007008280B717002083C717473717002023
:1000D00013075747BA9703C50700118105891345D0
:1000E00015008280011126CAB7C400409384041011
:1000F000DC5806CE22CCF19B93E717004AC84EC6C7
:1001000052C4AA89DCD836852E8A3A84328997105F
:1001100000E0E78080C313058025971000E0E780AA
:1001200000B6B757550023A6340193875755DCC056
:1001300023A03407BCCC9C44B70600FF37078000DF
:100140001307D732F58FD98F9CC4FC4CF58FD98F0C
:10015000FCCCB7C700409387072023AC47078567CF
:100160009387A7BB37D70040345713967600634474
:100170000600FD17F5FBB7C7004009479387071036
:100180006318E40898431377F7CFB7C70040938705
:10019000071098C3D8537914B70600FAFD16333404
:1001A0008000758F6604598CC0D337C40040130497
:1001B000042018488176FD16758F18C8370702008D
:1001C00018C42609232224079843B7060001558F37
:1001D00098C3D85B719BD8DB89471CC07C50FDFF5E
:1001E0000145971000E0E78080A91C408D8B89CBEA
:1001F0003C4893F7F78F3CC81C4093E787001CC02E
:10020000F2406244D2444249B249224A05618280A6
:1002100098431377F7CF1367071085BF411126C2A4
:10022000AA84014522C44AC006C62E89328497108A
:1002300000E0E780C0A4B7C7004093870720984339
:100240000D8B09CBB84B1377F78FB8CB9843136757
:10025000870098C3B7C700409387072023A20706EB
:100260004A85971000E0E78040AE1305801597108F
:1002700000E0E780C0A0B7C70040938707109C4309
:10028000094793F7F7CF6318E40C37C7004013070B
:1002900007101CC354539307E4FF370600FAB33723
:1002A000F0007D16E607F18ED58F5CD3B7D70040FE
:1002B000BC4B13F707FE89476312F40A83A7016A50
:1002C000FD8BD98F37D700403CCBB7C70040938711
:1002D0000710D84B0946AD46137707FC6313C400DB
:1002E000B546558FD8CBD84FB70701FF938707C0C6
:1002F0007D8F8946B70779009387C7096316D400B5
:10030000B7077F009387070A5D8FB7C700409387C1
:100310000710D8CF37575500C4C713075755D8C350
:10032000A4D3B8CF9847370600FFB706800093865E
:10033000D632718F558F98C7F84FB2402244718FD3
:10034000558FF8CFB7C70040054723A0E720924458
:1003500002494101828093E7071005BF83A7C16965
:1003600085B739712AD63ACE3ECC06DE16DC1ADACB
:100370001ED82ED432D236D042CA46C872C676C4EF
:100380007AC27EC0B727004009472383E74003A70E
:100390000741114523ACE168971000E0E78000DFDA
:1003A000F250E2525253C2533255A255125682565F
:1003B0007247E2475248C248324EA24E124F824F15
:1003C000216173002030B71700409387870B130714
:1003D000004098C305671307078098C38280B7174A
:1003E00000409387870B9306004094C301000100EF
:1003F000010001000100010001000100010005678A
:100400001307078098C301000100010001000100EB
:100410000100010001000100B71700409387C70ADF
:1004200094C301000100010001000100010001006E
:100430000100010098C3010001000100010001005A
:1004400001000100010001008280010001000100A3
:10045000010001000100010001000100B717004088
:100460009387C70A1306004090C3010001000100F2
:10047000010001000100010001000100B716004069
:1004800005679386860B1307078098C20100010059
:10049000010001000100010001000100010090C203
:1004A0000100010001000100010001000100010044
:1004B000010098C3010001000100010001000100DA
:1004C00001000100010090C38280B7160040371779
:1004D000004085672146930500409386C60A1307AE
:1004E000870B93870780131885011358884163553C
:1004F000080A0CC306051375F50F01000100010081
:100500000100010001000100010001001CC3010005
:1005100001000100010001000100010001000100D3
:100520009CC27D1669F2010001000100010001007A
:1005300001000100010001001306004010C301008A
:1005400001000100010001000100010001000100A3
:100550001CC30100010001000100010001000100B5
:1005600001000100371700400325470A0100010080
:1005700001000100010001000100010001009CC216
:100580000100010001000100010001000100010063
:1005900001002981058982808CC2A9BFB71700405C
:1005A000B716004005672146930500409387C70AA8
:1005B0009386860B1307078013188501135888410B
:1005C0006353080A8CC206051375F50F010001007C
:1005D000010001000100010001000100010098C2BA
:1005E0000100010001000100010001000100010003
:1005F000010098C37D1669F20100010001000100AD
:10060000010001000100010001001306004090C339
:1006100001000100010001000100010001000100D2
:10062000010098C201000100010001000100010069
:10063000010001000100B716004083A6460A010030
:1006400001000100010001000100010001000100A2
:1006500098C3010001000100010001000100010038
:100660000100010082808CC3B9BFB715004093859B
:10067000850B930700400566B7180040B716004089
:100680002A889CC121470145130606809388480AA1
:100690009386C60A0100010001000100010001006B
:1006A0000100010001000100010001000100010042
:1006B000010001000100010090C1010001000100E2
:1006C0000100010001000100010001009317150065
:1006D00013F5F70F83A7080093F7074099C3136535
:1006E00015007D1790C21377F70F4DF79307004061
:1006F000630F080437170040232CF70A010001009C
:100700000100010001000100010001000100056776
:10071000B71700401307078023ACE70A0100010068
:1007200001000100010001000100010001009387A8
:10073000C70A98C301000100010001000100010087
:100740000100010001001307004098C382809CC291
:1007500075B7397106DE22DC26DA4AD84ED652D475
:1007600056D25AD05ECEA5391305400D053D13056E
:10077000A0032D35AD311305500D0D350145F5356F
:10078000AA840145DD352A840545C5354205220484
:10079000498C458C5D3993171401A28563D40704F5
:1007A0000D65130505CA971000E0E780A0C9B737AB
:1007B0000A2E8D669387A780938606CB09466C0028
:1007C0001305A0063EC6971000E0E7800040F250F7
:1007D0006254D2544259B259225A925A025BF24B95
:1007E000216182800D65130545CC971000E0E780FC
:1007F00060C59377047CC9EF1374F47F69D8C5365C
:100800001305400D613B13050002493BC93E13052A
:10081000500D69330145913D0145813D8144154AA3
:10082000130BF4FF8D6B994A014901453D3DAA899F
:100830000145631B490163199B001305E0029710F2
:1008400000E0E780A0FD05450D3589EC9315850096
:10085000B3E53501C205C1811385CBCC971000E00B
:10086000E78040BE0509E31259FD8504E31E94FAB2
:100870002945971000E0E78060FA6254F250D254A4
:100880004259B259225A925A025BF24B216175BE0B
:100890001304F003ADB779715AC837FB00E066C2A4
:1008A000832C8B004AD052CC56CA5EC6B74A004051
:1008B000856B4ECE62C4938701B006D622D426D271
:1008C0006AC08149138901B0938B4B9C414CB10A9A
:1008D000138A61BFB3867903E69603278B00158FD1
:1008E000E34D07FE371700401307C70A9306004081
:1008F00014C32320870111472390EA00930630FD9B
:10090000374700402308D70093F6F9072308D7009C
:100910009306C0FD2308D70093D6790093F6F60F0F
:100920002308D70003D70A0075FF37170040232C90
:10093000870B85098287938781B469BF4D3413057E
:10094000400DA9391305A0039139513C1305500DF1
:10095000B1310145193B2A8D0145013B2A840545EA
:10096000293342052204498C3364A401F93C9317CE
:100970001401E3C207FC93175401638C070A9387A1
:1009800041B889BFA93C1305400D093929453931C2
:10099000130580022131553C99341305400DFD3E6D
:1009A0002945ED3E1305E002D53E4534375512008A
:1009B000130505F8970000E0E780801ECA8719BF7D
:1009C000393C1305400DD93E13058007C13E013C5B
:1009D0001305500DE13601454939AA84938761BA60
:1009E000D5BD01455931014549310145BD39014563
:1009F000AD3901459D3905458D39813C938761BCF1
:100A0000D1BD8D8085476396F40083278B00D28704
:100A1000D1B50947D287E38FE4EA8D47E389F4FE35
:100A20000D65A685130545CD971000E0E78080A1F0
:100A3000F9BF9387C1BF79BD938701B861BD00003D
:100A400099C6014863D7B600B685054819A0014884
:100A5000AE868D8EBA873383E600B308F340634ACF
:100A6000100593C7F6FFFD87FD8EBA968147338642
:100A7000F540B388F6006342C00493C7F5FFFD87D5
:100A8000FD8DB6953385E540630408026372B702B5
:100A90009307A002A38FF5FE9386F5FF637AD70034
:100AA000238FF5FE9386E5FF6374D700A38EF5FED2
:100AB00082808507A38FC7FE4DB73306F500034636
:100AC000060085072380C8005DB7AA862E8501CE63
:100AD0008328060001475C426348A7002380070083
:100AE0004842330515418280032886000C427D1858
:100AF000C295E385B7FE938517004CC2B385E60027
:100B000083C5050005072380B700F1B737F700E07C
:100B10001C473E951C47898FE3CE07FE82808148A3
:100B20006356050081E63305A0408548058A930792
:100B3000100619C2930710043A88254E138667FFE2
:100B4000B377B5022A8393F6F70F6364FE049386A6
:100B5000060393F6F60F2300D800930718003355C9
:100B6000B5026376B302638808009306D00223803F
:100B7000D700930728003385E74009462380070004
:100B800081463346C502FD1763C7C60082803E8892
:100B900045BFB2967DBFB305D70083C8070003C821
:100BA000050085062380150123800701E9BF33670F
:100BB000B5009307F00763E5E70293D735009E077A
:100BC000AA97372500201305058B3E959D8905477B
:100BD000834705003317B70009C6D98F2300F500F6
:100BE00082801347F7FFF98FD5BFB7C700409387BF
:100BF00007109843B706FDFFFD16758F15C1B706A0
:100C00000200558F98C337D700401C47B706330002
:100C1000D58F1CC7B7C7004093870720A8CB828019
:100C2000C166558F98C3B7D600409C463707CEFFA4
:100C30007D17F98F9CC6F9BFB7D70040D8433166FE
:100C4000130606F0799BD8C30D67130747562A97FA
:100C500003470700945F2207329701761306F60FC9
:100C6000F18E558F98DFD8438966938606F4136713
:100C70001700D8C337C700401307072074D383A6D3
:100C80000709139666006358060083A607091396A2
:100C90005600634406007453FDF2B7D7004003A525
:100CA000070983A747091375F503A98393F7F70786
:100CB000E2075D8D828037D700405C571375F507DA
:100CC000F59B5CD737C70040130707101C4393F709
:100CD00007F8C98F1CC382800313050001114ACA9B
:100CE0004EC822CE26CC52C656C45AC25EC0031984
:100CF00025009319230011058147634303009A8758
:100D0000C207C187139827001304F007B287372A58
:100D10000020854A414B3387C740634C270172440A
:100D2000E2445249C249324AA24A124B824B0561FF
:100D3000828063D507004E958507F1BFE341F4FE3D
:100D400013D7374093F477001E07930F0A8BB392A3
:100D50009A0093C2F2FFAE8E014EBA9FB38BDF01B1
:100D600063446E004295C9BF13172E002A97032FC4
:100D7000070081483387D8016364E40213771F00BA
:100D800005C3B3861B0183C3060013570F01058BF0
:100D900033179700B3F35300336777002380E600DF
:100DA0008508135F1F00E39768FDC10E050E7DB730
:100DB00003A741C093060002014537080080931540
:100DC000E7019317A700AD8FB98F9315F701B3F71C
:100DD0000701AD8F0583FD1606055D8F93F6F60FAF
:100DE000FD835D8DE9FE23A2E1C082808280B7177A
:100DF00000409387470B98431345F5FF698F98C3CD
:100E0000B71700409387070B9843698F98C3B717AC
:100E100000409387070A9843798D88C382801D71AB
:100E2000A2CC0944118CDAC033348000137BF60F56
:100E3000D2C40E04131A3B00A6CA6AD86ED686CE58
:100E4000CAC8CEC6D6C25EDE62DC66DA2AC82E8D7D
:100E5000B28D137AFA0F13040407814483490D00FD
:100E6000050D638F0906C24B93973900814A3ECA2C
:100E7000D2470D67130607D1D697B29783CC0700E8
:100E800093871B00268C21493ECC93D77C003EC61D
:100E90008149324633858901DE852ACE093B89475F
:100EA00072456395FD003246E24511331386190001
:100EB0008549E36066FF7D19420993971C00135929
:100EC000090193FCF70F6E9CE31109FC850AA14709
:100ED000EE9BE39FFAF8D29493F4F40FE37094F846
:100EE000F6406644D6444649B649264A964A064BD9
:100EF000F25B625CD25C425DB25D25618280B707C5
:100F000000E083A707348280397122DC370400E0D7
:100F1000130404341C4006DE26DA4AD84ED652D4D6
:100F200056D25AD05ECE93F7070C1307000C638B92
:100F3000E70002C6AE84D5E51C4089C793F70708D1
:100F400091E3753F8144F25062544259B259225A9A
:100F5000925A025BF24B2685D25421618280B3897A
:100F6000244163533B019D49B70710008507184092
:100F700093760708B1E611C3593778008D473A8652
:100F800063C73705B24733072A0123A0FA00814718
:100F9000834507008507B306F6002380B600638506
:100FA000F9000507E39677FF9387490093E707F871
:100FB0002306F100B2474E991CC0E34299FA61B78B
:100FC000FD17D5F71C4093E7070C1CC0A5BFB3065F
:100FD000F900D29683C6060085070507A30FD7FE42
:100FE00045B7B70A00E02A8A01491D4B938A4A3463
:100FF0008D4BE1B7411122C406C62E843137B24071
:101000002285224441018280B71700409387C70A96
:10101000130700401DCA98C3414798C3B747004013
:1010200037470040AA95990711076315B50237475E
:10103000004019078347070093F70704E5DFB71758
:101040000040414723ACE70A8280B716004023AC3A
:10105000E60AD9B783C6070093F60604E5DE8346A1
:10106000050005052300D700C9B701110546A307F0
:10107000A100B2851305F10006CE7937F240056173
:101080008280411122C4130500023724002026C2A9
:101090004AC006C61304048BC93F8144414913E585
:1010A00004FB1375F50FD1370145C1374145753F35
:1010B0002285014693050002813F93050002330516
:1010C000B40001469137130504040146930500025C
:1010D00085041D3FC2041305040601469305000262
:1010E000C1801D3713040408E39B24FBB240224453
:1010F0009244024941018280B71700409387470B11
:101100009843498F98C3B71700409387070A9843BD
:10111000598D88C3828097010020938161C917216E
:101120000020130121EE1385416997150020938556
:1011300065F86377B500232005001105E36DB5FE62
:101140001305000997F5FF1F9385C5EB17060020CF
:101150001306468663FAC5008322050023A05500C6
:1011600011059105E3EAC5FE172500001305455258
:10117000938541C013860169638AC50083220500F7
:1011800023A0550011059105E3EAC5FE9307000071
:10119000FD42739002BC89629382828873A0023000
:1011A00097F2FFFF938202E693E23200739052308F
:1011B000B7F700E0154798C389679387A7BB73907B
:1011C00017347300203001A0AA8703C7070001E786
:1011D0003385A74082808507CDBF757122C5E6D2D1
:1011E00006C726C34AC1CEDED2DCD6DADAD8DED6CE
:1011F000E2D4EAD0EECE3284B68C39E1856401497E
:101200009384A4AC8149930A5002130A0003254B2E
:10121000A94B83470400130D1400A30FF10085E7C9
:10122000BA402A449A440A49665AD65A465BB65B83
:10123000265C965C065DF64D4E85F65949618280C6
:10124000AA842E89C1B7638C57014A868545130548
:10125000F1018294668C6A84AA99E28C5DBF03478F
:10126000140093072400528DA30FE100631E47076B
:101270003E848146814701A8B38777030347040072
:1012800005048546B297130607FD9375F60FE375BF
:10129000BBFE99C2A30FE100E146BE8D63D3F60009
:1012A000B68D9306C00601466318D70003470400B5
:1012B00005460504A30FE1008346F101130740062C
:1012C0006383E6066365D702930780056380F60AA9
:1012D00093073006638EF60AA1D64A868545130524
:1012E000F1018294668C8DBF130D000251B7130774
:1012F0005007638AE602130780076389E60613072F
:101300003007E39CE6FC138C4C0083AC0C003EC61B
:1013100066855D3DB247AA856359F0083818EE86A8
:101320006A86668525A0138C4C0005CA9386B6F89C
:10133000181093B6160003A50C000146A945EFF05E
:101340000FFE3818EE866A86AA850810EFF04FEF78
:10135000AA854A862818829401B793075007181067
:101360006394F6008546C1BF8146F1B703A50C0022
:10137000138686FA1810854613361600C145EFF01D
:101380000FFA138C4C00AA853818EE866A8675BF52
:1013900083A70C00138C4C003818A30FF100EE86C5
:1013A0006A8685451305F10155B74A86668565B796
:1013B000397132D42A8605652ED236D6814554102D
:1013C000130545FF06CE3AD83EDA42DC46DE36C685
:1013D0002935F24021618280011106CE22CC2AC239
:1013E0002AC42EC685C5B337A0004C00B307F04011
:1013F0002A84FD8D05651305A5ACC53301C42245BE
:1014000092471D8DF240624405618280014481450E
:10141000D5B7397132D42E86B705008036D6FD1582
:10142000341006CE3AD83EDA42DC46DE36C66D3798
:10143000F240216182802A96AA876393C700828046
:101440002380B7008507D5BF056637250020130622
:10145000068081451305058BF9BF357122CD4EC736
:101460002A849349F7FF26CB4AC95AC106CF52C5F1
:1014700056C32E89B3F9D900C13F031BA4018314BD
:10148000840163529B06832A04015C481566CA9A4C
:1014900033B92A013E99130606E281465685CA856C
:1014A000EF00905B035A84001566130606E22A9A41
:1014B00081465685CA85EF104018420A135A0A41E0
:1014C00093070002B347FA0208C84CC8DA97231DF5
:1014D000F4009377FA0163560A00FD1793E707FEBD
:1014E00085072314F40093F7290091C78357A401BB
:1014F0008507231DF40093F94900638E09048317BF
:10150000A40163CA9704814701481CC8231D040035
:1015100023140400232A0401EFF09F89BD47B3740C
:10152000F5029104231C94000319A401634899084F
:101530008D650546938585BF0145D5308D6505468A
:101540009385C5BD5145E1388D6505469385C5BE7A
:101550001305800231A8E9F88D6505469385C5BD60
:101560000145EFF0DF8B8D6505469385C5BE51457E
:10157000EFF0FF8A0316A4018D64938584C40A8565
:10158000493D8A85094613050005EFF05F8903167A
:101590008401938584C40A85AD3D8A850946130577
:1015A0004006EFF0DF87F13CFA406A44DA444A49EA
:1015B000BA492A4A9A4A0A4B0D618280EFF04FFFDE
:1015C0009D473375F5024A9533459502EF10604CFF
:1015D00083A5C1C0EF10404213060002B2856357D5
:1015E000A0001385C158EFF02FEF69B73715002021
:1015F0001305059CCDBF357122CD3A844AC94EC72B
:1016000036891344F4FF8D6926CB52C556C35AC19F
:1016100006CFAA8433742401053D938949550549B1
:101620000D6BD14A114A9C441306000263942701B2
:101630001306E00383A6490093054BC00A85D13BFE
:101640003305590309468A85050991093115137532
:10165000C50FEFF0CFFCE31849FD137714009C444D
:1016600009C7FD176343F00085471377440011C78E
:1016700085070D476373F700BA879CC409881DC0AE
:1016800009471384416A6384E7040D476383E70CC9
:1016900005476383E70223A4016A85679387675F31
:1016A0001CC018C46A44FA40DA444A49BA492A4A72
:1016B0009A4A0A4B0D61F1B223A6016A89679387A2
:1016C000E7981CC089679387A7845CC0E1BF8967DE
:1016D0009387C7241CC085679387C77E5CC093042B
:1016E00000089D330144A285228505460504EFF0DC
:1016F0000FCCE31A94FE71321305800ABD32014506
:10170000AD321305500D95321305000FB93A13058C
:10171000800CEFF09F951305100AEFF01F9513054D
:10172000900DEFF09F944545EFF03F943747004010
:101730008D46A301D7008347070093F7F70E2300D8
:10174000F700BA870347170013671701A380E70064
:1017500091BF614681451385C16AF13985679387D9
:10176000A7451CC085679387C7DE85B7814763138C
:10177000F60082803387F500834607003307F500C3
:1017800085072300D700E5B7B70700E09387073444
:1017900098439306000C1377070C6307D704411195
:1017A0003707100022C406C62A840507944313F69F
:1017B000060805E299C2EFF08FF493178400C20780
:1017C000C18393E75708370700E02320F734054526
:1017D00001A87D1761FF984301451367070C98C363
:1017E000B24022444101828001458280797122D435
:1017F00026D24AD04ECE06D632C003485500834783
:10180000450003473500B6882E8983462500834569
:1018100005003284034615000D651305C5C0493E19
:1018200081448D6963CA84002254B2509254025993
:10183000F2492945456189BFB307990083C507006F
:10184000138549C38504AD36F1BF4DB7B7170040C6
:1018500093870704930570052380B700130680FA69
:101860002380C70001000100371700408346A7000E
:1018700093E606012305D700372700408546A303DA
:10188000D7808346578093E60601A302D780238042
:101890000700010001002380B7002380C70001007A
:1018A0000100371700409306A0042304D7002380CB
:1018B000070001000100B70700E023A20734130767
:1018C000000823A0E73482805D7122DE37C4004027
:1018D0001304042026DC3AD204443ED058441C446D
:1018E0002ADA86C696C49AC29EC02ED832D636D47C
:1018F00042CE46CC72CA76C87AC67EC4F98F37C744
:1019000000401CC4130707105C5B01458588F19BF0
:1019100093E717005CDBEFF04FAD3C4893F7F78F90
:101920003CC81C4093E787001CC08DCC97E0FF1F8C
:10193000E780807005C99387416AC04305C497E07A
:10194000FF1FE780E06DB717002003C60747AA8690
:10195000B71500203715002011069385A5471305FC
:10196000254702947254B640A64216438643E25479
:101970005255C2553256A256125782577248E24803
:10198000524EC24E324FA24F6161730020305571EA
:1019900086C7CAC152DD32892A8A56DB5AD962D536
:1019A00066D3A2C5A6C34EDF5ED7793CB7F700E089
:1019B00090478D659385C5C30810A13C09460C105E
:1019C0000145EFF0CFC58326C90003268A008D6547
:1019D000938545C40810353C09460C106145EFF06D
:1019E0000FC4130B0002054C930AA005930C0008CA
:1019F0000324090081492580B304804033048C40CE
:101A00000604B30B9B409385A90505465E852EC44D
:101A1000EFF0EF99A24533059B0005462AC6EFF08B
:101A20000F993245B3853A4105462EC4EFF02F9801
:101A3000A24505465E85EFF08F9763C98902850947
:101A400093971900850733079040A2976395E900A3
:101A500063C58400014463D984008504139714008E
:101A60000507BA97638684013E8461BFA287E5B704
:101A7000130B0B021109E31D9BF701449304000DA6
:101A80002949EFF0EFB2B3759502938585FD2EC419
:101A9000EFF00FB23376950293771400A2451385C9
:101AA0008148130686FD99C31385C1580504EFF0DC
:101AB000AFA2E31824FDEFF0CFDC83478A00B9EF33
:101AC0008567B7F5030089071946E105130521016C
:101AD0002318F10061398D65FD5719469385C5C4FA
:101AE0001305A101231CF100513103C44169414692
:101AF00037C5898EB305C100130565ED0547A2867C
:101B000097E0FF1FE780405537C5898E0546A285BF
:101B1000130565ED97E0FF1FE7808067BE402E4408
:101B20009E440E49FA596A5ADA5A4A5BBA5B2A5CF1
:101B30009A5C696182800111060522CC26CA4AC8D6
:101B40004EC652C456C206CE5AC02E84B289368AB8
:101B500001499374F50F8D6A97E0FF1FE780607F5E
:101B6000268597F0FF1FE780808D05C54A86D285C0
:101B700013854AC5EFF0DF830509E31F39FDF24005
:101B80006244D2444249B249224A924A024B056118
:101B9000828003450400130B240097F0FF1FE780A9
:101BA000008A034514005A8497F0FF1FE7802089BC
:101BB00097F0FF1FE780A080C1B7757106C722C5E7
:101BC00026C34AC1CEDED2DCDAD8DED6E2D4D6DAFB
:101BD000E6D2EAD0EECE9D39056513050580B7142F
:101BE0000040856B9384C40AEFF00FD1938B0B8078
:101BF00023A0740113050004EFF00FD0130A0004B2
:101C000037190040232C490B4145EFF0EFCE414CF2
:101C1000130B00401305004023A08401EFF0CFCD4B
:101C200023A0640197E0FF1FE7802071E17793090B
:101C3000C1018D6693872711938606C70546CE8519
:101C40001305C007231EF100FD35B7870B002010D8
:101C50008D66AD07938606C80946A2851305C007A1
:101C60003ED4D13D8D668D65938606C93D469385EC
:101C700005511305A006C1358D660946938501C13E
:101C8000938686C91305C0077D3523A0740123A060
:101C900064013725090023A044011305057CEFE00A
:101CA000FFE65285232C490BEFF00FC56285EFF05C
:101CB000AFC45A85EFF04FC413050008EFF0CFC34F
:101CC00013050002EFF04FC3232C490B232C890B83
:101CD00023A06401B74700409546A381D7008946F9
:101CE0002380D700130740062380E70003C70700BF
:101CF000372509001305057C136787002380E7005B
:101D0000A380D70023A04401EFE05FE08D64232C83
:101D1000490BEFF06FF3938404531309F00F03C5DD
:101D200004006316254DEFF0CFB5EFF0EFF113058A
:101D3000500DEFF08FB31305000EEFF00FB3130546
:101D4000800CEFF08FB21305100AEFF00FB2B72737
:101D500000408946370700042380D7407D1723A61B
:101D6000E740130750FC2380E7402381D740B71793
:101D7000004003D7A70137E900E013670704239D5C
:101D8000E700B70700012320F910F327003093E79D
:101D90008708739007301145EFF00FB63947238A53
:101DA000E168B7C70040938707201307C008D8CB66
:101DB00093066007D4CFD8D3D8DBF8C3F4C7130792
:101DC000C006D8D7D8DF13078007D8C33707160057
:101DD00023AA07043D07D8C7371700201307074772
:101DE000F8DF7D57B7D4004098C7930700489CD4CC
:101DF0009C583707FAFF7D17F98F9CD89C583707F6
:101E00000070B7060002D98F9CD8DC5C370700F958
:101E10007D17F98FD58FDCDCDC5C37070040FD16C1
:101E20008E078D83D98FDCDCBC443707F9FF7D1723
:101E3000F98FBCC4BC4837070700D14C93F7F78F24
:101E400093E70730BCC8FC4C13058055D98FFCCCF8
:101E5000FC4C37077000D98FFCCC37070200B7C79E
:101E60000040938707101307C72098DF130700056A
:101E7000D8DFD85B758FB70600DA558FD8DB98436B
:101E80001377F7CF98C3A3099905EFE01FD6DC407D
:101E90007D777D1793F7F7EFDCC09C541305500254
:101EA000F98F9CD4DC5437070200BD9BDCD49C44E2
:101EB000D98F9CC4DC4093E70701DCC0EFE0DFD79B
:101EC000AA84935B850113057002EFE0FFD62A8A8E
:101ED000135C85014945EFE03FD69377F50F130674
:101EE00080022A89135B850193F4F40F137AFA0FA9
:101EF000814522859D8C338A4741EFF0CFD3B3864D
:101F0000940381476686B305F400850733D79603AB
:101F1000858E6207618713154700498F2380E5008E
:101F2000E393C7FE814651481306800233D7060368
:101F3000B305F4008507D296620761871315470041
:101F4000498F2380E500E393C7FEA286014737D57A
:101F5000004029468C42930787028A07AA978CC3C0
:101F600005079106E318C7FE33866B419546B30615
:101F7000D602330B8B4102CE02D002D2854799455F
:101F80003385F900850733D7B602918E62076187E2
:101F900013184700336707012300E500E392B7FEFB
:101FA000814619482D4633D70603B385F9008507C6
:101FB000DA966207618713154700498F2380E50091
:101FC000E393C7FEF246B7D700401387070834C72C
:101FD0008256056674C7925634CBD8439376F9037C
:101FE0003D9BD8C3D843799BD8C39857518F98D776
:101FF000D85713670701D8D7985F137707FC558F19
:1020000098DF985FB7060081FD16758FB706007FD1
:102010003379D9003367270198DFD843C176FD169D
:1020200013670710D8C3B84B758FB8CB9847B7065E
:102030002000558F98C7D8479306400613670701BD
:10204000D8C7D843518FD8C337C7004013070720DC
:1020500074D3745391C683A6C70993F60610F5FA94
:10206000B7D7004013870708584F41667D8B23AED2
:10207000E168B84B518FB8CBB84B03A6C169019B3F
:10208000518FB8CB98473706E0FF7D16718F98C700
:1020900003A7C1697946FD4709076365E60083A781
:1020A000C169890723A0F16AB7D70040B84FC1764C
:1020B000FD16758FB8CF9847C1660145558F98C7F3
:1020C000D847B706EFFFFD1613670710D8C7D843E8
:1020D000938B416A758FB7061000558FD8C3EFE018
:1020E000DFB0B7E700E003C7574137C5898E054623
:1020F00013670708A38AE7403707200023A0E710EB
:10210000B945130565ED97E0FF1FE780600823A43C
:10211000016A85671387416A9387675F1CC3854798
:102120001CC702C4214C930C0010130D00203EC6A6
:10213000894D370BFF4F37BAAAAAA2898144130AE7
:10214000AAAA2145EFE0BFCA13050010EFE03FCA7D
:1021500013050020EFE0BFC9B247638EF408638522
:10216000B40B89E813050010EFE01FF9B717004022
:1021700023AC870B83270B006390470B93972400B6
:10218000DA97DC4323A0F900850491479109E39A8B
:10219000F4FAA2548567938787383257B3B497000F
:1021A00085679387873863F4E70093E424004257F8
:1021B00063F4E70093E44400B7F700E083A98700E5
:1021C00093070003B3895941B3D9F90283A70B00E0
:1021D00081CB2247A6862286CE851385416A8297C7
:1021E0009307000326C4B389F902CE9AA9B78504E0
:1021F000EFE0BFE72DB613050020EFE0FFEFB717C4
:10220000004023AC970BBDB72145EFE0FFEEB717B9
:10221000004023ACA70BB9BF23AC016897E0FF1FB8
:10222000E78040DE8567938707FA83A6816999E294
:10223000FD17E5FF03A78169B7E73400938787F2AD
:102240007917B3D7E702938797062DBF411106C6CA
:1022500097E0FF1FE780605B014863C8050E63DB02
:102260000600B337C000B306D0401348F8FF9D8E78
:102270003306C040B288AA872E83F9E263F1C51203
:102280004167636CE61A37070001E1466373E600B5
:10229000C146335ED600171700001307672F7297E9
:1022A00003470700130E00023697B306EE40630C97
:1022B000EE003393D5003357E50033636700B3185E
:1022C000D600B317D50013D608013355C302939631
:1022D0000801C18213D707013373C302B385A60275
:1022E000420333676700637AB70046971303F5FF2D
:1022F00063641701636CB7321A850D8FB355C7023B
:10230000C207C1833377C702B386B6024207D98FAB
:1023100063FBD700C6971387F5FF63E51701F9152F
:1023200063E3D700BA8542054D8D814563090800F6
:10233000B337A000B305B0409D8D3305A040828027
:1023400063FED50081450145D5B7B337A000B3057D
:10235000B0409D8D3305A0407D5811B7C16763E63D
:10236000F61837070001E14763F3E600C147B3D829
:10237000F600171700001307A72146970347070029
:10238000130300023E97B308E3406315E31863E1CB
:10239000B6283335C50013351500814541BF45C604
:1023A0004167637FE6249336061093B616008E06C7
:1023B0003353D600171700001307871D1A970347DA
:1023C0000700130300023697330FE340631DE30851
:1023D0003387C54013530601420641828545335574
:1023E000670293D6070133776702330EC5024207AF
:1023F000558F637AC70146979306F5FF636417010B
:102400006363C72336853307C741B3566702C207E4
:10241000C183337767023386C6024207D98F63FBD5
:10242000C700C6971387F6FF63E51701F91663E344
:10243000C700BA864205558DD5BD9336061093B6B2
:1024400016008E06B9B5014317170000130747148D
:102450001A97034707008146130300023697330F8C
:10246000E340E307E3F6B318E60133DEE50013D3F8
:102470000801B35E6E0213960801B395E50141822F
:102480003357E5004D8F93560701B317E501337EAF
:102490006E02B305D603420EB3E6C60163FBB60077
:1024A000C6961385FEFF63EC161763FAB616F91E7F
:1024B000C6968D8E33D5660242074183B3F6660217
:1024C000330EA602C206558F637BC701469793065B
:1024D000F5FF636217156370C715791546979395D5
:1024E0000E01C98D3307C741DDBD93B7061093B701
:1024F00017008E07B3D8F600171700001307470917
:10250000469703470700130300023E97B308E340D2
:10251000E30FE3E6B35EE600B3961601B3EEDE002A
:1025200033D3E50013DF0E01B357E303139E0E010F
:10253000B3951501135E0E013357E5004D8F935689
:102540000701331616013373E303B305FE0242039A
:10255000B3E6660063FBB600F6961383F7FF63E20B
:10256000D60D63F0B60CF917F6968D8E33D3E603CD
:1025700042074183B3F6E603B3056E02C206558FE8
:10258000637BB70076979306F3FF6368D70963769A
:10259000B70879137697C20793160301131E060135
:1025A000B3E76700C182135E0E0113D307014182B6
:1025B000B30EC3030D8F338EC603B386C602935585
:1025C0000E01F696AE963303C30263F4D60141665C
:1025D000329313D606011A966360C7026305C700DB
:1025E0003E858145A1B3420E135E0E01C20633152E
:1025F0001501F296E376D5FE1385F7FF81453DB3CD
:10260000370700016377E60213530601C1465DB345
:102610008145054521BB3685D9B53683ADBFAA8E28
:1026200049BD9A8799B779154697F1BB79154697B1
:10263000E9B113538601E146B5BB014763C50512F5
:1026400063D90600B337C000B306D0409D8E330671
:10265000C04032882A832E8ED5EE63FFC510C16735
:10266000636EF618B7070001E1466373F600C146D2
:10267000B358D60097170000938787F1C69783C792
:102680000700930E0002B697B388FE40638CFE00ED
:10269000339E1501B357F50033EEC7013318160109
:1026A0003313150113560801B356CE0293150801D2
:1026B000C18193570301337ECE02B386B602420E28
:1026C000B3E7C70163F7D700C29763E4070163EF7D
:1026D000D730958FB3D6C702131503014181B3F7E5
:1026E000C702B386B602C2075D8D6378D5004295F6
:1026F000636505016373D5004295158D335515014A
:10270000814501CBB337A000B305B0409D8D3305A3
:10271000A0408280E3E7D5FEC16763EFF616370875
:102720000001E14763F30601C147B3D8F60017186B
:1027300000001308E8E5469803480800130E00025D
:102740003E98B3080E41631E0E1763E4B600636A39
:10275000C5003303C54033356500B386D540B38526
:10276000A6401A8579BFB337A000B305B0409D8D50
:102770003305A0407D57E9B541CAC167637CF624A3
:102780009336061093B616008E06B358D6009717E8
:1027900000009387E7DFC69783C70700130E000288
:1027A000B697B308FE406311FE08B386C540135EBA
:1027B000060142064182B3D5C60393570301B3F61F
:1027C000C603B385C502C206D58F63F8B700C297AA
:1027D00063E5070163F3B700C2978D8FB3D6C703D4
:1027E000420313530301B3F7C703B386C60213951D
:1027F00007013365A300E372D5F0D5BD933606100B
:1028000093B616008E06ADB58148971700009387E2
:1028100027D8C69783C707008146130E0002B697D4
:10282000B308FE40E303FEF833181601B3DEF500EB
:10283000135E080133DFCE0313160801B3951501AB
:10284000B356F5004182CD8E93D70601331315019F
:10285000B3FECE03B305CF02C20EB3E7D70163F8D0
:10286000B700C29763E5070163F3B700C2978D8F86
:10287000B3D5C703C206C182B3F7C703B385C50288
:10288000C207DD8E63F8B600C29663E5060163F306
:10289000B600C2968D8E05B793B7061093B7170092
:1028A0008E07B3D8F60017180000130868CE4698B4
:1028B00003480800130E00023E98B3080E41E306D9
:1028C0000EE9B3961601335306013363D30033DEAA
:1028D0000501935E0301B356DE03131F0301135F6B
:1028E0000F01B3570501B3951501DD8D93D7050190
:1028F0003316160133151501337EDE03B30FDF02E5
:10290000420EB3E7C70163FBF7019A97138EF6FFF8
:1029100063EC670C63FAF70DF9169A97B387F741E2
:10292000B3DFD703C205C181B3F7D703330FFF036A
:10293000C207CD8F63FBE7019A979385FFFF63E39F
:10294000670A63F1E70BF91F9A97C206939E0F017E
:10295000B3E6F601131E060193DE0E01135E0E01AF
:10296000C182935F0601B382C603B385E741338E0C
:10297000CE03B38EFE0393570E01969EF697B38651
:10298000F60363F45700C16EF69693DE0701420E1C
:10299000135E0E01C207F696F29763E5D5026381D6
:1029A000D502B307F5403335F500958D898D339801
:1029B000050133D51701B3D515013365A80091B3CF
:1029C000E371F5FE3386C740B3B7C7009A979D8E73
:1029D000B287C1BFB7070001637CF60093580601B8
:1029E000C14675B3AE8F95B7F2860DBFC297D5B10C
:1029F00093588601E14661BB935675013707800005
:102A0000AA877D1713D5750193F6F60F1306F00FFD
:102A10003378F7001375F50F6D8FFD83FD816388A3
:102A2000C602630BC5008DEE11E921CB63100806C9
:102A3000139515007D15828021EB99E2E30A08FECB
:102A40006380B704B307F04013E517008280631D6D
:102A50000802E319D5FE0DEBE396B7FE014582802F
:102A600075D1E391B7FEE34FD5FC63CBA600E36BD2
:102A700007FD01456366E8008280E31508FC82805B
:102A8000139517007D15828079558280E39CB7FAF3
:102A9000F9BF411106C622C426C215CD1357F54110
:102AA0003344A700198CAA87228593D4F7017D2887
:102AB0009307E009B386A7409307600963CAD7026A
:102AC00021476302E50A61153314A400260425801A
:102AD00093F7F60F21A0814481470144DE07B240FD
:102AE000C18F22441395F4015D8D9244410182808F
:102AF000130790096340D7049307B5FF3314F4001C
:102B0000B70700FCFD1713777400E18F31C73D88CC
:102B100011476303E40491071397570013D4370058
:102B2000635E07029307F0092604898F258093F7D7
:102B3000F70F6DB79307B5011547B317F400098F69
:102B4000B337F0003354E4005D8CB70700FCFD1789
:102B500013777400E18F45FF13D4370026042580D6
:102B600093F7F60FA5BF260425808DBFC167637656
:102B7000F5029337051093B717008E07130700026D
:102B80001D8F3355F50097170000938767A0AA970C
:102B900003C507003305A7408280B70700016370B3
:102BA000F5024147BA873355F50097170000938720
:102BB000279EAA9703C507003305A7408280E147F7
:102BC0003355F500971700009387879CAA9703C594
:102BD000070021473305A7408280000050726573CB
:102BE00073205220666F7220610000004E657720CE
:102BF00047616D650000000047616D65204F766597
:102C00007221000025632573000000002530327812
:102C10003A253032783A253032783A253032783ACF
:102C2000253032783A253032783A253364202564CD
:102C30003A00000025303278200000002530387836
:102C4000000000002533642025640000AABBCCDD11
:102C5000EEFF000025732043616E6E6F7420436F9A
:102C60006E66696775726520402025640A00000061
:102C70004C534D36445333205245534554000000C5
:102C8000514D4336333039205245534554000000EE
:102C90004C534D3644533300514D43363330390095
:102CA00046756C6C2053573A20253036780A000060
:102CB0004C534D36445333204F766572666C6F77B4
:102CC00000000000253036782000000025303478E0
:102CD00020000000436F6E667573696E6720746133
:102CE000673A2025640A00004D656E7500000000FB
:102CF0004578616D706C6500546573740000000068
:102D00005061737320746865205075666665720043
:102D100000000000000000007E81A581BD99817E39
:102D20007EFFDBFFC3E7FF7E6CFEFEFE7C381000FB
:102D300010387CFE7C381000387C38FEFED6103807
:102D400010387CFEFE7C10380000183C3C18000057
:102D5000FFFFE7C3C3E7FFFF003C664242663C005B
:102D6000FFC399BDBD99C3FF0F070F7DCCCCCC78B5
:102D70003C6666663C187E183F333F303070F0E0AA
:102D80007F637F636367E6C018DB3CE7E73CDB18E3
:102D900080E0F8FEF8E08000020E3EFE3E0E0200EB
:102DA000183C7E18187E3C186666666666006600EB
:102DB0007FDBDB7B1B1B1B003E613C66663C867C2D
:102DC000000000007E7E7E00183C7E187E3C18FFCE
:102DD000183C7E1818181800181818187E3C18008F
:102DE00000180CFE0C180000003060FE603000007F
:102DF0000000C0C0C0FE0000002466FF6624000082
:102E000000183C7EFFFF000000FFFF7E3C18000022
:102E10000000000000000000183C3C1818001800DA
:102E200066662400000000006C6CFE6CFE6C6C009A
:102E3000183E603C067C180000C6CC183066C60000
:102E4000386C3876DCCC76001818300000000000B2
:102E50000C18303030180C0030180C0C0C183000E6
:102E600000663CFF3C6600000018187E1818000041
:102E700000000000001818300000007E0000000074
:102E80000000000000181800060C183060C0800018
:102E9000386CC6D6C66C38001838181818187E005A
:102EA0007CC6061C3066FE007CC6063C06C67C005E
:102EB0001C3C6CCCFE0C1E00FEC0C0FC06C67C0098
:102EC0003860C0FCC6C67C00FEC60C18303030002E
:102ED0007CC6C67CC6C67C007CC6C67E060C780056
:102EE00000181800001818000018180000181830F2
:102EF000060C1830180C060000007E00007E000052
:102F00006030180C183060007CC60C1818001800CF
:102F10007CC6DEDEDEC07800386CC6FEC6C6C600E3
:102F2000FC66667C6666FC003C66C0C0C0663C0011
:102F3000F86C6666666CF800FE6268786862FE008F
:102F4000FE6268786860F0003C66C0C0CE663A00F9
:102F5000C6C6C6FEC6C6C6003C18181818183C00DF
:102F60001E0C0C0CCCCC7800E6666C786C66E60027
:102F7000F06060606266FE00C6EEFEFED6C6C60069
:102F8000C6E6F6DECEC6C6007CC6C6C6C6C67C0091
:102F9000FC66667C6060F0007CC6C6C6C6CE7C0E51
:102FA000FC66667C6C66E6003C6630180C663C008D
:102FB0007E7E5A1818183C00C6C6C6C6C6C67C0017
:102FC000C6C6C6C6C66C3800C6C6C6D6D6FE6C0017
:102FD000C6C66C386CC6C6006666663C18183C00EF
:102FE000FEC68C183266FE003C30303030303C007B
:102FF000C06030180C0602003C0C0C0C0C0C3C00A1
:1030000010386CC60000000000000000000000FF47
:1030100030180C00000000000000780C7CCC76001A
:10302000E0607C666666DC0000007CC6C0C67C0092
:103030001C0C7CCCCCCC760000007CC6FEC07C0096
:103040003C6660F86060F000000076CCCC7C0CF848
:10305000E0606C766666E6001800381818183C00C8
:10306000060006060666663CE060666C786CE60064
:103070003818181818183C000000ECFED6D6D600F8
:103080000000DC666666660000007CC6C6C67C0082
:103090000000DC66667C60F0000076CCCC7C0C1E08
:1030A0000000DC766060F00000007EC07C06FC0062
:1030B0003030FC3030361C000000CCCCCCCC76005C
:1030C0000000C6C6C66C38000000C6D6D6FE6C002E
:1030D0000000C66C386CC6000000C6C6C67E06FC82
:1030E00000007E4C18327E000E18187018180E0062
:1030F00018181818181818007018180E18187000DA
:1031000076DC0000000000000010386CC6C6FE002F
:103110007CC6C0C0C67C0C78CC00CCCCCCCC7600B5
:103120000C187CC6FEC07C007C82780C7CCC7600BF
:10313000C600780C7CCC76003018780C7CCC7600FD
:103140003030780C7CCC760000007EC0C07E0C381D
:103150007C827CC6FEC07C00C6007CC6FEC07C00B3
:1031600030187CC6FEC07C006600381818183C0079
:103170007C82381818183C003018003818183C00A9
:10318000C6386CC6FEC6C600386C7CC6FEC6C60015
:103190001830FEC0F8C0FE0000007E187ED87E0009
:1031A0003E6CCCFECCCCCE007C827CC6C6C67C00FD
:1031B000C6007CC6C6C67C0030187CC6C6C67C006D
:1031C000788400CCCCCC76006030CCCCCCCC7600F3
:1031D000C600C6C6C67E06FCC6386CC6C66C3800BD
:1031E000C600C6C6C6C67C0018187EC0C07E1818A9
:1031F000386C64F06066FC0066663C7E187E1818C9
:10320000F8CCCCFAC6CFC6C70E1B183C18D8700035
:103210001830780C7CCC76000C18003818183C005C
:103220000C187CC6C6C67C001830CCCCCCCC760042
:1032300076DC00DC6666660076DC00E6F6DECE0054
:103240003C6C6C3E007E0000386C6C38007C0000EA
:103250001800181830633E00000000FEC0C00000D7
:10326000000000FE0606000063E66C7E3366CC0FAD
:1032700063E66C7A366ADF06180018183C3C1800C2
:10328000003366CC6633000000CC663366CC0000A9
:10329000228822882288228855AA55AA55AA55AA8A
:1032A00077DD77DD77DD77DD18181818181818180E
:1032B00018181818F81818181818F818F8181818EE
:1032C00036363636F636363600000000FE363636EE
:1032D0000000F818F81818183636F606F63636369E
:1032E00036363636363636360000FE06F636363692
:1032F0003636F606FE00000036363636FE00000092
:103300001818F818F800000000000000F818181845
:10331000181818181F00000018181818FF000000CF
:1033200000000000FF181818181818181F1818188F
:1033300000000000FF00000018181818FF181818E7
:1033400018181F181F1818183636363637363636FE
:10335000363637303F00000000003F303736363613
:103360003636F700FF0000000000FF00F736363663
:1033700036363730373636360000FF00FF000000A3
:103380003636F700F73636361818FF00FF00000013
:1033900036363636FF0000000000FF00FF18181810
:1033A00000000000FF363636363636363F00000065
:1033B00018181F181F00000000001F181F181818E9
:1033C000000000003F36363636363636FF363636A3
:1033D0001818FF18FF18181818181818F800000007
:1033E000000000001F181818FFFFFFFFFFFFFFFF7E
:1033F00000000000FFFFFFFFF0F0F0F0F0F0F0F051
:103400000F0F0F0F0F0F0F0FFFFFFFFF0000000048
:10341000000076DCC8DC760078CCCCD8CCC6CC00FA
:10342000FEC6C0C0C0C0C0000000FE6C6C6C6C006A
:10343000FEC6603060C6FE0000007ED8D8D870009E
:103440000000666666667CC00076DC1818181800F6
:103450007E183C66663C187E386CC6FEC66C38002A
:10346000386CC6C66C6CEE000E180C3E66663C00EE
:1034700000007EDBDB7E0000060C7EDBDB7E60C0B6
:103480001E30607E60301E00007CC6C6C6C6C60008
:1034900000FE00FE00FE000018187E1818007E00D6
:1034A00030180C1830007E000C1830180C007E000C
:1034B0000E1B1B18181818181818181818D8D870B8
:1034C0000018007E001800000076DC0076DC0000AA
:1034D000386C6C3800000000000000181800000074
:1034E00000000018000000000F0C0C0CEC6C3C1CE1
:1034F0006C36363636000000780C18307C00000040
:1035000000003C3C3C3C00000000000000000000CB
:103510001244105A115D0A2806600700080909AA1A
:103520000A010B600D0013001510160013010000B6
:10353000AE0010B0DC00816F21A4A87FD300D5F0CD
:10354000D91DDB3540AD80A001D90681FEDBFEA888
:103550007FAFFF00E82C0000F02C0000F82C0000EA
:10356000002D00000102030405060708090A0C0DDE
:103570000E0F101112131415161718191A1B1C1DF3
:103580001E1F20212223242526000B2700010202D2
:1035900003030303040404040404040405050505EB
:1035A00005050505050505050505050506060606C7
:1035B00006060606060606060606060606060606AB
:1035C0000606060606060606060606060707070797
:1035D000070707070707070707070707070707077B
:1035E000070707070707070707070707070707076B
:1035F000070707070707070707070707070707075B
:103600000707070707070707070707070808080846
:10361000080808080808080808080808080808082A
:10362000080808080808080808080808080808081A
:10363000080808080808080808080808080808080A
:1036400008080808080808080808080808080808FA
:1036500008080808080808080808080808080808EA
:1036600008080808080808080808080808080808DA
:1036700008080808080808080808080808080808CA
:0C368000080808080808080808080808DE
:10368C002FA37A74000000006666663F0B480A1987
:10369C0006005A00000000000000000000000000BE
:1036AC00000000000000000000000000000000000E
:1036BC0000000000000000000000000000000000FE
:1036CC0000000000000000000000000000000000EE
:1036DC0000000000000000000000000000000000DE
:1036EC0000000000000000000000000000000000CE
:1036FC0000000000000000000000000000000000BE
:10370C0000000000000000000000000000000000AD
:10371C00000000000000000000000000000000009D
:10372C00000000000000000000000000000000008D
:10373C00000000000000000000000000000000007D
:10374C00000000000000000000000000000000006D
:10375C00000000000000000000000000000000005D
:10376C00000000000000000000000000000000004D
:10377C00000000000000000000000000000000003D
:10378C00000000000000000000000000000000002D
:10379C00000000000000000000000000000000001D
:1037AC00000000000000000000000000000000000D
:1037BC0000000000000000000000000000000000FD
:1037CC0000000000000000000000000000000000ED
:1037DC0000000000000000000000000000000000DD
:1037EC0000000000000000000000000000000000CD
:1037FC0000000000000000000000000000000000BD
:10380C0000000000000000000000000000000000AC
:10381C00000000000000000000000000000000009C
:10382C00000000000000000000000000000000008C
:10383C00000000000000000000000000000000007C
:10384C00000000000000000000000000000000006C
:10385C00000000000000000000000000000000005C
:10386C0000000000104010400000000000000000AC
:10387C0000000000000000000000000028A028A0AC
:10388C00000000000000000000000000000000002C
:10389C0000000000EE9FEE9F000000000000000002
:1038AC00000000000000000000C000C04570457022
:1038BC0001000100000000000000000000000000FA
:1038CC000038003882808280030003000000000072
:1038DC000000000000000000C006C006820082004C
:1038EC000E000E00000000000000000000000000B0
:1038FC002001200100000000340034000000000012
:10390C00000000000000000020002000000000006B
:10391C004A004A0000000000000000000000000007
:10392C002000200000000000890089000000000039
:10393C000000000000000000300030000180018019
:10394C001001100100000000000000000000000049
:10395C000880088002000200100210020000000023
:10396C00000000000000000004800480040004003B
:10397C0020042004000000000000000000000000F3
:10398C000340034008000800200820080000000045
:10399C000000000000C000C0024002400000000017
:1039AC0000080008000000000000000000200020BB
:1039BC000140014000000000007000700000000099
:1039CC000000000000400040010001000000000069
:1039DC0000900090000000000000000000800080BB
:1039EC00000000000000000000A000A0C001C00109
:1039FC00000000000080008080008000100010009B
:103A0C000060006020022002000000000040004026
:103A1C000001000108400840004000409004900460
:103A2C0000000000004000400002000204A004A0BE
:103A3C000040004090049004000000000040004052
:103A4C0030043004C220C22000800080480848089E
:103A5C000000000000C000C0C107C1073E103E10AE
:103A6C003E603E60470847080000000000600060B0
:103A7C00060006000090009043984398220422040C
:103A8C00000000000060006018001800008000803A
:103A9C008084808494049404000000000060006022
:103AAC0000FC00FC07400740984098408C028C02B8
:103ABC000000000000A000A0000200020820082066
:103ACC0086408640480248020000000000A000A08A
:103ADC0000010001102010208120812038013801C4
:103AEC00000000000020002080008000208020804A
:103AFC0040004000080108010000000000200020E8
:103B0C0080F880F820402040280028003802380235
:103B1C00000000000020002080FC80FC210021001F
:103B2C002600260044024402000000000020002071
:103B3C0080F880F820802080210021009C049C04C7
:103B4C000000000000400040F000F000E007E0073B
:103B5C0040F040F02304230400000000004000402B
:103B6C00FC01FC01F00FF00F86FC86FC47084708AF
:103B7C000000000000C000C0FF03FF03F89FF89F87
:103B8C0088FE88FE880888080000000000C000C07D
:103B9C00FFFFFFFFFF7FFF7F917E917E90049004DB
:103BAC000000000000800080FFFFFFFFFFFFFFFF11
:103BBC00423F423F100410040000000000800080CF
:103BCC00FFFFFFFFFFFFFFFFBD3FBD3F20022002B5
:103BDC000000000000000000FFFFFFFFFFFFFFFFE1
:103BEC00C31FC31FC001C001000000000000000083
:103BFC00FFFFFFFFFFFFFFFFFF1FFF1F0000000085
:103C0C000000000000000000FEFFFEFFFFFFFFFFB2
:103C1C00FF0FFF0F0000000000000000000000007C
:103C2C00FEFFFEFFFFFFFFFFFF07FF070000000086
:103C3C000000000000000000F4FFF4FFFFFFFFFF96
:103C4C00FF03FF0300000000000000000000000064
:103C5C00F0FFF0FFFFFFFFFF7F017F01000000007E
:103C6C000000000000000000F0FEF0FEFFFFFFFF70
:103C7C007F007F000000000000000000000000003A
:103C8C0070FF70FFFFFFFFFF7D007D000000000054
:103C9C00000000000000000090FF90FFFFFFFFFFFE
:103CAC007300730000000000000000000000000022
:103CBC0080FF80FFFEFFFEFF0F000F0000000000E2
:103CCC00000000000000000000FE00FEFEFFFEFFF2
:103CDC0007000700000000000000000000000000CA
:103CEC0000F800F87DFF7DFF0300030000000000DA
:103CFC00000000000000000000C000C07D7F7D7F40
:103D0C0000000000000000000000000000000000A7
:103D1C0000000000780F780F000000000000000089
:103D2C0000000000000000000000000070007000A7
:103D3C000000000000000000000000000000000077
:103D4C000000000020002000000000000000000027
:103D5C000000000000000000000000000000000057
:103D6C000000000000000000000000000000000047
:103D7C000000000000000000000000000000000037
:103D8C000000000000000000000000000000000027
:103D9C000000000000000000000000000000000017
:103DAC000000000000000000000000000000000007
:103DBC0000000000000000000000000000000000F7
:103DCC0000000000000000000000000000000000E7
:103DDC0000000000000000000000000000000000D7
:103DEC0000000000000000000000000000000000C7
:103DFC0000000000000000000000000000000000B7
:103E0C0000000000000000000000000000000000A6
:103E1C000000000000000000000000000000000096
:103E2C000000000000000000000000000000000086
:103E3C000000000000000000000000000000000076
:103E4C000000000000000000000000000000000066
:103E5C000000000000000000000000000000000056
:103E6C000000000000000000000000000000000046
:103E7C000000000000000000000000000000000036
:103E8C000000000000000000000000000000000026
:103E9C000000000000000000000000000000000016
:103EAC000000000000000000000000000000000006
:103EBC0000000000000000000000000000000000F6
:103ECC0000000000000000000000000000000000E6
:103EDC0000000000000000000000000000000000D6
:103EEC0000000000000000000000000000000000C6
:103EFC0000000000000000000000000000000000B6
:103F0C00000000000200200000F800F83F003F0015
:103F1C0000FE000EFF00E00080FF8003FF03800323
:103F2C00C0FFC000FF070006E0FF6000FF0F080C99
:103F3C00F0FF3000FF1F1C18F8FF1800FF3F3E3049
:103F4C00F8FF0800FF3F7F20FCFF0C00FF7FFE60A6
:103F5C00FCFF0400FF7FFC41FEFF0600FFFFF8C3DF
:103F6C00FEFF0200FFFFF087FEFF0200FFFFE08371
:103F7C00FEFF0200FFFFC081FEFF0200FFFF8080FA
:103F8C00FEFF0200FFFF0080FEFF0200FFFF00802B
:103F9C00FEFF0200FFFF0080FEFF0200FFFF00801B
:103FAC00FEFF0200FFFF0080FEFF0600FFFF00C0C7
:103FBC00FCFF0400FF7F0040FCFF0C00FF7F006053
:103FCC00F8FF0800FF3F0020F8FF1800FF3F00300B
:103FDC00F0FF3000FF1F0018E0FF6000FF0F000C27
:103FEC00C0FFC000FF07000680FF8003FF038003B3
:103FFC0000FE000EFF00E00000F800F83F003F005C
:10400C0000000000000000000200200000FC00FC8A
:10401C001F001F0000FF00077F007000C0FFC001E1
:10402C00FF01C001E0FF6000FF030003F0FF301050
:10403C00FF070006F8FF1838FF0F000CFCFF0C7C84
:10404C00FF1F0018FCFF04FEFF1F0010FEFF067F81
:10405C00FF3F0030FEFF823FFF3F0020FFFFC31FEA
:10406C00FF7F0060FFFFE10FFF7F0040FFFFC107F4
:10407C00FF7F0040FFFF8103FF7F0040FFFF010136
:10408C00FF7F0040FFFF0100FF7F0040FFFF0100AA
:10409C00FF7F0040FFFF0100FF7F0040FFFF01009A
:1040AC00FF7F0040FFFF0100FF7F0040FFFF030088
:1040BC00FF7F0060FEFF0200FF3F0020FEFF0600B6
:1040CC00FF3F0030FCFF0400FF1F0010FCFF0C0042
:1040DC00FF1F0018F8FF1800FF0F000CF0FF300056
:1040EC00FF070006E0FF6000FF030003C0FFC001F4
:1040FC00FF01C00100FF00077F00700000FC00FC06
:0C410C001F001F00000000000000000069
:00000001FF
