:100000006F00902C000000007C0B00007C0B0000B7
:10001000A9BDF9F37C0B0000000000000000000007
:100020007C0B00007C0B00000000000000000000C2
:100030007C0B0000000000007C0B000000000000B2
:100040007C0B00007C0B00007C0B00007C0B000094
:100050007C0B0000E21100007C0B0000000000009F
:10006000C00200207C0B00007C0B00007C0B000019
:100070007C0B00007C0B00007C0B00007C0B000064
:100080007C0B00007C0B00007C0B00007C0B000054
:10009000B717002083C717DC37170020130747DC8A
:1000A000BA97038507008280B717002083C717DC43
:1000B00037170020130757DCBA9703C507001181D3
:1000C0000589134515008280011126CAB7C4004076
:1000D00093840410DC5806CE22CCF19B93E71700E2
:1000E0004AC84EC652C4AA89DCD836852E8A3A84BC
:1000F0003289E700405913058025E700804CB75747
:10010000550023A6340193875755DCC023A034073C
:10011000BCCC9C44B70600FF370780001307D732DA
:10012000F58FD98F9CC4FC4CF58FD98FFCCCB7C709
:1001300000409387072023AC470785679387A7BBB9
:1001400037D7004034571396760063440600FD17F6
:10015000F5FBB7C700400947938707106316E4080B
:1001600098431377F7CFB7C700409387071098C31A
:10017000D8537914B70600FAFD1633348000758F12
:100180006604598CC0D337C40040130404201848B7
:100190008176FD16758F18C83707020018C4260926
:1001A000232224079843B7060001558F98C3D85BD4
:1001B000719BD8DB89471CC07C50FDFF0145E700DF
:1001C000804C1C408D8B89CB3C4893F7F78F3CC803
:1001D0001C4093E787001CC0F2406244D24442496D
:1001E000B249224A0561828098431377F7CF13679B
:1001F000071095BF411126C2AA84014522C44AC0F6
:1002000006C62E893284E700804CB7C7004093872A
:10021000072098430D8B09CBB84B1377F78FB8CBDA
:1002200098431367870098C3B7C700409387072098
:1002300023A207064A85E700405913058015E70009
:10024000804CB7C70040938707109C43094793F73A
:10025000F7CF6318E40C37C70040130707101CC31F
:1002600054539307E4FF370600FAB337F0007D16C6
:10027000E607F18ED58F5CD3B7D70040BC4B13F7A0
:1002800007FE89476312F40A83A74171FD8BD98F5A
:1002900037D700403CCBB7C7004093870710D84BF7
:1002A0000946AD46137707FC6313C400B546558F66
:1002B000D8CBD84FB70701FF938707C07D8F8946FA
:1002C000B70779009387C7096316D400B7077F0083
:1002D0009387070A5D8FB7C7004093870710D8CF71
:1002E00037575500C4C713075755D8C3A4D3B8CF41
:1002F0009847370600FFB70680009386D632718F85
:10030000558F98C7F84FB2402244718F558FF8CF60
:10031000B7C70040054723A0E720924402494101A6
:10032000828093E7071005BF83A7017185B700009E
:1003300099C6014863D7B600B685054819A001489B
:10034000AE868D8EBA873383E600B308F340634AE6
:10035000100593C7F6FFFD87FD8EBA968147338659
:10036000F540B388F6006342C00493C7F5FFFD87EC
:10037000FD8DB6953385E540630408026372B702CC
:100380009307A002A38FF5FE9386F5FF637AD7004B
:10039000238FF5FE9386E5FF6374D700A38EF5FEE9
:1003A00082808507A38FC7FE4DB73306F50003464D
:1003B000060085072380C8005DB7AA862E8501CE7A
:1003C0008328060001475C426348A700238007009A
:1003D0004842330515418280032886000C427D186F
:1003E000C295E385B7FE938517004CC2B385E6003E
:1003F00083C5050005072380B700F1B78148635620
:10040000050081E63305A0408548058A930710065C
:1004100019C2930710043A88254E138667FFB377F5
:10042000B5022A8393F6F70F6364FE0493860603EE
:1004300093F6F60F2300D800930718003355B50242
:100440006376B302638808009306D0022380D70046
:10045000930728003385E74009462380070081463B
:100460003346C502FD1763C7C60082803E8845BF7C
:10047000B2967DBFB305D70083C8070003C8050047
:1004800085062380150123800701E9BF3367B50086
:100490009307F00763E5E70293D735009E07AA9715
:1004A00037150020130505203E959D890547834794
:1004B00005003317B70009C6D98F2300F5008280E5
:1004C0001347F7FFF98FD5BFB7C7004093870710D1
:1004D0009843B706FDFFFD16758F15C1B7060200DC
:1004E000558F98C337D700401C47B7063300D58FC8
:1004F0001CC7B7C7004093870720A8CB8280C1667E
:10050000558F98C3B7D600409C463707CEFF7D175E
:10051000F98F9CC6F9BFB7D70040D84331661306A0
:1005200006F0799BD8C30967130707462A97034744
:100530000700945F2207329701761306F60FF18EBB
:10054000558F98DFD8438966938606F413671700A2
:10055000D8C337C700401307072074D383A6070901
:10056000139666006358060083A607091396560083
:10057000634406007453FDF2B7D7004003A5070992
:1005800083A747091375F503A98393F7F707E207D4
:100590005D8D828037D700405C571375F507F59B5A
:1005A0005CD737C70040130707101C4393F707F8C1
:1005B000C98F1CC382800313050001114ACA4EC8AB
:1005C00022CE26CC52C656C45AC25EC0031925009C
:1005D0009319230011058147634303009A87C207DB
:1005E000C187139827001304F007B287371A002039
:1005F000854A414B3387C740634C27017244E2442C
:100600005249C249324AA24A124B824B056182804A
:1006100063D507004E958507F1BFE341F4FE13D77C
:10062000374093F477001E07930F0A20B3929A0085
:1006300093C2F2FFAE8E014EBA9FB38BDF016344CB
:100640006E004295C9BF13172E002A97032F07008B
:1006500081483387D8016364E40213771F0005C320
:10066000B3861B0183C3060013570F01058B331795
:100670009700B3F35300336777002380E6008508C3
:10068000135F1F00E39768FDC10E050E7DB703A73A
:1006900041C0930600020145370800809315E70129
:1006A0009317A700AD8FB98F9315F701B3F7070123
:1006B000AD8F0583FD1606055D8F93F6F60FFD835E
:1006C0005D8DE9FE23A2E1C082808280B7170040E1
:1006D0009387470B98431345F5FF698F98C3B71766
:1006E00000409387070B9843698F98C3B717004062
:1006F0009387070A9843798D88C38280B717004093
:100700000D479387470B6389E50211476382E50430
:1007100094431347F5FFF98E94C3B71700409387AE
:10072000070B9443C98E94C3B71700409387070AF9
:100730009443758F98C3828094431347F5FF758F58
:1007400098C3B71700409387070A9843498FDDB7CE
:100750009843498FF5B7011126CA4AC84EC63719C2
:100760000040B7190040856422CC52C456C206CE60
:100770002A84214A9389C90A930A00401309890BE4
:100780009384048093178401E18763D20708854529
:1007900013050040A537232059010565854513053C
:1007A0000580A93F056523209900060423A0990030
:1007B0008D45130505807D1A1374F40F8137E313FB
:1007C0000AFC854513050040153F93070040056569
:1007D0002320F9008545130505800D37B717004024
:1007E0002320990003A4470A056523A09900130557
:1007F00005808D452137F2401355A4006244D24450
:100800004249B249224A924A05890561828023A061
:1008100059018D4513050040D53541B75D714EDE58
:1008200056DA5ED666D26AD06ECE86C6A2C4A6C29C
:10083000CAC052DC5AD862D4AA8AAE89814B896C6C
:10084000130D0501930D000883C40900850985E097
:10085000B640264496440649F259625AD25A425B3F
:10086000B25B225C925C025DF24D616182808E041B
:1008700093870CC1BE945689138B0B0103CA0400E5
:10088000130C19005E8413567A002285CA8532C47F
:10089000F53E22462285E285D53E22461305140008
:1008A000CA8532C62AC4DD3632462245E285060AAA
:1008B0000904E93E137AFA0FE31764FD0909850478
:1008C000E31EA9FBE306B4F9A28BBDBFB70700E0A6
:1008D00083A707348280397122DC370400E01304D7
:1008E00004341C4006DE26DA4AD84ED652D456D2FC
:1008F0005AD05ECE93F7070C1307000C638BE7000A
:1009000002C6AE84D5E51C4089C793F7070891E37A
:10091000753F8144F25062544259B259225A925A58
:10092000025BF24B2685D25421618280B389244137
:1009300063533B019D49B707100085071840937624
:100940000708B1E611C3593778008D473A8663C767
:100950003705B24733072A0123A0FA0081478345B0
:1009600007008507B306F6002380B6006385F9000B
:100970000507E39677FF9387490093E707F8230677
:10098000F100B2474E991CC0E34299FA61B7FD17D6
:10099000D5F71C4093E7070C1CC0A5BFB306F900B0
:1009A000D29683C6060085070507A30FD7FE45B775
:1009B000B70A00E02A8A01491D4B938A4A348D4BBD
:1009C000E1B7411122C406C62E843137B2402285D8
:1009D000224441018280B71700409387C70A13075A
:1009E00000401DCA98C3414798C3B74700403747E6
:1009F0000040AA95990711076315B50237470040D3
:100A000019078347070093F70704E5DFB71700408E
:100A1000414723ACE70A8280B716004023ACE60AC0
:100A2000D9B783C6070093F60604E5DE83460500C2
:100A300005052300D700C9B701110546A307A1008A
:100A4000B2851305F10006CE7937F2400561828048
:100A5000411122C4130500023714002026C24AC0E7
:100A600006C613040420C93F8144414913E504FB31
:100A70001375F50FD1370145C1374145753F2285C3
:100A8000014693050002813F930500023305B4003F
:100A900001469137130504040146930500028504BD
:100AA0001D3FC20413050406014693050002C180E0
:100AB0001D3713040408E39B24FBB24022449244F4
:100AC00002494101828069B797010020938141BDAD
:100AD0001721002013010153138581709715002001
:100AE000938545F26377B500232005001105E36D7A
:100AF000B5FE1305000997F5FF1F9385A55017F65E
:100B0000FF1F1306267A63FAC5008322050023A07F
:100B1000550011059105E3EAC5FE172500001305F0
:100B2000E596938541C0170600201306E627638AE1
:100B3000C5008322050023A0550011059105E3EAB5
:100B4000C5FE93070000FD42739002BC8962938248
:100B5000828873A0023097F2FFFF9382A24A93E249
:100B6000320073905230B7F700E0154798C385679D
:100B700093876745739017347300203001A0AA87CC
:100B800003C7070001E73385A74082808507CDBFF3
:100B9000757122C5E6D206C726C34AC1CEDED2DCB5
:100BA000D6DADAD8DED6E2D4EAD0EECE3284B68C0B
:100BB00031E101499304A03B8149930A5002130A91
:100BC0000003254BA94B83470400130D1400A30F0A
:100BD000F10085E7BA402A449A440A49665AD65A2F
:100BE000465BB65B265C965C065DF64D4E85F65917
:100BF00049618280AA842E89C1B7638C57014A86D5
:100C000085451305F1018294668C6A84AA99E28C69
:100C10005DBF0347140093072400528DA30FE1002A
:100C2000631E47073E848146814701A8B387770347
:100C30000347040005048546B297130607FD937524
:100C4000F60FE375BBFE99C2A30FE100E146BE8D2E
:100C500063D3F600B68D9306C00601466318D7002D
:100C60000347040005460504A30FE1008346F10194
:100C7000130740066383E6066365D7029307800582
:100C80006380F60A93073006638EF60AA1D64A8679
:100C900085451305F1018294668C8DBF130D00020A
:100CA00051B713075007638AE60213078007638969
:100CB000E60613073007E39CE6FC138C4C0083AC7C
:100CC0000C003EC66685653DB247AA856359F008AB
:100CD0003818EE866A86668525A0138C4C0005CAF6
:100CE0009386B6F8181093B6160003A50C000146BB
:100CF000A945EFF0AFF03818EE866A86AA8508108D
:100D0000EFF00FE3AA854A862818829401B793076B
:100D1000500718106394F6008546C1BF8146F1B7AD
:100D200003A50C00138686FA1810854613361600A4
:100D3000C145EFF0AFEC138C4C00AA853818EE8655
:100D40006A8675BF83A70C00138C4C003818A30F5C
:100D5000F100EE866A8685451305F10155B74A868E
:100D6000668565B7397132D42A8605652ED236D6A6
:100D7000814554101305259C06CE3AD83EDA42DC54
:100D800046DE36C63135F24021618280397126DA7D
:100D90004AD852D4B7140040056A371900400605F6
:100DA00022DC4ED656D25AD05ECE62CC06DE66CA61
:100DB0002E84B28B368B814A130A0A809384840B6B
:100DC0001309C90A130C00409379F50F0565854591
:100DD00013050580253223A044018D4513050040ED
:100DE00023208901213A0565130505802320490147
:100DF0008D4529324E8585321DC509655686DA85B1
:100E0000130545B48537850AE3927AFDF2506254A2
:100E1000D2544259B259225A925A025BF24B624C56
:100E2000D24C2161828003460400930C2400328559
:100E300032C6153283461400368536C4293A8D45AC
:100E40002A842320890113050040EFF03F8B0565BC
:100E5000854513050580EFF07F8A854523A0440171
:100E600013050040EFF09F8923A08401A24632467B
:100E700019C80967130787B30965DA85130505B62D
:100E8000D535668449B70967130707B4F5B701116B
:100E900006CE22CC2AC22AC42EC69DC1B337A000DA
:100EA0004C00B307F0402A84FD8D1305A03BCD31E3
:100EB00001C4224592471D8DF24062440561828043
:100EC00001448145DDB7397132D42E86B7050080E3
:100ED00036D6FD15341006CE3AD83EDA42DC46DE70
:100EE00036C67537F240216182802A96AA876393BD
:100EF000C70082802380B7008507D5BF05663715F8
:100F0000002013060680814513050520F9BF011155
:100F100022CC26CA2A844AC84EC606CEC5378317B5
:100F200084001307000881448507B3E7E7024149BD
:100F30002314F40013D6244093F5340016069605C6
:100F4000138541608504EFF00FE7E39524FF8315D7
:100F50008400370500200146811513058532EFF026
:100F60008FE56244F240D2444249B2490561CDB4B2
:100F7000357122CD3A844AC94EC736891344F4FFED
:100F8000896926CB52C556C35AC106CFAA84337489
:100F90002401AD37938909450549096BD14A114AA6
:100FA0009C4413060002639427011306E00383A602
:100FB000490093058BB70A853937330559038A856C
:100FC0000509910931151375C50FEFF03F85E31938
:100FD00049FD137714009C4409C7FD176343F000D3
:100FE00085471377440011C785070D476373F700E2
:100FF000BA879CC409881DC08946138781716384A0
:10100000D7048D466388D70685466383D70223AE0F
:1010100001708567938707F71CC314C76A44FA40B9
:10102000DA444A49BA492A4A9A4A0A4B0D610DB430
:1010300023A0017285679387872A1CC385679387DE
:1010400047165CC3E1BF23A001728567938767AC35
:101050001CC38567938767105CC3014445359304BF
:101060000008A285228505460504EFF02FC2E31A89
:1010700094FE6DB723A0017285679387E7F01CC3C8
:101080009307A06C7DBF81476313F600828033878E
:10109000F500834607003307F50085072300D700D6
:1010A000E5B7B70700E09387073498439306000C31
:1010B0001377070C6307D70441113707100022C4C8
:1010C00006C62A840507944313F6060805E299C26A
:1010D000EFF0CFFF93178400C207C18393E757084F
:1010E000370700E02320F734054501A87D1761FF8D
:1010F000984301451367070C98C3B240224441014D
:10110000828001458280797122D426D24AD04ECE87
:1011100006D632C0034855008347450003473500D3
:10112000B6882E8983462500834505003284034610
:1011300015000965130505B835318144896963CA0D
:1011400084002254B25092540259F2492945456113
:1011500089BFB307990083C50700138589BA850441
:101160001131F1BF4DB7B7170040938707049305BE
:1011700070052380B700130680FA2380C7000100A2
:101180000100371700408346A70093E606012305B8
:10119000D700372700408546A303D7808346578072
:1011A00093E60601A302D780238007000100010017
:1011B0002380B7002380C7000100010037170040DB
:1011C0009306A0042304D700238007000100010038
:1011D000B70700E023A207341307000823A0E73471
:1011E00082805D7122DE37C400401304042026DCB7
:1011F0003AD204443ED058441C442ADA86C696C4E7
:101200009AC29EC02ED832D636D442CE46CC72CAAE
:1012100076C87AC67EC4F98F37C700401CC413074E
:1012200007105C5B01458588F19B93E717005CDB49
:10123000EFF08FA93C4893F7F78F3CC81C4093E729
:1012400087001CC08DCC97F0FF1FE78020DD05C90B
:1012500093878171C04305C497F0FF1FE78080DA50
:10126000B717002003C607DCAA86B715002037157C
:10127000002011069385A5DC130525DC0294725429
:10128000B640A64216438643E2545255C2553256E2
:10129000A256125782577248E248524EC24E324FFF
:1012A000A24F616173002030557186C7CAC152DDFB
:1012B00032892A8A56DB5AD962D566D3A2C5A6C31B
:1012C0004EDF5ED72539B7F700E0904789659385F3
:1012D00005BB0810CD3E0C100145EFF02FD483263E
:1012E000C90003268A008965938585BB0810E13E05
:1012F0000C106145EFF08FD2130B0002054C930ADE
:10130000A005930C00080324090081492580B3043B
:10131000804033048C400604B30B9B409385A905A1
:1013200005465E852EC4EFF06F96A24533059B00FF
:1013300005462AC6EFF08F953245B3853A410546FA
:101340002EC4EFF0AF94A24505465E85EFF00F94F2
:1013500063C989028509939719008507330790406F
:10136000A2976395E90063C58400014463D98400B2
:101370008504139714000507BA97638684013E8499
:1013800061BFA287E5B7130B0B021109E31D9BF7A1
:1013900001449304000D2949EFF06FAFB375950236
:1013A000938585FD2EC4EFF08FAE3376950293774B
:1013B0001400A24513850150130686FD99C31385B9
:1013C00041600504EFF02F9FE31824FDEFF04FE894
:1013D00083278A0085072324FA0093F7F70FB9EFD4
:1013E0008567B7F5030089071946E1051305210153
:1013F0002318F10049398965FD571946938505BCC5
:101400001305A101231CF100BD3903C481704146BD
:1014100037C5898EB305C100130565ED0547A28662
:1014200097F0FF1FE78080C137C5898E0546A285EA
:10143000130565ED97F0FF1FE78000D3BE402E44F3
:101440009E440E49FA596A5ADA5A4A5BBA5B2A5CD8
:101450009A5C69618280757106C722C526C34AC13C
:10146000CEDED2DCD6DADAD8DED6E2D4E6D2EAD0E4
:10147000EECED5390565914513050580B7140040BA
:101480000569EFF0AFA79384C40A13090980914559
:101490001305000423A02401EFF04FA6B719004064
:1014A000930A000423AC590B91454145EFF00FA579
:1014B000C1479CC0914513050040EFF02FA4130ACB
:1014C00000408545528523A04401EFF02FA38545B8
:1014D00023AC490B4A85EFF06FA2B7870B002010B1
:1014E0008966AD0723AC290B938686BC0946A28585
:1014F0001305C0073ED4EFF07F898966896593861E
:1015000086BD3546938505411305A006EFF01F887B
:101510008966938606BE0946938581C81305C00770
:10152000EFF0DF868D454A85EFF04F9D8D45528562
:10153000EFF0CF9C23A0240123AC490B23A054013E
:10154000B7F900E003A78900B72709009387077C54
:101550003E9783A78900998FE3CD07FEB71400401B
:10156000130900049384840B91454A8523A0240128
:10157000EFF0CF9891454145EFF04F989145130515
:101580000040EFF0AF97914513050008EFF00F977B
:10159000914513050002EFF06F96C14723A0240187
:1015A0009CC0B71700409387C70A1307004098C331
:1015B000154637470040A301C70009462300C7006E
:1015C000930640062300D7008346070093E6860073
:1015D0002300D700A300C70023A0270103A7890089
:1015E000B72709009387077C3E97B7F600E09C4633
:1015F000998FE3CE07FEB71700401307000423AC12
:10160000E70A8964EFF09F8F9384C4421309F00FB7
:1016100003C504006311254DEFF08FC3EFF01F8E5B
:101620001305500DEFF04FC11305000EEFF0CFC0C2
:101630001305800CEFF04FC01305100AEFF0CFBF79
:10164000B72700408946370700042380D7407D171D
:1016500023A6E740130750FC2380E7402381D740AF
:10166000B717004003D7A70137E900E01367070465
:10167000239DE700B70700012320F910F32700306E
:1016800093E787087390073091452E85EFF00F8719
:1016900039472384E170B7C70040938707201307B9
:1016A000C008D8CB93066007D4CFD8D3D8DBF8C313
:1016B000F4C71307C006D8D7D8DF13078007D8C3ED
:1016C0003707160023AA07043D07D8C7371700209D
:1016D000130707DCF8DF7D57B7D4004098C793079E
:1016E00000489CD49C583707FAFF7D17F98F9CD887
:1016F0009C5837070070B7060002D98F9CD8DC5C75
:10170000370700F97D17F98FD58FDCDCDC5C3707F4
:101710000040FD168E078D83D98FDCDCBC44370773
:10172000F9FF7D17F98FBCC4BC4837070700D14BC0
:1017300093F7F78F93E70730BCC8FC4C130580552F
:10174000D98FFCCCFC4C37077000D98FFCCC370705
:101750000200B7C70040938707101307C72098DF20
:1017600013070005D8DFD85B758FB70600DA558FF1
:10177000D8DB98431377F7CF98C3A3097905EFE037
:10178000BFD4DC407D777D1793F7F7EFDCC09C5426
:1017900013055002F98F9CD4DC5437070200BD9B1F
:1017A000DCD49C44D98F9CC4DC4093E70701DCC0A7
:1017B000EFE07FD6AA84935A850113057002EFE00B
:1017C0009FD5AA89135B85014945EFE0DFD4937764
:1017D000F50F130680022A89135A850193F4F40F3A
:1017E00093F9F90F814522859D8CB3893741EFF03C
:1017F000CFEFB386740381475E86B305F400850797
:1018000033D77603858E6207618713154700498FAA
:101810002380E500E393C7FE81465148130680020A
:1018200033D70603B305F4008507CE9662076187B8
:1018300013154700498F2380E500E393C7FEA28676
:10184000014737D5004029468C42930787028A0713
:10185000AA978CC305079106E318C7FE33864A4151
:101860009546B306D602330A6A4102CE02D002D2AE
:10187000854719456C083388F500850733D7A602DC
:10188000918E620761879318470033671701230021
:10189000E800E392A7FE814699482D4633D7160308
:1018A0003385F5008507D2966207618713184700D4
:1018B000336707012300E500E392C7FEF246B7D77E
:1018C00000401387070834C78256056674C79256CE
:1018D00034CBD8439376F9033D9BD8C3D843799B47
:1018E000D8C39857518F98D7D85713670701D8D7BF
:1018F000985F137707FC558F98DF985FB7060081D4
:10190000FD16758FB706007F3379D900336727013D
:1019100098DFD843C176FD1613670710D8C3B84BBC
:10192000758FB8CB9847B7062000558F98C7D84712
:101930009306400613670701D8C7D843518FD8C311
:1019400037C700401307072074D3745391C683A68A
:10195000C70993F60610F5FAB7D7004013870708B2
:10196000584F41667D8B23A8E170B84B518FB8CB9F
:10197000B84B03A60171019B518FB8CB984737062E
:10198000E0FF7D16718F98C703A701717946FD4767
:1019900009076365E60083A70171890723AAF1702F
:1019A000B7D70040B84FC176FD16758FB8CF9847AE
:1019B000C1660145558F98C7D847B706EFFFFD169A
:1019C00013670710D8C7D843B7FA00E0758FB7067A
:1019D0001000558FD8C3EFE03FAFB7E700E003C773
:1019E000574137C5898E054613670708A38AE74024
:1019F0003707200023A0E710B945130565ED97E0F0
:101A0000FF1FE780607623AE0170856713878171C1
:101A1000938707F71CC385471CC702C4A14B130C4F
:101A20000010930C00203EC6094D83AD8A0037BAE2
:101A3000AAAAA2898144370BFF4F130AAAAA2145FB
:101A4000EFE0DFC813050010EFE05FC813050020CA
:101A5000EFE0DFC7B2476384F408638CA40991E820
:101A6000914513050010EFE07FC9B717004023AC84
:101A7000770B83270B006397470993972400DA9726
:101A8000DC4323A0F900850491479109E399F4FA16
:101A9000A2548567938787383257B3B49700856718
:101AA0009387873863F4E70093E42400425763F494
:101AB000E70093E44400938781719C4383A58A00E7
:101AC00089CB2247A6862286B385B54113858171CD
:101AD000829726C499BF8504EFE01FF615BE914595
:101AE00013050020EFE09FC1B717004023AC870B20
:101AF00049B791452145EFE07FC0B717004023ACBF
:101B0000970B85BF23A6017097E0FF1FE780007A3F
:101B10008567938707FA83A6C17099E2FD17E5FFF1
:101B200003A7C170B7E73400938787F27917B3D75B
:101B3000E70293879706B1B74641494C0000000081
:101B40004F4B000025732043616E6E6F7420436F0E
:101B50006E66696775726520402025640A00000082
:101B60002573202530327868203D202530327820BA
:101B70005B25735D0A0000002563257300000000EB
:101B8000253032783A253032783A253032783A2585
:101B90003032783A253032783A253032783A253367
:101BA000642025643A0000002530327820000000CF
:101BB00025303878000000002533642025640000BB
:101BC000AABBCCDDEEFF0000514D43363330392047
:101BD00052455345540000004C534D364453330096
:101BE000514D4336333039004D656E7500000000AD
:101BF0004578616D706C6500546573740000000079
:101C00005061737320746865205075666665720054
:101C100000000000000000007E81A581BD99817E4A
:101C20007EFFDBFFC3E7FF7E6CFEFEFE7C3810000C
:101C300010387CFE7C381000387C38FEFED6103818
:101C400010387CFEFE7C10380000183C3C18000068
:101C5000FFFFE7C3C3E7FFFF003C664242663C006C
:101C6000FFC399BDBD99C3FF0F070F7DCCCCCC78C6
:101C70003C6666663C187E183F333F303070F0E0BB
:101C80007F637F636367E6C018DB3CE7E73CDB18F4
:101C900080E0F8FEF8E08000020E3EFE3E0E0200FC
:101CA000183C7E18187E3C186666666666006600FC
:101CB0007FDBDB7B1B1B1B003E613C66663C867C3E
:101CC000000000007E7E7E00183C7E187E3C18FFDF
:101CD000183C7E1818181800181818187E3C1800A0
:101CE00000180CFE0C180000003060FE6030000090
:101CF0000000C0C0C0FE0000002466FF6624000093
:101D000000183C7EFFFF000000FFFF7E3C18000033
:101D10000000000000000000183C3C1818001800EB
:101D200066662400000000006C6CFE6CFE6C6C00AB
:101D3000183E603C067C180000C6CC183066C60011
:101D4000386C3876DCCC76001818300000000000C3
:101D50000C18303030180C0030180C0C0C183000F7
:101D600000663CFF3C6600000018187E1818000052
:101D700000000000001818300000007E0000000085
:101D80000000000000181800060C183060C0800029
:101D9000386CC6D6C66C38001838181818187E006B
:101DA0007CC6061C3066FE007CC6063C06C67C006F
:101DB0001C3C6CCCFE0C1E00FEC0C0FC06C67C00A9
:101DC0003860C0FCC6C67C00FEC60C18303030003F
:101DD0007CC6C67CC6C67C007CC6C67E060C780067
:101DE0000018180000181800001818000018183003
:101DF000060C1830180C060000007E00007E000063
:101E00006030180C183060007CC60C1818001800E0
:101E10007CC6DEDEDEC07800386CC6FEC6C6C600F4
:101E2000FC66667C6666FC003C66C0C0C0663C0022
:101E3000F86C6666666CF800FE6268786862FE00A0
:101E4000FE6268786860F0003C66C0C0CE663A000A
:101E5000C6C6C6FEC6C6C6003C18181818183C00F0
:101E60001E0C0C0CCCCC7800E6666C786C66E60038
:101E7000F06060606266FE00C6EEFEFED6C6C6007A
:101E8000C6E6F6DECEC6C6007CC6C6C6C6C67C00A2
:101E9000FC66667C6060F0007CC6C6C6C6CE7C0E62
:101EA000FC66667C6C66E6003C6630180C663C009E
:101EB0007E7E5A1818183C00C6C6C6C6C6C67C0028
:101EC000C6C6C6C6C66C3800C6C6C6D6D6FE6C0028
:101ED000C6C66C386CC6C6006666663C18183C0000
:101EE000FEC68C183266FE003C30303030303C008C
:101EF000C06030180C0602003C0C0C0C0C0C3C00B2
:101F000010386CC60000000000000000000000FF58
:101F100030180C00000000000000780C7CCC76002B
:101F2000E0607C666666DC0000007CC6C0C67C00A3
:101F30001C0C7CCCCCCC760000007CC6FEC07C00A7
:101F40003C6660F86060F000000076CCCC7C0CF859
:101F5000E0606C766666E6001800381818183C00D9
:101F6000060006060666663CE060666C786CE60075
:101F70003818181818183C000000ECFED6D6D60009
:101F80000000DC666666660000007CC6C6C67C0093
:101F90000000DC66667C60F0000076CCCC7C0C1E19
:101FA0000000DC766060F00000007EC07C06FC0073
:101FB0003030FC3030361C000000CCCCCCCC76006D
:101FC0000000C6C6C66C38000000C6D6D6FE6C003F
:101FD0000000C66C386CC6000000C6C6C67E06FC93
:101FE00000007E4C18327E000E18187018180E0073
:101FF00018181818181818007018180E18187000EB
:1020000076DC0000000000000010386CC6C6FE0040
:102010007CC6C0C0C67C0C78CC00CCCCCCCC7600C6
:102020000C187CC6FEC07C007C82780C7CCC7600D0
:10203000C600780C7CCC76003018780C7CCC76000E
:102040003030780C7CCC760000007EC0C07E0C382E
:102050007C827CC6FEC07C00C6007CC6FEC07C00C4
:1020600030187CC6FEC07C006600381818183C008A
:102070007C82381818183C003018003818183C00BA
:10208000C6386CC6FEC6C600386C7CC6FEC6C60026
:102090001830FEC0F8C0FE0000007E187ED87E001A
:1020A0003E6CCCFECCCCCE007C827CC6C6C67C000E
:1020B000C6007CC6C6C67C0030187CC6C6C67C007E
:1020C000788400CCCCCC76006030CCCCCCCC760004
:1020D000C600C6C6C67E06FCC6386CC6C66C3800CE
:1020E000C600C6C6C6C67C0018187EC0C07E1818BA
:1020F000386C64F06066FC0066663C7E187E1818DA
:10210000F8CCCCFAC6CFC6C70E1B183C18D8700046
:102110001830780C7CCC76000C18003818183C006D
:102120000C187CC6C6C67C001830CCCCCCCC760053
:1021300076DC00DC6666660076DC00E6F6DECE0065
:102140003C6C6C3E007E0000386C6C38007C0000FB
:102150001800181830633E00000000FEC0C00000E8
:10216000000000FE0606000063E66C7E3366CC0FBE
:1021700063E66C7A366ADF06180018183C3C1800D3
:10218000003366CC6633000000CC663366CC0000BA
:10219000228822882288228855AA55AA55AA55AA9B
:1021A00077DD77DD77DD77DD18181818181818181F
:1021B00018181818F81818181818F818F8181818FF
:1021C00036363636F636363600000000FE363636FF
:1021D0000000F818F81818183636F606F6363636AF
:1021E00036363636363636360000FE06F6363636A3
:1021F0003636F606FE00000036363636FE000000A3
:102200001818F818F800000000000000F818181856
:10221000181818181F00000018181818FF000000E0
:1022200000000000FF181818181818181F181818A0
:1022300000000000FF00000018181818FF181818F8
:1022400018181F181F18181836363636373636360F
:10225000363637303F00000000003F303736363624
:102260003636F700FF0000000000FF00F736363674
:1022700036363730373636360000FF00FF000000B4
:102280003636F700F73636361818FF00FF00000024
:1022900036363636FF0000000000FF00FF18181821
:1022A00000000000FF363636363636363F00000076
:1022B00018181F181F00000000001F181F181818FA
:1022C000000000003F36363636363636FF363636B4
:1022D0001818FF18FF18181818181818F800000018
:1022E000000000001F181818FFFFFFFFFFFFFFFF8F
:1022F00000000000FFFFFFFFF0F0F0F0F0F0F0F062
:102300000F0F0F0F0F0F0F0FFFFFFFFF0000000059
:10231000000076DCC8DC760078CCCCD8CCC6CC000B
:10232000FEC6C0C0C0C0C0000000FE6C6C6C6C007B
:10233000FEC6603060C6FE0000007ED8D8D87000AF
:102340000000666666667CC00076DC181818180007
:102350007E183C66663C187E386CC6FEC66C38003B
:10236000386CC6C66C6CEE000E180C3E66663C00FF
:1023700000007EDBDB7E0000060C7EDBDB7E60C0C7
:102380001E30607E60301E00007CC6C6C6C6C60019
:1023900000FE00FE00FE000018187E1818007E00E7
:1023A00030180C1830007E000C1830180C007E001D
:1023B0000E1B1B18181818181818181818D8D870C9
:1023C0000018007E001800000076DC0076DC0000BB
:1023D000386C6C3800000000000000181800000085
:1023E00000000018000000000F0C0C0CEC6C3C1CF2
:1023F0006C36363636000000780C18307C00000051
:1024000000003C3C3C3C00000000000000000000DC
:102410001244105A11540A2806600700080909AA34
:102420000A0313001510160013010000AE0010B0CF
:10243000DC00816F21A4A87FD300D5F0D91DDB3546
:1024400040AD80A001D90681FEDBFEA87FAFFF0072
:10245000E81B0000F01B0000F81B0000001C00003F
:102460000102030405060708090A0C0D0E0F1011DE
:1024700012131415161718191A1B1C1D1E1F2021C4
:082480002223242526000B276E
:102488002FA37A7400000000B72700400947238073
:10249800E740130750FC2380E74011456700C06CF4
:1024A80039712AD62ED43ACE3ECC06DE16DC1ADA9C
:1024B8001ED832D236D042CA46C872C676C47AC24C
:1024C8007EC0B727004009472383E74003A7074199
:1024D80091452E8523A6E170E700C06FF250E252C5
:1024E8005253C2533255A255125682567247E2478A
:1024F8005248C248324EA24E124F824F2161730099
:10250800203000000B480A1906005A00000000009D
:1025180000000000000000000000000000000000B3
:1025280000000000000000000000000000000000A3
:102538000000000000000000000000000000000093
:102548000000000000000000000000000000000083
:102558000000000000000000000000000000000073
:102568000000000000000000000000000000000063
:102578000000000000000000000000000000000053
:102588000000000000000000000000000000000043
:102598000000000000000000000000000000000033
:1025A8000000000000000000000000000000000023
:1025B8000000000000000000000000000000000013
:1025C8000000000000000000000000000000000003
:1025D80000000000000000000000000000000000F3
:1025E80000000000000000000000000000000000E3
:1025F80000000000000000000000000000000000D3
:1026080000000000000000000000000000000000C2
:1026180000000000000000000000000000000000B2
:1026280000000000000000000000000000000000A2
:102638000000000000000000000000000000000092
:102648000000000000000000000000000000000082
:102658000000000000000000000000000000000072
:102668000000000000000000000000000000000062
:102678000000000000000000000000000000000052
:102688000000000000000000000000000000000042
:102698000000000000000000000000000000000032
:1026A8000000000000000000000000000000000022
:1026B8000000000000000000000000000000000012
:1026C8000000000000000000000000000000000002
:1026D8000000000000000000000000001040104052
:1026E80000000000000000000000000000000000E2
:1026F8000000000028A028A0000000000000000042
:10270800000000000000000000000000EE9FEE9FA7
:1027180000000000000000000000000000000000B1
:1027280000C000C0457045700100010000000000B5
:10273800000000000000000000380038828082801D
:10274800030003000000000000000000000000007B
:10275800C006C006820082000E000E0000000000C5
:10276800000000000000000020012001000000001F
:1027780034003400000000000000000000000000E9
:1027880020002000000000004A004A00000000006D
:1027980000000000000000002000200000000000F1
:1027A800890089000000000000000000000000000F
:1027B800300030000180018010011001000000008D
:1027C80000000000000000000880088002000200ED
:1027D80010021002000000000000000000000000CD
:1027E8000480048004000400200420040000000089
:1027F800000000000000000003400340080008003B
:1028080020082008000000000000000000C000C0F0
:10281800024002400000000000080008000000001C
:1028280000000000002000200140014000000000DE
:102838000070007000000000000000000040004030
:10284800010001000000000000900090000000005E
:102858000000000000800080000000000000000070
:1028680000A000A0C001C00100000000008000809E
:10287800800080001000100000600060200220022C
:10288800000000000040004000010001084008402E
:102898000040004090049004000000000040004008
:1028A8000002000204A004A000400040900490042C
:1028B800000000000040004030043004C220C22064
:1028C80000800080480848080000000000C000C0E0
:1028D800C107C1073E103E103E603E6047084708EA
:1028E80000000000006000600600060000900090F4
:1028F800439843982204220400000000006000600E
:102908001800180000800080808480849404940457
:10291800000000000060006000FC00FC0740074069
:10292800984098408C028C020000000000A000A093
:10293800000200020820082086408640480248021B
:102948000000000000A000A00001000110201020DD
:10295800812081203801380100000000002000207B
:10296800800080002080208040004000080108018D
:10297800000000000020002080F880F8204020405F
:10298800280028003802380200000000002000203B
:1029980080FC80FC2100210026002600440244021D
:1029A800000000000020002080F880F820802080AF
:1029B800210021009C049C0400000000004000400D
:1029C800F000F000E007E00740F040F023042304A3
:1029D8000000000000400040FC01FC01F00FF00F77
:1029E80086FC86FC470847080000000000C000C0BD
:1029F800FF03FF03F89FF89F88FE88FE8808880871
:102A08000000000000C000C0FFFFFFFFFF7FFF7F46
:102A1800917E917E90049004000000000080008068
:102A2800FFFFFFFFFFFFFFFF423F423F100410047C
:102A38000000000000800080FFFFFFFFFFFFFFFF96
:102A4800BD3FBD3F20022002000000000000000042
:102A5800FFFFFFFFFFFFFFFFC31FC31FC001C00130
:102A68000000000000000000FFFFFFFFFFFFFFFF66
:102A7800FF1FFF1F00000000000000000000000012
:102A8800FEFFFEFFFFFFFFFFFF0FFF0F000000002C
:102A98000000000000000000FEFFFEFFFFFFFFFF38
:102AA800FF07FF0700000000000000000000000012
:102AB800F4FFF4FFFFFFFFFFFF03FF030000000028
:102AC8000000000000000000F0FFF0FFFFFFFFFF24
:102AD8007F017F01000000000000000000000000EE
:102AE800F0FEF0FEFFFFFFFF7F007F000000000008
:102AF800000000000000000070FF70FFFFFFFFFFF4
:102B08007D007D00000000000000000000000000C3
:102B180090FF90FFFFFFFFFF7300730000000000AD
:102B2800000000000000000080FF80FFFEFFFEFFA5
:102B38000F000F000000000000000000000000006F
:102B480000FE00FEFEFFFEFF070007000000000079
:102B5800000000000000000000F800F87DFF7DFF85
:102B68000300030000000000000000000000000057
:102B780000C000C07D7F7D7F0000000000000000D5
:102B8800000000000000000000000000780F780F2F
:102B9800000000000000000000000000000000002D
:102BA800000000007000700000000000000000003D
:102BB80000000000000000000000000020002000CD
:102BC80000000000000000000000000000000000FD
:102BD80000000000000000000000000000000000ED
:102BE80000000000000000000000000000000000DD
:102BF80000000000000000000000000000000000CD
:102C080000000000000000000000000000000000BC
:102C180000000000000000000000000000000000AC
:102C2800000000000000000000000000000000009C
:102C3800000000000000000000000000000000008C
:102C4800000000000000000000000000000000007C
:102C5800000000000000000000000000000000006C
:102C6800000000000000000000000000000000005C
:102C7800000000000000000000000000000000004C
:102C8800000000000000000000000000000000003C
:102C9800000000000000000000000000000000002C
:102CA800000000000000000000000000000000001C
:102CB800000000000000000000000000000000000C
:102CC80000000000000000000000000000000000FC
:102CD80000000000000000000000000000000000EC
:102CE80000000000000000000000000000000000DC
:102CF80000000000000000000000000000000000CC
:102D080000000000000000000000000000000000BB
:102D180000000000000000000000000000000000AB
:102D2800000000000000000000000000000000009B
:102D3800000000000000000000000000000000008B
:102D4800000000000000000000000000000000007B
:102D5800000000000000000000000000000000006B
:102D6800000000000000000000000000000000005B
:102D78000000000000000000000000000200200029
:102D880000F800F83F003F0000FE000EFF00E000E2
:102D980080FF8003FF038003C0FFC000FF07000619
:102DA800E0FF6000FF0F080CF0FF3000FF1F1C1849
:102DB800F8FF1800FF3F3E30F8FF0800FF3F7F2074
:102DC800FCFF0C00FF7FFE60FCFF0400FF7FFC415E
:102DD800FEFF0600FFFFF8C3FEFF0200FFFFF087BB
:102DE800FEFF0200FFFFE083FEFF0200FFFFC0813D
:102DF800FEFF0200FFFF8080FEFF0200FFFF008051
:102E0800FEFF0200FFFF0080FEFF0200FFFF0080C0
:102E1800FEFF0200FFFF0080FEFF0200FFFF0080B0
:102E2800FEFF0600FFFF00C0FCFF0400FF7F00401C
:102E3800FCFF0C00FF7F0060F8FF0800FF3F002048
:102E4800F8FF1800FF3F0030F0FF3000FF1F0018A8
:102E5800E0FF6000FF0F000CC0FFC000FF07000686
:102E680080FF8003FF03800300FE000EFF00E000E8
:102E780000F800F83F003F000000000000000000DC
:102E88000200200000FC00FC1F001F0000FF0007DC
:102E98007F007000C0FFC001FF01C001E0FF6000BB
:102EA800FF030003F0FF3010FF070006F8FF183893
:102EB800FF0F000CFCFF0C7CFF1F0018FCFF04FE3A
:102EC800FF1F0010FEFF067FFF3F0030FEFF823F1E
:102ED800FF3F0020FFFFC31FFF7F0060FFFFE10FE0
:102EE800FF7F0040FFFFC107FF7F0040FFFF810316
:102EF800FF7F0040FFFF0101FF7F0040FFFF01004F
:102F0800FF7F0040FFFF0100FF7F0040FFFF01003F
:102F1800FF7F0040FFFF0100FF7F0040FFFF01002F
:102F2800FF7F0040FFFF0300FF7F0060FEFF0200FD
:102F3800FF3F0020FEFF0600FF3F0030FCFF0400BB
:102F4800FF1F0010FCFF0C00FF1F0018F8FF1800FF
:102F5800FF0F000CF0FF3000FF070006E0FF6000E5
:102F6800FF030003C0FFC001FF01C00100FF00070D
:102F78007F00700000FC00FC1F001F000000000024
:042F88000000000045
:00000001FF
