:100000006F00F02800000000420B0000420B0000CF
:10001000A9BDF9F3420B0000000000000000000041
:10002000420B0000420B0000000000000000000036
:10003000420B000000000000420B00000000000026
:10004000420B0000420B0000420B0000420B00007C
:10005000420B0000C80F0000420B0000000000002F
:10006000B0020020420B0000420B0000420B0000D7
:10007000420B0000420B0000420B0000420B00004C
:10008000420B0000420B0000420B0000420B00003C
:1000900083C711DA138741DABA9703850700828094
:1000A00083C711DA138751DABA9703C507001181A4
:1000B0000589134515008280011126CAB7C4004086
:1000C00093840410DC5806CE22CCF19B93E71700F2
:1000D0004AC84EC652C4AA89DCD836852E8A3A84CC
:1000E0003289E700405813058025E700804BB75759
:1000F000550023A6340193875755DCC023A034074D
:10010000BCCC9C44B70600FF370780001307D732EA
:10011000F58FD98F9CC4FC4CF58FD98FFCCCB7C719
:1001200000409387072023AC470785679387A7BBC9
:1001300037D7004034571396760063440600FD1706
:10014000F5FBB7C700400947938707106316E4081B
:1001500098431377F7CFB7C700409387071098C32A
:10016000D8537914B70600FAFD1633348000758F22
:100170006604598CC0D337C40040130404201848C7
:100180008176FD16758F18C83707020018C4260936
:10019000232224079843B7060001558F98C3D85BE4
:1001A000719BD8DB89471CC07C50FDFF0145E700EF
:1001B000804B1C408D8B89CB3C4893F7F78F3CC814
:1001C0001C4093E787001CC0F2406244D24442497D
:1001D000B249224A0561828098431377F7CF1367AB
:1001E000071095BF411126C2AA84014522C44AC006
:1001F00006C62E893284E700804BB7C7004093873C
:10020000072098430D8B09CBB84B1377F78FB8CBEA
:1002100098431367870098C3B7C7004093870720A8
:1002200023A207064A85E700405813058015E7001A
:10023000804BB7C70040938707109C43094793F74B
:10024000F7CF6318E40C37C70040130707101CC32F
:1002500054539307E4FF370600FAB337F0007D16D6
:10026000E607F18ED58F5CD3B7D70040BC4B13F7B0
:1002700007FE89476312F40A83A7C1D9FD8BD98F82
:1002800037D700403CCBB7C7004093870710D84B07
:100290000946AD46137707FC6313C400B546558F76
:1002A000D8CBD84FB70701FF938707C07D8F89460A
:1002B000B70779009387C7096316D400B7077F0093
:1002C0009387070A5D8FB7C7004093870710D8CF81
:1002D00037575500C4C713075755D8C3A4D3B8CF51
:1002E0009847370600FFB70680009386D632718F95
:1002F000558F98C7F84FB2402244718F558FF8CF71
:10030000B7C70040054723A0E720924402494101B6
:10031000828093E7071005BF83A781D985B70000C6
:1003200099C6014863D7B600B685054819A00148AB
:10033000AE868D8EBA873383E600B308F340634AF6
:10034000100593C7F6FFFD87FD8EBA968147338669
:10035000F540B388F6006342C00493C7F5FFFD87FC
:10036000FD8DB6953385E540630408026372B702DC
:100370009307A002A38FF5FE9386F5FF637AD7005B
:10038000238FF5FE9386E5FF6374D700A38EF5FEF9
:1003900082808507A38FC7FE4DB73306F50003465D
:1003A000060085072380C8005DB7AA862E8501CE8A
:1003B0008328060001475C426348A70023800700AA
:1003C0004842330515418280032886000C427D187F
:1003D000C295E385B7FE938517004CC2B385E6004E
:1003E00083C5050005072380B700F1B78148635630
:1003F000050081E63305A0408548058A930710066D
:1004000019C2930710043A88254E138667FFB37705
:10041000B5022A8393F6F70F6364FE0493860603FE
:1004200093F6F60F2300D800930718003355B50252
:100430006376B302638808009306D0022380D70056
:10044000930728003385E74009462380070081464B
:100450003346C502FD1763C7C60082803E8845BF8C
:10046000B2967DBFB305D70083C8070003C8050057
:1004700085062380150123800701E9BF3367B50096
:100480009307F00763E5E70293D735009E07AA9725
:10049000371500201305C5863E959D89054783477E
:1004A00005003317B70009C6D98F2300F5008280F5
:1004B0001347F7FFF98FD5BFB7C7004093870710E1
:1004C0009843B706FDFFFD16758F15C1B7060200EC
:1004D000558F98C337D700401C47B7063300D58FD8
:1004E0001CC7B7C7004093870720A8CB8280C1668E
:1004F000558F98C3B7D600409C463707CEFF7D176F
:10050000F98F9CC6F9BFB7D70040D84331661306B0
:1005100006F0799BD8C309671307C7192A970347C1
:100520000700945F2207329701761306F60FF18ECB
:10053000558F98DFD8438966938606F413671700B2
:10054000D8C337C700401307072074D383A6070911
:10055000139666006358060083A607091396560093
:10056000634406007453FDF2B7D7004003A50709A2
:1005700083A747091375F503A98393F7F707E207E4
:100580005D8D828037D700405C571375F507F59B6A
:100590005CD737C70040130707101C4393F707F8D1
:1005A000C98F1CC3828003A741C093060002014586
:1005B000370800809315E7019317A700AD8FB98F17
:1005C0009315F701B3F70701AD8F0583FD160605F7
:1005D0005D8F93F6F60FFD835D8DE9FE23A2E1C0EA
:1005E0008280B71700409387470B98431345F5FF68
:1005F000698F98C3B71700409387070B9843698F9B
:1006000098C3B71700409387070A9843798D88C32A
:100610008280B71700400D479387470B6389E50237
:1006200011476382E50494431347F5FFF98E94C3A1
:10063000B71700409387070B9443C98E94C3B7172D
:1006400000409387070A9443758F98C38280944330
:100650001347F5FF758F98C3B71700409387070AB4
:100660009843498FDDB79843498FF5B7011126CAE2
:100670004AC84EC637190040B7190040856422CCDD
:1006800052C456C206CE2A84214A9389C90A930AC3
:1006900000401309890B9384048093178401E18738
:1006A00063D20708854513050040A537232059016B
:1006B0000565854513050580A93F0565232099003B
:1006C000060423A099008D45130505807D1A137437
:1006D000F40F8137E3130AFC854513050040153FED
:1006E0009307004005652320F90085451305058023
:1006F0000D37B71700402320990003A4470A05656A
:1007000023A09900130505808D452137F24013552C
:10071000A4006244D2444249B249224A924A05891D
:100720000561828023A059018D4513050040D53510
:1007300041B75D7162D4333CA0004EDE56DA5AD820
:100740005ED66ECE86C6A2C4A6C2CAC052DC66D22F
:100750006AD0AA8AAE89814B896D330C8041130B14
:10076000000883C40900850985E0B6402644964404
:100770000649F259625AD25A425BB25B225C925CE1
:10078000025DF24D616182808E041387CD95937C6A
:100790008C01BA945689C10C138D0B0103CA040055
:1007A000930719003EC25E8413567A002285CA85DB
:1007B00032C4E931224692452285060AC1312246D9
:1007C00013051400CA8532C62AC44D3932469245F3
:1007D00022450904137AFA0F5531E317A4FD0909DC
:1007E0008504E31D99FBE30264F9A28B9DBF01110F
:1007F00022CE26CC4ACA4EC852C6138701C993835B
:100800000502930FF00737140020854413090502F1
:10081000C14963C6050663C8BF0693D7354093F246
:1008200075009E07930EC486339E5400134EFEFF40
:100830003A83AA86BE9E03280300338ADE0001465F
:10084000B307D60063E4FF029377180085C3B308AB
:10085000CA0003CF080093570801858BB397570050
:10086000337FCF01B3E7E7012380F8000506135873
:100870001800E31736FDC1061103E31ED9FA8505FA
:100880002107E39875F87244E2445249C249324A5A
:1008900005618280B70700E083A707348280397141
:1008A00022DC370400E0130404341C4006DE26DAA0
:1008B0004AD84ED652D456D25AD05ECE93F7070CB1
:1008C0001307000C638BE70002C6AE84D5E51C401D
:1008D00089C793F7070891E3753F8144F25062544A
:1008E0004259B259225A925A025BF24B2685D2548F
:1008F00021618280B389244163533B019D49B7073D
:1009000010008507184093760708B1E611C35937E0
:1009100078008D473A8663C73705B24733072A0107
:1009200023A0FA008147834507008507B306F60038
:100930002380B6006385F9000507E39677FF938768
:10094000490093E707F82306F100B2474E991CC00F
:10095000E34299FA61B7FD17D5F71C4093E7070CFE
:100960001CC0A5BFB306F900D29683C60600850752
:100970000507A30FD7FE45B7B70A00E02A8A014949
:100980001D4B938A4A348D4BE1B7411122C406C6F0
:100990002E843137B2402285224441018280B7172C
:1009A00000409387C70A130700401DCA98C34147F8
:1009B00098C3B747004037470040AA9599071107E9
:1009C0006315B5023747004019078347070093F7BF
:1009D0000704E5DFB7170040414723ACE70A8280F0
:1009E000B716004023ACE60AD9B783C6070093F6D2
:1009F0000604E5DE8346050005052300D700C9B7D8
:100A000001110546A307A100B2851305F10006CE2A
:100A10007937F24005618280411122C4130500023A
:100A20003714002026C24AC006C61304C486C93F34
:100A30008144414913E504FB1375F50FD137014596
:100A4000C1374145753F2285014693050002813F2C
:100A5000930500023305B4000146913713050404E1
:100A600001469305000285041D3FC20413050406D8
:100A7000014693050002C1801D3713040408E39B5F
:100A800024FBB240224492440249410182809701F2
:100A900000209381E1BF172100201301A156138587
:100AA00001D9970500209385A55C6377B5002320C5
:100AB00005001105E36DB5FE1305000997F5FF1F4D
:100AC0009385455417F6FF1F1306C67C63FAC500CD
:100AD0008322050023A0550011059105E3EAC5FE18
:100AE000171500001305456E938541C017060020B9
:100AF00013060693638AC5008322050023A05500D0
:100B000011059105E3EAC5FE93070000FD427390CD
:100B100002BC89629382828873A0023097F2FFFF41
:100B20009382424E93E2320073905230B7F700E066
:100B3000154798C385679387C70B73901734730065
:100B4000203001A0AA8703C7070001E73385A7402B
:100B500082808507CDBF757122C5E6D206C726C340
:100B60004AC1CEDED2DCD6DADAD8DED6E2D4EAD09A
:100B7000EECE3284B68C31E101499304A03A81492A
:100B8000930A5002130A0003254BA94B8347040024
:100B9000130D1400A30FF10085E7BA402A449A44CC
:100BA0000A49665AD65A465BB65B265C965C065D79
:100BB000F64D4E85F65949618280AA842E89C1B7C7
:100BC000638C57014A8685451305F1018294668C32
:100BD0006A84AA99E28C5DBF03471400930724003E
:100BE000528DA30FE100631E47073E848146814773
:100BF00001A8B38777030347040005048546B2972D
:100C0000130607FD9375F60FE375BBFE99C2A30F9C
:100C1000E100E146BE8D63D3F600B68D9306C006B3
:100C200001466318D7000347040005460504A30FD7
:100C3000E1008346F101130740066383E60663651E
:100C4000D702930780056380F60A93073006638E08
:100C5000F60AA1D64A8685451305F1018294668C71
:100C60008DBF130D000251B713075007638AE602C8
:100C7000130780076389E60613073007E39CE6FC49
:100C8000138C4C0083AC0C003EC66685653DB247B4
:100C9000AA856359F0083818EE866A86668525A00D
:100CA000138C4C0005CA9386B6F8181093B616003C
:100CB00003A50C000146A945EFF04FF33818EE8666
:100CC0006A86AA850810EFF0AFE5AA854A8628183B
:100CD000829401B79307500718106394F600854675
:100CE000C1BF8146F1B703A50C00138686FA181020
:100CF000854613361600C145EFF04FEF138C4C00BC
:100D0000AA853818EE866A8675BF83A70C00138CF7
:100D10004C003818A30FF100EE866A86854513054E
:100D2000F10155B74A86668565B7397132D42A868E
:100D300005652ED236D6814554101305A59806CEEA
:100D40003AD83EDA42DC46DE36C63135F240216121
:100D50008280397126DA4AD852D4B7140040056A25
:100D600037190040060522DC4ED656D25AD05ECE48
:100D700062CC06DE66CA2E84B28B368B814A130A99
:100D80000A809384840B1309C90A130C00409379D9
:100D9000F50F0565854513050580EFF09F8723A0B6
:100DA00044018D451305004023208901EFF07F8623
:100DB000056513050580232049018D45EFF07F85EA
:100DC0004E85EFF0BF8A1DC509655686DA85130585
:100DD000058CA13F850AE39E7AFBF2506254D254FF
:100DE0004259B259225A925A025BF24B624CD24C8F
:100DF0002161828003460400930C2400328532C6B0
:100E0000EFF0DF8683461400368536C4EFF01F8688
:100E10008D452A842320890113050040EFF06FFFE0
:100E20000565854513050580EFF0AFFE854523A0D8
:100E3000440113050040EFF0CFFD23A08401A2463A
:100E4000324619C809671307478B0965DA85130508
:100E5000C58DE13D6684BDBF09671307C78BF5B734
:100E6000011106CE22CC2AC22AC42EC69DC1B33798
:100E7000A0004C00B307F0402A84FD8D1305A03A72
:100E8000D93901C4224592471D8DF2406244056163
:100E9000828001448145DDB7397132D42E86B70591
:100EA000008036D6FD15341006CE3AD83EDA42DC44
:100EB00046DE36C67537F240216182802A96AA87BF
:100EC0006393C70082802380B7008507D5BF814721
:100ED0006313F60082803387F500834607003307EB
:100EE000F50085072300D700E5B7B70700E0938733
:100EF000073498439306000C1377070C6306D70456
:100F000041113707100022C406C62A8405079443FE
:100F100013F6060819EE91C2B53A93178400C2077A
:100F2000C18393E75708370700E02320F7340545CE
:100F300001A87D1769FF984301451367070C98C303
:100F4000B24022444101828001458280B7170040AF
:100F500093870704930570052380B700130680FA72
:100F60002380C70001000100371700408346A70017
:100F700093E606012305D700372700408546A303E3
:100F8000D7808346578093E60601A302D78023804B
:100F90000700010001002380B7002380C700010083
:100FA0000100371700409306A0042304D7002380D4
:100FB000070001000100B70700E023A20734130770
:100FC000000823A0E73482801D71A2C637C4004008
:100FD00013040420A6C43ADA04443ED858441C44FE
:100FE000AAC286CE96CC9ACA9EC8AEC032DE36DC85
:100FF00042D646D44AD24ED072CE76CC7ACA7EC879
:10100000F98F37C700401CC4130707105C5B01450C
:101010008588F19B93E717005CDBEFF0EFC93C4854
:1010200093F7F78F3CC81C4093E787001CC0A5C00E
:1010300097F0FF1FE78000FE39C997F0FF1FE78098
:1010400060FC83C401DA938501DAAA88910426C082
:1010500003C8750083C7650003C7550083C64500F4
:1010600003C6350083C5250009651305458F75390D
:10107000138401DA014989698345A4001385C99164
:10108000050965310504E34999FE2945B93D364412
:10109000F640E6425643C643A64416458645725678
:1010A000E2565257C2573258A25812598259724EBC
:1010B000E24E524FC24F256173002030517186D7E6
:1010C000A2D5A6D3CAD1CECFD2CDD6CBDAC9DEC770
:1010D000E2C5E6C3EAC16EDF953D0565914513059E
:1010E0000580B71400400569EFF0AFD29384C40ABD
:1010F0001309098091451305000423A02401EFF092
:101100004FD1B7190040930A000423AC590B914505
:101110004145EFF00FD0C1479CC0914513050040F9
:10112000EFF02FCF130A00408545528523A04401DC
:10113000EFF02FCE854523AC490B4A85EFF06FCDFC
:10114000B7870B0000188966AD0723AC290B93867F
:1011500046920946A2851305C0073ED8DD3E896642
:1011600089659386469335469385C5151305A00674
:10117000CD3689669386C6930946938581C8130543
:10118000C007C13E8D454A85EFF0AFC88D455285F9
:10119000EFF02FC823A0240123AC490B23A0540156
:1011A000B7F900E003A78900B72709009387077CF8
:1011B0003E9783A78900998FE3CD07FEB7140040BF
:1011C000130900049384840B91454A8523A02401CC
:1011D000EFF02FC491454145EFF0AFC391451305A2
:1011E0000040EFF00FC3914513050008EFF06FC208
:1011F000914513050002EFF0CFC1C14723A02401A0
:101200009CC0B71700409387C70A1307004098C3D4
:10121000154637470040A301C70009462300C70011
:10122000930640062300D7008346070093E6860016
:101230002300D700A300C70023A0270103A789002C
:10124000B72709009387077C3E97B7F600E09C46D6
:10125000998FE3CE07FEB717004013070004B71AB3
:101260000020056623ACE70A130606808145138536
:10127000CA868964A131938484171309F00F03C5CA
:101280000400631A2553EFF02FF905661306068054
:1012900081451385CA861D311305500DEFF04FF6B9
:1012A0001305000EEFF0CFF51305800CEFF04FF5AE
:1012B0001305100AEFF0CFF4B7270040894637072F
:1012C00000042380D7407D1723A6E740130750FC76
:1012D0002380E7402381D740B717004003D7A701F9
:1012E00037E900E013670704239DE700B707000113
:1012F0002320F910F327003093E787087390073015
:1013000091452E85EFF0EFB0B9472388F1D8B7C7E4
:101310000040938707201307C008D8CB93066007C7
:10132000D4CFD8D3D8DBF8C3F4C71307C006D8D7B7
:10133000D8DF13078007D8C33707160023AA07048E
:101340003D07D8C7138701DAF8DF7D57B7D40040CF
:1013500098C7930700489CD49C583707FAFF7D171D
:10136000F98F9CD89C5837070070B7060002D98FB8
:101370009CD8DC5C370700F97D17F98FD58FDCDC52
:10138000DC5C37070040FD168E078D83D98FDCDCCF
:10139000BC443707F9FF7D17F98FBCC4BC48370739
:1013A0000700514C93F7F78F93E70730BCC8FC4C0C
:1013B00013058055D98FFCCCFC4C37077000D98FB2
:1013C000FCCC37070200B7C700409387071013070C
:1013D000C72098DF13070005D8DFD85B758FB706E5
:1013E00000DA558FD8DB98431377F7CF98C3A3095A
:1013F0008905EFF06F8CDC407D777D1793F7F7EF71
:10140000DCC09C5413055002F98F9CD4DC54370780
:101410000200BD9BDCD49C44D98F9CC4DC4093E784
:101420000701DCC0EFF02F8EAA84135B8501130542
:101430007002EFF04F8DAA89935B85014945EFF06B
:101440008F8C9377F50F130680022A89135A850132
:1014500093F4F40F93F9F90F814522859D8CB3899C
:101460003741A93CB386840381476286B305F40003
:10147000850733D78603858E62076187131547007A
:10148000498F2380E500E393C7FE81465148130648
:10149000800233D70603B305F4008507CE966207B2
:1014A000618713154700498F2380E500E393C7FE4A
:1014B000A286014737D5004029468C429307870210
:1014C0008A07AA978CC305079106E318C7FE33065F
:1014D0004B419546B306D602330A7A4102D002D276
:1014E00002D48547994508103E95850733D7B60243
:1014F000918E620761871318470033670701230045
:10150000E500E392B7FE814619482D4633D706031E
:101510000C10BE958507D2966207618713154700A8
:10152000498F2380E500E393C7FE8256B7D700407A
:101530001387070834C79256056674C7A25634CB82
:10154000D8439376F9033D9BD8C3D843799BD8C33E
:101550009857518F98D7D85713670701D8D7985FF6
:10156000137707FC558F98DF985FB7060081FD164B
:10157000758FB706007F3379D9003367270198DF6D
:10158000D843C176FD1613670710D8C3B84B758FC3
:10159000B8CB9847B7062000558F98C7D847930611
:1015A000400613670701D8C7D843518FD8C337C740
:1015B00000401307072074D3745391C683A6C7094C
:1015C00093F60610F5FAB7D7004013870708584F6F
:1015D00041667D8B23ACE1D8B84B518FB8CBB84B6B
:1015E00003A681D9019B518FB8CB98473706E0FFFE
:1015F0007D16718F98C703A781D97946FD470907E2
:101600006365E60083A781D9890723AEF1D8B7D7F0
:101610000040B84FC176FD16758FB8CF9847C166A8
:101620000145558F98C7D847B706EFFFFD161367DA
:101630000710D8C7D843014AB7FB00E0758FB7063B
:101640001000558FD8C3EFE03FE7B7E700E003C7CE
:10165000574137C5898E054613670708A38AE740B7
:101660003707200023A0E710B945130565ED97F073
:10167000FF1FE78060AE054903AB8B0093090101B2
:10168000B7BCAAAA4E8C8144B70DFF4F938CACAA6D
:101690002145EFE01FF513050010EFE09FF413055F
:1016A0000020EFE01FF4638C241189476383F41258
:1016B00099E8914513050010EFE0BFF5B71700401A
:1016C000214723ACE70A83A70D00639D97119397E9
:1016D0002400EE97DC432320FC0085049147110C85
:1016E000E398F4FA05661306068081451385CA86D9
:1016F00083A48B00EFF08FFC03A68B008965938594
:1017000045942285EFF04FF9A2850145EFF06F82F5
:10171000F24633866441896521869385C594228586
:10172000EFF08FF7A2856145050AEFF08F80130C6B
:10173000000283AC0900014B93DC9C00B30D904187
:10174000B30C9941860CB304BC419305EB010546EB
:1017500026852EC4EFE09FD2A2453305BC01054685
:101760002AC6EFE0BFD13245F947B3856741054648
:101770002EC4EFE0BFD0A24505462685EFE01FD07E
:1017800013080008634A9B09050B93171B00850784
:101790003306B041E6976315CB0063C59D01814CCC
:1017A00063D99D01850D13961D000506B2976387C9
:1017B0002D07BE8C49BF8504EFF08FA4C9B49145B5
:1017C00013050020EFE0FFE4B717004013070010F7
:1017D000CDBD91452145EFE0DFE3B717004013078A
:1017E0000020C5B523AA01D897F0FF1FE78000AB02
:1017F0008567938707FA83A641D999E2FD17E5FF2C
:1018000003A741D9B7E73400938787F27917B3D795
:10181000E70293879706C1B5E68759B7130C0C0208
:101820009109E3180CF1EFE01FD8AA84EFE0BFD7CD
:101830009307000DB375F50233F5F402938585FD2A
:10184000130585FDEFE0BFFA9377FA0FA5E38567EF
:10185000B7F5030089071946E10513052102231096
:10186000F102EFF0CFE68965FD571946938545955E
:101870001305A1022314F102EFF06FE583C401D92F
:1018800037C5898E41460C10130565ED4A87A6863B
:1018900097E0FF1FE780807937C5898E4A86A68545
:1018A000130565ED97F0FF1FE780008BEFF0CF96F3
:1018B000E1B300004641494C000000004F4B0000DE
:1018C00025732043616E6E6F7420436F6E66696787
:1018D00075726520402025640A00000025732025CC
:1018E00030327868203D2025303278205B25735DCA
:1018F0000A000000253032783A253032783A253017
:1019000032783A253032783A253032783A253032FA
:10191000783A2533642025643A0000002530327877
:1019200020000000514D4336333039205245534595
:10193000540000004C534D3644533300514D433650
:10194000333039002530387800000000253364201A
:1019500025640000AABBCCDDEEFF00000000000003
:10196000000000007E81A581BD99817E7EFFDBFFA6
:10197000C3E7FF7E6CFEFEFE7C38100010387CFE54
:101980007C381000387C38FEFED6103810387CFECB
:10199000FE7C10380000183C3C180000FFFFE7C335
:1019A000C3E7FFFF003C664242663C00FFC399BDAF
:1019B000BD99C3FF0F070F7DCCCCCC783C66666623
:1019C0003C187E183F333F303070F0E07F637F6318
:1019D0006367E6C018DB3CE7E73CDB1880E0F8FE15
:1019E000F8E08000020E3EFE3E0E0200183C7E181B
:1019F000187E3C1866666666660066007FDBDB7BE9
:101A00001B1B1B003E613C66663C867C00000000A0
:101A10007E7E7E00183C7E187E3C18FF183C7E18A7
:101A200018181800181818187E3C180000180CFE1A
:101A30000C180000003060FE603000000000C0C0E4
:101A4000C0FE0000002466FF6624000000183C7EF3
:101A5000FFFF000000FFFF7E3C18000000000000B8
:101A600000000000183C3C181800180066662400AE
:101A7000000000006C6CFE6CFE6C6C00183E603C5C
:101A8000067C180000C6CC183066C600386C387664
:101A9000DCCC760018183000000000000C18303044
:101AA00030180C0030180C0C0C18300000663CFF8D
:101AB0003C6600000018187E1818000000000000A6
:101AC000001818300000007E000000000000000038
:101AD00000181800060C183060C08000386CC6D69C
:101AE000C66C38001838181818187E007CC6061CFA
:101AF0003066FE007CC6063C06C67C001C3C6CCCF6
:101B0000FE0C1E00FEC0C0FC06C67C003860C0FC97
:101B1000C6C67C00FEC60C18303030007CC6C67CC1
:101B2000C6C67C007CC6C67E060C7800001818006D
:101B3000001818000018180000181830060C18308B
:101B4000180C060000007E00007E00006030180CBB
:101B5000183060007CC60C18180018007CC6DEDE49
:101B6000DEC07800386CC6FEC6C6C600FC66667C61
:101B70006666FC003C66C0C0C0663C00F86C6666E9
:101B8000666CF800FE6268786862FE00FE62687843
:101B90006860F0003C66C0C0CE663A00C6C6C6FEAD
:101BA000C6C6C6003C18181818183C001E0C0C0CB1
:101BB000CCCC7800E6666C786C66E600F06060601D
:101BC0006266FE00C6EEFEFED6C6C600C6E6F6DEBD
:101BD000CEC6C6007CC6C6C6C6C67C00FC66667C91
:101BE0006060F0007CC6C6C6C6CE7C0EFC66667C15
:101BF0006C66E6003C6630180C663C007E7E5A1827
:101C000018183C00C6C6C6C6C6C67C00C6C6C6C630
:101C1000C66C3800C6C6C6D6D6FE6C00C6C66C38C2
:101C20006CC6C6006666663C18183C00FEC68C187A
:101C30003266FE003C30303030303C00C06030183E
:101C40000C0602003C0C0C0C0C0C3C0010386CC652
:101C50000000000000000000000000FF30180C0031
:101C6000000000000000780C7CCC7600E0607C6610
:101C70006666DC0000007CC6C0C67C001C0C7CCC08
:101C8000CCCC760000007CC6FEC07C003C6660F8D0
:101C90006060F000000076CCCC7C0CF8E0606C76E4
:101CA0006666E6001800381818183C00060006069C
:101CB0000666663CE060666C786CE60038181818BA
:101CC00018183C000000ECFED6D6D6000000DC66FA
:101CD0006666660000007CC6C6C67C000000DC6646
:101CE000667C60F0000076CCCC7C0C1E0000DC76BC
:101CF0006060F00000007EC07C06FC003030FC30EC
:101D000030361C000000CCCCCCCC76000000C6C61F
:101D1000C66C38000000C6D6D6FE6C000000C66C4B
:101D2000386CC6000000C6C6C67E06FC00007E4CAD
:101D300018327E000E18187018180E00181818188F
:101D4000181818007018180E1818700076DC0000AB
:101D5000000000000010386CC6C6FE007CC6C0C083
:101D6000C67C0C78CC00CCCCCCCC76000C187CC6D5
:101D7000FEC07C007C82780C7CCC7600C600780C9F
:101D80007CCC76003018780C7CCC76003030780C27
:101D90007CCC760000007EC0C07E0C387C827CC685
:101DA000FEC07C00C6007CC6FEC07C0030187CC62D
:101DB000FEC07C006600381818183C007C82381879
:101DC00018183C003018003818183C00C6386CC68B
:101DD000FEC6C600386C7CC6FEC6C6001830FEC003
:101DE000F8C0FE0000007E187ED87E003E6CCCFE5F
:101DF000CCCCCE007C827CC6C6C67C00C6007CC62D
:101E0000C6C67C0030187CC6C6C67C00788400CC70
:101E1000CCCC76006030CCCCCCCC7600C600C6C62C
:101E2000C67E06FCC6386CC6C66C3800C600C6C680
:101E3000C6C67C0018187EC0C07E1818386C64F0C6
:101E40006066FC0066663C7E187E1818F8CCCCFAFA
:101E5000C6CFC6C70E1B183C18D870001830780CB7
:101E60007CCC76000C18003818183C000C187CC686
:101E7000C6C67C001830CCCCCCCC760076DC00DC3E
:101E80006666660076DC00E6F6DECE003C6C6C3EF4
:101E9000007E0000386C6C38007C000018001818B8
:101EA00030633E00000000FEC0C00000000000FEE5
:101EB0000606000063E66C7E3366CC0F63E66C7A40
:101EC000366ADF06180018183C3C1800003366CC50
:101ED0006633000000CC663366CC0000228822887E
:101EE0002288228855AA55AA55AA55AA77DD77DDFA
:101EF00077DD77DD1818181818181818181818181A
:101F0000F81818181818F818F81818183636363639
:101F1000F636363600000000FE3636360000F81879
:101F2000F81818183636F606F63636363636363699
:101F3000363636360000FE06F63636363636F606C5
:101F4000FE00000036363636FE0000001818F8187D
:101F5000F800000000000000F818181818181818E9
:101F60001F00000018181818FF00000000000000F3
:101F7000FF181818181818181F1818180000000053
:101F8000FF00000018181818FF18181818181F1844
:101F90001F18181836363636373636363636373056
:101FA0003F00000000003F30373636363636F70047
:101FB000FF0000000000FF00F736363636363730B7
:101FC000373636360000FF00FF0000003636F700D7
:101FD000F73636361818FF00FF0000003636363662
:101FE000FF0000000000FF00FF18181800000000AC
:101FF000FF363636363636363F00000018181F18C2
:102000001F00000000001F181F1818180000000013
:102010003F36363636363636FF3636361818FF181F
:10202000FF18181818181818F80000000000000011
:102030001F181818FFFFFFFFFFFFFFFF0000000041
:10204000FFFFFFFFF0F0F0F0F0F0F0F00F0F0F0FD8
:102050000F0F0F0FFFFFFFFF00000000000076DCF6
:10206000C8DC760078CCCCD8CCC6CC00FEC6C0C0CC
:10207000C0C0C0000000FE6C6C6C6C00FEC660301E
:1020800060C6FE0000007ED8D8D8700000006666EA
:1020900066667CC00076DC18181818007E183C664E
:1020A000663C187E386CC6FEC66C3800386CC6C6F6
:1020B0006C6CEE000E180C3E66663C0000007EDB89
:1020C000DB7E0000060C7EDBDB7E60C01E30607EA7
:1020D00060301E00007CC6C6C6C6C60000FE00FEFC
:1020E00000FE000018187E1818007E0030180C182A
:1020F00030007E000C1830180C007E000E1B1B18E0
:10210000181818181818181818D8D8700018007E41
:10211000001800000076DC0076DC0000386C6C38BB
:102120000000000000000018180000000000001867
:10213000000000000F0C0C0CEC6C3C1C6C363636AE
:1021400036000000780C18307C00000000003C3C99
:102150003C3C000000000000000000001244105A47
:1021600011540A2806600700080909AA0A03130087
:102170001510160013010000AE0010B0DC00816FD6
:1021800021A4A87FD300D5F0D91DDB3540AD80A0B8
:1021900001D90681FEDBFEA87FAFFF000102030428
:1021A00005060708090A0C0D0E0F1011121314155D
:1021B000161718191A1B1C1D1E1F20212223242547
:0421C00026000B27C3
:1021C4002FA37A7400000000B7270040094723803A
:1021D400E740130750FC2380E74011456700205E69
:1021E40039712AD62ED43ACE3ECC06DE16DC1ADA63
:1021F4001ED832D236D042CA46C872C676C47AC213
:102204007EC0B727004009472383E74003A707415F
:1022140091452E8523AAE1D8E7002061F250E252CD
:102224005253C2533255A255125682567247E24750
:102234005248C248324EA24E124F824F216173005F
:10224400203000000B480A190200200000FC00FCAA
:102254001F001F0000FF00077F007000C0FFC001C7
:10226400FF01C001E0FF6000FF030003F0FF301036
:10227400FF070006F8FF1838FF0F000CFCFF0C7C6A
:10228400FF1F0018FCFF04FEFF1F0010FEFF067F67
:10229400FF3F0030FEFF823FFF3F0020FFFFC31FD0
:1022A400FF7F0060FFFFE10FFF7F0040FFFFC107DA
:1022B400FF7F0040FFFF8103FF7F0040FFFF01011C
:1022C400FF7F0040FFFF0100FF7F0040FFFF010090
:1022D400FF7F0040FFFF0100FF7F0040FFFF010080
:1022E400FF7F0040FFFF0100FF7F0040FFFF03006E
:1022F400FF7F0060FEFF0200FF3F0020FEFF06009C
:10230400FF3F0030FCFF0400FF1F0010FCFF0C0027
:10231400FF1F0018F8FF1800FF0F000CF0FF30003B
:10232400FF070006E0FF6000FF030003C0FFC001D9
:10233400FF01C00100FF00077F00700000FC00FCEB
:0C2344001F001F0000000000000000004F
:00000001FF
